{
  "contractName": "TransactionRequest",
  "abi": [
    {
      "inputs": [
        {
          "name": "addressArgs",
          "type": "address[4]"
        },
        {
          "name": "uintArgs",
          "type": "uint256[12]"
        },
        {
          "name": "callData",
          "type": "bytes"
        }
      ],
      "payable": true,
      "stateMutability": "payable",
      "type": "constructor"
    },
    {
      "payable": true,
      "stateMutability": "payable",
      "type": "fallback"
    },
    {
      "constant": false,
      "inputs": [],
      "name": "execute",
      "outputs": [
        {
          "name": "",
          "type": "bool"
        }
      ],
      "payable": false,
      "stateMutability": "nonpayable",
      "type": "function"
    },
    {
      "constant": false,
      "inputs": [],
      "name": "cancel",
      "outputs": [
        {
          "name": "",
          "type": "bool"
        }
      ],
      "payable": false,
      "stateMutability": "nonpayable",
      "type": "function"
    },
    {
      "constant": false,
      "inputs": [],
      "name": "claim",
      "outputs": [
        {
          "name": "",
          "type": "bool"
        }
      ],
      "payable": true,
      "stateMutability": "payable",
      "type": "function"
    },
    {
      "constant": true,
      "inputs": [],
      "name": "requestData",
      "outputs": [
        {
          "name": "",
          "type": "address[6]"
        },
        {
          "name": "",
          "type": "bool[3]"
        },
        {
          "name": "",
          "type": "uint256[15]"
        },
        {
          "name": "",
          "type": "uint8[1]"
        }
      ],
      "payable": false,
      "stateMutability": "view",
      "type": "function"
    },
    {
      "constant": true,
      "inputs": [],
      "name": "callData",
      "outputs": [
        {
          "name": "data",
          "type": "bytes"
        }
      ],
      "payable": false,
      "stateMutability": "view",
      "type": "function"
    },
    {
      "constant": false,
      "inputs": [
        {
          "name": "_to",
          "type": "address"
        },
        {
          "name": "_data",
          "type": "bytes"
        }
      ],
      "name": "proxy",
      "outputs": [
        {
          "name": "success",
          "type": "bool"
        }
      ],
      "payable": true,
      "stateMutability": "payable",
      "type": "function"
    },
    {
      "constant": false,
      "inputs": [],
      "name": "refundClaimDeposit",
      "outputs": [
        {
          "name": "",
          "type": "bool"
        }
      ],
      "payable": false,
      "stateMutability": "nonpayable",
      "type": "function"
    },
    {
      "constant": false,
      "inputs": [],
      "name": "sendFee",
      "outputs": [
        {
          "name": "",
          "type": "bool"
        }
      ],
      "payable": false,
      "stateMutability": "nonpayable",
      "type": "function"
    },
    {
      "constant": false,
      "inputs": [],
      "name": "sendBounty",
      "outputs": [
        {
          "name": "",
          "type": "bool"
        }
      ],
      "payable": false,
      "stateMutability": "nonpayable",
      "type": "function"
    },
    {
      "constant": false,
      "inputs": [],
      "name": "sendOwnerEther",
      "outputs": [
        {
          "name": "",
          "type": "bool"
        }
      ],
      "payable": false,
      "stateMutability": "nonpayable",
      "type": "function"
    }
  ],
  "bytecode": "0x6060604052604051620020fa380380620020fa833981016040528090816080019081610180018051820191905050600073__RequestLib____________________________638c5bebf290918585856000604051602001526040518563ffffffff167c01000000000000000000000000000000000000000000000000000000000281526004018085815260200184600460200280838360005b83811015620000b557808201518184015260208101905062000098565b5050505090500183600c60200280838360005b83811015620000e5578082015181840152602081019050620000c8565b5050505090500180602001828103825283818151815260200191508051906020019080838360005b838110156200012a5780820151818401526020810190506200010d565b50505050905090810190601f168015620001585780820380516001836020036101000a031916815260200191505b509550505050505060206040518083038186803b15156200017857600080fd5b6102c65a03f415156200018a57600080fd5b5050506040518051905050505050611f5280620001a86000396000f3006060604052600436106100a4576000357c0100000000000000000000000000000000000000000000000000000000900463ffffffff1680634bb89c4d146100a65780634e417a98146100d35780634e71d92d14610161578063606deecd1461018357806361461954146102615780636949a0581461028e578063ae39279f146102bb578063b311ee0c146102e8578063be6d055a14610315578063ea8a1af01461039e575b005b34156100b157600080fd5b6100b96103cb565b604051808215151515815260200191505060405180910390f35b34156100de57600080fd5b6100e6610462565b6040518080602001828103825283818151815260200191508051906020019080838360005b8381101561012657808201518184015260208101905061010b565b50505050905090810190601f1680156101535780820380516001836020036101000a031916815260200191505b509250505060405180910390f35b61016961050f565b604051808215151515815260200191505060405180910390f35b341561018e57600080fd5b610196610520565b6040518085600660200280838360005b838110156101c15780820151818401526020810190506101a6565b5050505090500184600360200280838360005b838110156101ef5780820151818401526020810190506101d4565b5050505090500183600f60200280838360005b8381101561021d578082015181840152602081019050610202565b5050505090500182600160200280838360005b8381101561024b578082015181840152602081019050610230565b5050505090500194505050505060405180910390f35b341561026c57600080fd5b610274610704565b604051808215151515815260200191505060405180910390f35b341561029957600080fd5b6102a1610715565b604051808215151515815260200191505060405180910390f35b34156102c657600080fd5b6102ce6107ac565b604051808215151515815260200191505060405180910390f35b34156102f357600080fd5b6102fb610843565b604051808215151515815260200191505060405180910390f35b610384600480803573ffffffffffffffffffffffffffffffffffffffff1690602001909190803590602001908201803590602001908080601f016020809104026020016040519081016040528093929190818152602001838380828437820191505050505050919050506108d9565b604051808215151515815260200191505060405180910390f35b34156103a957600080fd5b6103b16109e6565b604051808215151515815260200191505060405180910390f35b60008073__RequestLib____________________________63ab3b2e8190916000604051602001526040518263ffffffff167c01000000000000000000000000000000000000000000000000000000000281526004018082815260200191505060206040518083038186803b151561044257600080fd5b6102c65a03f4151561045357600080fd5b50505060405180519050905090565b61046a611e56565b600080016001018054600181600116156101000203166002900480601f0160208091040260200160405190810160405280929190818152602001828054600181600116156101000203166002900480156105055780601f106104da57610100808354040283529160200191610505565b820191906000526020600020905b8154815290600101906020018083116104e857829003601f168201915b5050505050905090565b600061051b6000610a7d565b905090565b610528611e6a565b610530611ea8565b610538611ed2565b610540611efb565b61054a6000610aea565b156106f9576000601701600001600060170160060160006017016007016000601701601601836006806020026040519081016040528092919082600680156105dd576020028201915b8160009054906101000a900473ffffffffffffffffffffffffffffffffffffffff1673ffffffffffffffffffffffffffffffffffffffff1681526020019060010190808311610593575b5050505050935082600380602002604051908101604052809291908260038015610641576020028201916000905b82829054906101000a900460ff1615158152602001906001019060208260000104928301926001038202915080841161060b5790505b5050505050925081600f806020026040519081016040528092919082600f8015610680576020028201915b81548152602001906001019080831161066c575b50505050509150806001806020026040519081016040528092919082600180156106e5576020028201916000905b82829054906101000a900460ff1660ff16815260200190600101906020826000010492830192600103820291508084116106ae5790505b5050505050905093509350935093506106fe565b600080fd5b90919293565b60006107106000611118565b905090565b60008073__RequestLib____________________________634074b91c90916000604051602001526040518263ffffffff167c01000000000000000000000000000000000000000000000000000000000281526004018082815260200191505060206040518083038186803b151561078c57600080fd5b6102c65a03f4151561079d57600080fd5b50505060405180519050905090565b60008073__RequestLib____________________________63f925a7d690916000604051602001526040518263ffffffff167c01000000000000000000000000000000000000000000000000000000000281526004018082815260200191505060206040518083038186803b151561082357600080fd5b6102c65a03f4151561083457600080fd5b50505060405180519050905090565b60008073__RequestLib____________________________637994549a90916000604051602001526040518263ffffffff167c01000000000000000000000000000000000000000000000000000000000281526004018082815260200191505060206040518083038186803b15156108ba57600080fd5b6102c65a03f415156108cb57600080fd5b505050604051805190505090565b60003373ffffffffffffffffffffffffffffffffffffffff16600060050160000160009054906101000a900473ffffffffffffffffffffffffffffffffffffffff1673ffffffffffffffffffffffffffffffffffffffff16148015610947575061094660006011016116f6565b5b151561095257600080fd5b8273ffffffffffffffffffffffffffffffffffffffff16348360405180828051906020019080838360005b8381101561099857808201518184015260208101905061097d565b50505050905090810190601f1680156109c55780820380516001836020036101000a031916815260200191505b5091505060006040518083038185876187965a03f192505050905092915050565b60008073__RequestLib____________________________6332839d9890916000604051602001526040518263ffffffff167c01000000000000000000000000000000000000000000000000000000000281526004018082815260200191505060206040518083038186803b1515610a5d57600080fd5b6102c65a03f41515610a6e57600080fd5b50505060405180519050905090565b6000610a8882611712565b1515610a9357600080fd5b610ab4610aa283601101611783565b83600d016117ea90919063ffffffff16565b507fbcb472984264b16baa8cde752f2af002ea8ce06f35d81caee36625234edd2a4660405160405180910390a160019050919050565b600081600d0160000160009054906101000a900473ffffffffffffffffffffffffffffffffffffffff16826017016000016000600681101515610b2957fe5b0160006101000a81548173ffffffffffffffffffffffffffffffffffffffff021916908373ffffffffffffffffffffffffffffffffffffffff1602179055508160050160010160009054906101000a900473ffffffffffffffffffffffffffffffffffffffff16826017016000016001600681101515610ba557fe5b0160006101000a81548173ffffffffffffffffffffffffffffffffffffffff021916908373ffffffffffffffffffffffffffffffffffffffff1602179055508160050160000160009054906101000a900473ffffffffffffffffffffffffffffffffffffffff16826017016000016002600681101515610c2157fe5b0160006101000a81548173ffffffffffffffffffffffffffffffffffffffff021916908373ffffffffffffffffffffffffffffffffffffffff1602179055508160070160040160009054906101000a900473ffffffffffffffffffffffffffffffffffffffff16826017016000016003600681101515610c9d57fe5b0160006101000a81548173ffffffffffffffffffffffffffffffffffffffff021916908373ffffffffffffffffffffffffffffffffffffffff1602179055508160070160010160009054906101000a900473ffffffffffffffffffffffffffffffffffffffff16826017016000016004600681101515610d1957fe5b0160006101000a81548173ffffffffffffffffffffffffffffffffffffffff021916908373ffffffffffffffffffffffffffffffffffffffff1602179055508160000160000160009054906101000a900473ffffffffffffffffffffffffffffffffffffffff16826017016000016005600681101515610d9557fe5b0160006101000a81548173ffffffffffffffffffffffffffffffffffffffff021916908373ffffffffffffffffffffffffffffffffffffffff1602179055508160050160010160149054906101000a900460ff16826017016006016000600381101515610dfe57fe5b602091828204019190066101000a81548160ff0219169083151502179055508160050160010160159054906101000a900460ff16826017016006016001600381101515610e4757fe5b602091828204019190066101000a81548160ff0219169083151502179055508160050160010160169054906101000a900460ff16826017016006016002600381101515610e9057fe5b602091828204019190066101000a81548160ff02191690831515021790555081600d0160010154826017016007016000600f81101515610ecc57fe5b01819055508160070160030154826017016007016001600f81101515610eee57fe5b01819055508160070160050154826017016007016002600f81101515610f1057fe5b01819055508160070160000154826017016007016003600f81101515610f3257fe5b01819055508160070160020154826017016007016004600f81101515610f5457fe5b01819055508160110160050154826017016007016005600f81101515610f7657fe5b01819055508160110160030154826017016007016006600f81101515610f9857fe5b01819055508160110160040154826017016007016007600f81101515610fba57fe5b01819055508160110160000160009054906101000a900460ff166002811115610fdf57fe5b826017016007016008600f81101515610ff457fe5b01819055508160110160020154826017016007016009600f8110151561101657fe5b0181905550816011016001015482601701600701600a600f8110151561103857fe5b0181905550816000016003015482601701600701600b600f8110151561105a57fe5b0181905550816000016002015482601701600701600c600f8110151561107c57fe5b0181905550816000016004015482601701600701600d600f8110151561109e57fe5b018190555081600d016002015482601701600701600e600f811015156110c057fe5b018190555081600d0160030160009054906101000a900460ff168260170160160160006001811015156110ef57fe5b602091828204019190066101000a81548160ff021916908360ff16021790555060019050919050565b6000806000805a925061113e6161a86111308761185b565b61188190919063ffffffff16565b5a1015611197577fc008bc849b42227c61d5063a1313ce509a6e99211bfd59e827e417be6c65c81b6005600681111561117357fe5b604051808260ff1660ff16815260200191505060405180910390a1600093506116ee565b8460050160010160159054906101000a900460ff1615611203577fc008bc849b42227c61d5063a1313ce509a6e99211bfd59e827e417be6c65c81b600160068111156111df57fe5b604051808260ff1660ff16815260200191505060405180910390a1600093506116ee565b8460050160010160149054906101000a900460ff161561126f577fc008bc849b42227c61d5063a1313ce509a6e99211bfd59e827e417be6c65c81b6000600681111561124b57fe5b604051808260ff1660ff16815260200191505060405180910390a1600093506116ee565b61127b8560110161189d565b156112d2577fc008bc849b42227c61d5063a1313ce509a6e99211bfd59e827e417be6c65c81b600260068111156112ae57fe5b604051808260ff1660ff16815260200191505060405180910390a1600093506116ee565b6112de856011016116f6565b15611335577fc008bc849b42227c61d5063a1313ce509a6e99211bfd59e827e417be6c65c81b6003600681111561131157fe5b604051808260ff1660ff16815260200191505060405180910390a1600093506116ee565b61134185600d016118b5565b80156113a0575084600d0160000160009054906101000a900473ffffffffffffffffffffffffffffffffffffffff1673ffffffffffffffffffffffffffffffffffffffff163373ffffffffffffffffffffffffffffffffffffffff1614155b80156113b457506113b3856011016118fc565b5b1561140b577fc008bc849b42227c61d5063a1313ce509a6e99211bfd59e827e417be6c65c81b600460068111156113e757fe5b604051808260ff1660ff16815260200191505060405180910390a1600093506116ee565b3a856000016004015414151561146c577fc008bc849b42227c61d5063a1313ce509a6e99211bfd59e827e417be6c65c81b60068081111561144857fe5b604051808260ff1660ff16815260200191505060405180910390a1600093506116ee565b60018560050160010160156101000a81548160ff02191690831515021790555061149885600001611930565b8560050160010160166101000a81548160ff0219169083151502179055506114c285600701611a11565b156114f8576114ec85600701600501546114de87600701611a58565b611a6690919063ffffffff16565b85600701600501819055505b8460070160050154915061150e85600701611a87565b50338560070160010160006101000a81548173ffffffffffffffffffffffffffffffffffffffff021916908373ffffffffffffffffffffffffffffffffffffffff16021790555061156185600d016118b5565b156115f257611587856007016002015486600d0160010154611a6690919063ffffffff16565b8560070160020181905550600085600d01600101819055506115e285600701600201546115d487600d0160030160009054906101000a900460ff1688600701611b0f90919063ffffffff16565b611a6690919063ffffffff16565b8560070160020181905550611623565b611617856007016002015461160987600701611b4a565b611a6690919063ffffffff16565b85600701600201819055505b61164b62015f9061163d5a8661188190919063ffffffff16565b611a6690919063ffffffff16565b9050611679856007016002015461166b3a84611b5890919063ffffffff16565b611a6690919063ffffffff16565b85600701600201819055507f3e504bb8b225ad41f613b0c3c4205cdd752d1615b4d77cd1773417282fcfb5d98560070160020154838360405180848152602001838152602001828152602001935050505060405180910390a16116de85600701611b8e565b506116e885611c16565b50600193505b505050919050565b600061170182611ce2565b61170a83611d06565b119050919050565b600061172082600d016118b5565b15151561172c57600080fd5b8160050160010160149054906101000a900460ff1615151561174d57600080fd5b61175982601101611d29565b151561176457600080fd5b81600d0160020154341015151561177a57600080fd5b60019050919050565b6000806117d283600501546117c460646117b661179f88611d72565b6117a889611d06565b61188190919063ffffffff16565b611b5890919063ffffffff16565b611d9a90919063ffffffff16565b9050606481111515156117e157fe5b80915050919050565b6000338360000160006101000a81548173ffffffffffffffffffffffffffffffffffffffff021916908373ffffffffffffffffffffffffffffffffffffffff160217905550348360010181905550818360030160006101000a81548160ff021916908360ff16021790555092915050565b600061187a6202bf208360000160030154611a6690919063ffffffff16565b9050919050565b600082821115151561189257600080fd5b818303905092915050565b600081600101546118ad83611d06565b109050919050565b6000808260000160009054906101000a900473ffffffffffffffffffffffffffffffffffffffff1673ffffffffffffffffffffffffffffffffffffffff1614159050919050565b600061190782611d06565b826001015411158015611929575061191e82611db5565b61192783611d06565b105b9050919050565b60003a826004015414151561194457600080fd5b8160000160009054906101000a900473ffffffffffffffffffffffffffffffffffffffff1673ffffffffffffffffffffffffffffffffffffffff1682600201548360030154908460010160405180828054600181600116156101000203166002900480156119f35780601f106119c8576101008083540402835291602001916119f3565b820191906000526020600020905b8154815290600101906020018083116119d657829003601f168201915b5050915050600060405180830381858888f193505050509050919050565b6000808260040160009054906101000a900473ffffffffffffffffffffffffffffffffffffffff1673ffffffffffffffffffffffffffffffffffffffff1614159050919050565b600081600301549050919050565b6000808284019050838110151515611a7d57600080fd5b8091505092915050565b600080826005015490506000811115611b0457600083600501819055508260040160009054906101000a900473ffffffffffffffffffffffffffffffffffffffff1673ffffffffffffffffffffffffffffffffffffffff166108fc829081150290604051600060405180830381858888f193505050509150611b09565b600191505b50919050565b6000611b426064611b348460ff16611b2687611b4a565b611b5890919063ffffffff16565b611d9a90919063ffffffff16565b905092915050565b600081600001549050919050565b60008082840290506000841480611b795750828482811515611b7657fe5b04145b1515611b8457600080fd5b8091505092915050565b600080826002015490506000811115611c0b57600083600201819055508260010160009054906101000a900473ffffffffffffffffffffffffffffffffffffffff1673ffffffffffffffffffffffffffffffffffffffff166108fc829081150290604051600060405180830381858888f193505050509150611c10565b600191505b50919050565b600080611c7c8360070160050154611c6e8560070160020154611c6087600d01600101543073ffffffffffffffffffffffffffffffffffffffff163161188190919063ffffffff16565b61188190919063ffffffff16565b61188190919063ffffffff16565b90508260050160000160009054906101000a900473ffffffffffffffffffffffffffffffffffffffff1673ffffffffffffffffffffffffffffffffffffffff166108fc829081150290604051600060405180830381858888f19350505050915050919050565b6000611cff82600201548360010154611a6690919063ffffffff16565b9050919050565b6000611d228260000160009054906101000a900460ff16611dd9565b9050919050565b6000611d3482611d06565b611d3d83611d72565b11158015611d5a5750611d4f82611e32565b611d5883611d06565b105b15611d685760019050611d6d565b600090505b919050565b6000611d938260050154611d8584611e32565b61188190919063ffffffff16565b9050919050565b6000808284811515611da857fe5b0490508091505092915050565b6000611dd282600401548360010154611a6690919063ffffffff16565b9050919050565b6000600280811115611de757fe5b826002811115611df357fe5b1415611e0157429050611e2d565b60016002811115611e0e57fe5b826002811115611e1a57fe5b1415611e2857439050611e2d565b600080fd5b919050565b6000611e4f8260030154836001015461188190919063ffffffff16565b9050919050565b602060405190810160405280600081525090565b60c0604051908101604052806006905b600073ffffffffffffffffffffffffffffffffffffffff16815260200190600190039081611e7a5790505090565b6060604051908101604052806003905b60001515815260200190600190039081611eb85790505090565b6101e060405190810160405280600f905b6000815260200190600190039081611ee35790505090565b6020604051908101604052806001905b600060ff16815260200190600190039081611f0b57905050905600a165627a7a72305820c1dde64ce901d212427bcc031e6381d8abcc88aa3169483e5303af1876bdc12e0029",
  "deployedBytecode": "0x6060604052600436106100a4576000357c0100000000000000000000000000000000000000000000000000000000900463ffffffff1680634bb89c4d146100a65780634e417a98146100d35780634e71d92d14610161578063606deecd1461018357806361461954146102615780636949a0581461028e578063ae39279f146102bb578063b311ee0c146102e8578063be6d055a14610315578063ea8a1af01461039e575b005b34156100b157600080fd5b6100b96103cb565b604051808215151515815260200191505060405180910390f35b34156100de57600080fd5b6100e6610462565b6040518080602001828103825283818151815260200191508051906020019080838360005b8381101561012657808201518184015260208101905061010b565b50505050905090810190601f1680156101535780820380516001836020036101000a031916815260200191505b509250505060405180910390f35b61016961050f565b604051808215151515815260200191505060405180910390f35b341561018e57600080fd5b610196610520565b6040518085600660200280838360005b838110156101c15780820151818401526020810190506101a6565b5050505090500184600360200280838360005b838110156101ef5780820151818401526020810190506101d4565b5050505090500183600f60200280838360005b8381101561021d578082015181840152602081019050610202565b5050505090500182600160200280838360005b8381101561024b578082015181840152602081019050610230565b5050505090500194505050505060405180910390f35b341561026c57600080fd5b610274610704565b604051808215151515815260200191505060405180910390f35b341561029957600080fd5b6102a1610715565b604051808215151515815260200191505060405180910390f35b34156102c657600080fd5b6102ce6107ac565b604051808215151515815260200191505060405180910390f35b34156102f357600080fd5b6102fb610843565b604051808215151515815260200191505060405180910390f35b610384600480803573ffffffffffffffffffffffffffffffffffffffff1690602001909190803590602001908201803590602001908080601f016020809104026020016040519081016040528093929190818152602001838380828437820191505050505050919050506108d9565b604051808215151515815260200191505060405180910390f35b34156103a957600080fd5b6103b16109e6565b604051808215151515815260200191505060405180910390f35b60008073__RequestLib____________________________63ab3b2e8190916000604051602001526040518263ffffffff167c01000000000000000000000000000000000000000000000000000000000281526004018082815260200191505060206040518083038186803b151561044257600080fd5b6102c65a03f4151561045357600080fd5b50505060405180519050905090565b61046a611e56565b600080016001018054600181600116156101000203166002900480601f0160208091040260200160405190810160405280929190818152602001828054600181600116156101000203166002900480156105055780601f106104da57610100808354040283529160200191610505565b820191906000526020600020905b8154815290600101906020018083116104e857829003601f168201915b5050505050905090565b600061051b6000610a7d565b905090565b610528611e6a565b610530611ea8565b610538611ed2565b610540611efb565b61054a6000610aea565b156106f9576000601701600001600060170160060160006017016007016000601701601601836006806020026040519081016040528092919082600680156105dd576020028201915b8160009054906101000a900473ffffffffffffffffffffffffffffffffffffffff1673ffffffffffffffffffffffffffffffffffffffff1681526020019060010190808311610593575b5050505050935082600380602002604051908101604052809291908260038015610641576020028201916000905b82829054906101000a900460ff1615158152602001906001019060208260000104928301926001038202915080841161060b5790505b5050505050925081600f806020026040519081016040528092919082600f8015610680576020028201915b81548152602001906001019080831161066c575b50505050509150806001806020026040519081016040528092919082600180156106e5576020028201916000905b82829054906101000a900460ff1660ff16815260200190600101906020826000010492830192600103820291508084116106ae5790505b5050505050905093509350935093506106fe565b600080fd5b90919293565b60006107106000611118565b905090565b60008073__RequestLib____________________________634074b91c90916000604051602001526040518263ffffffff167c01000000000000000000000000000000000000000000000000000000000281526004018082815260200191505060206040518083038186803b151561078c57600080fd5b6102c65a03f4151561079d57600080fd5b50505060405180519050905090565b60008073__RequestLib____________________________63f925a7d690916000604051602001526040518263ffffffff167c01000000000000000000000000000000000000000000000000000000000281526004018082815260200191505060206040518083038186803b151561082357600080fd5b6102c65a03f4151561083457600080fd5b50505060405180519050905090565b60008073__RequestLib____________________________637994549a90916000604051602001526040518263ffffffff167c01000000000000000000000000000000000000000000000000000000000281526004018082815260200191505060206040518083038186803b15156108ba57600080fd5b6102c65a03f415156108cb57600080fd5b505050604051805190505090565b60003373ffffffffffffffffffffffffffffffffffffffff16600060050160000160009054906101000a900473ffffffffffffffffffffffffffffffffffffffff1673ffffffffffffffffffffffffffffffffffffffff16148015610947575061094660006011016116f6565b5b151561095257600080fd5b8273ffffffffffffffffffffffffffffffffffffffff16348360405180828051906020019080838360005b8381101561099857808201518184015260208101905061097d565b50505050905090810190601f1680156109c55780820380516001836020036101000a031916815260200191505b5091505060006040518083038185876187965a03f192505050905092915050565b60008073__RequestLib____________________________6332839d9890916000604051602001526040518263ffffffff167c01000000000000000000000000000000000000000000000000000000000281526004018082815260200191505060206040518083038186803b1515610a5d57600080fd5b6102c65a03f41515610a6e57600080fd5b50505060405180519050905090565b6000610a8882611712565b1515610a9357600080fd5b610ab4610aa283601101611783565b83600d016117ea90919063ffffffff16565b507fbcb472984264b16baa8cde752f2af002ea8ce06f35d81caee36625234edd2a4660405160405180910390a160019050919050565b600081600d0160000160009054906101000a900473ffffffffffffffffffffffffffffffffffffffff16826017016000016000600681101515610b2957fe5b0160006101000a81548173ffffffffffffffffffffffffffffffffffffffff021916908373ffffffffffffffffffffffffffffffffffffffff1602179055508160050160010160009054906101000a900473ffffffffffffffffffffffffffffffffffffffff16826017016000016001600681101515610ba557fe5b0160006101000a81548173ffffffffffffffffffffffffffffffffffffffff021916908373ffffffffffffffffffffffffffffffffffffffff1602179055508160050160000160009054906101000a900473ffffffffffffffffffffffffffffffffffffffff16826017016000016002600681101515610c2157fe5b0160006101000a81548173ffffffffffffffffffffffffffffffffffffffff021916908373ffffffffffffffffffffffffffffffffffffffff1602179055508160070160040160009054906101000a900473ffffffffffffffffffffffffffffffffffffffff16826017016000016003600681101515610c9d57fe5b0160006101000a81548173ffffffffffffffffffffffffffffffffffffffff021916908373ffffffffffffffffffffffffffffffffffffffff1602179055508160070160010160009054906101000a900473ffffffffffffffffffffffffffffffffffffffff16826017016000016004600681101515610d1957fe5b0160006101000a81548173ffffffffffffffffffffffffffffffffffffffff021916908373ffffffffffffffffffffffffffffffffffffffff1602179055508160000160000160009054906101000a900473ffffffffffffffffffffffffffffffffffffffff16826017016000016005600681101515610d9557fe5b0160006101000a81548173ffffffffffffffffffffffffffffffffffffffff021916908373ffffffffffffffffffffffffffffffffffffffff1602179055508160050160010160149054906101000a900460ff16826017016006016000600381101515610dfe57fe5b602091828204019190066101000a81548160ff0219169083151502179055508160050160010160159054906101000a900460ff16826017016006016001600381101515610e4757fe5b602091828204019190066101000a81548160ff0219169083151502179055508160050160010160169054906101000a900460ff16826017016006016002600381101515610e9057fe5b602091828204019190066101000a81548160ff02191690831515021790555081600d0160010154826017016007016000600f81101515610ecc57fe5b01819055508160070160030154826017016007016001600f81101515610eee57fe5b01819055508160070160050154826017016007016002600f81101515610f1057fe5b01819055508160070160000154826017016007016003600f81101515610f3257fe5b01819055508160070160020154826017016007016004600f81101515610f5457fe5b01819055508160110160050154826017016007016005600f81101515610f7657fe5b01819055508160110160030154826017016007016006600f81101515610f9857fe5b01819055508160110160040154826017016007016007600f81101515610fba57fe5b01819055508160110160000160009054906101000a900460ff166002811115610fdf57fe5b826017016007016008600f81101515610ff457fe5b01819055508160110160020154826017016007016009600f8110151561101657fe5b0181905550816011016001015482601701600701600a600f8110151561103857fe5b0181905550816000016003015482601701600701600b600f8110151561105a57fe5b0181905550816000016002015482601701600701600c600f8110151561107c57fe5b0181905550816000016004015482601701600701600d600f8110151561109e57fe5b018190555081600d016002015482601701600701600e600f811015156110c057fe5b018190555081600d0160030160009054906101000a900460ff168260170160160160006001811015156110ef57fe5b602091828204019190066101000a81548160ff021916908360ff16021790555060019050919050565b6000806000805a925061113e6161a86111308761185b565b61188190919063ffffffff16565b5a1015611197577fc008bc849b42227c61d5063a1313ce509a6e99211bfd59e827e417be6c65c81b6005600681111561117357fe5b604051808260ff1660ff16815260200191505060405180910390a1600093506116ee565b8460050160010160159054906101000a900460ff1615611203577fc008bc849b42227c61d5063a1313ce509a6e99211bfd59e827e417be6c65c81b600160068111156111df57fe5b604051808260ff1660ff16815260200191505060405180910390a1600093506116ee565b8460050160010160149054906101000a900460ff161561126f577fc008bc849b42227c61d5063a1313ce509a6e99211bfd59e827e417be6c65c81b6000600681111561124b57fe5b604051808260ff1660ff16815260200191505060405180910390a1600093506116ee565b61127b8560110161189d565b156112d2577fc008bc849b42227c61d5063a1313ce509a6e99211bfd59e827e417be6c65c81b600260068111156112ae57fe5b604051808260ff1660ff16815260200191505060405180910390a1600093506116ee565b6112de856011016116f6565b15611335577fc008bc849b42227c61d5063a1313ce509a6e99211bfd59e827e417be6c65c81b6003600681111561131157fe5b604051808260ff1660ff16815260200191505060405180910390a1600093506116ee565b61134185600d016118b5565b80156113a0575084600d0160000160009054906101000a900473ffffffffffffffffffffffffffffffffffffffff1673ffffffffffffffffffffffffffffffffffffffff163373ffffffffffffffffffffffffffffffffffffffff1614155b80156113b457506113b3856011016118fc565b5b1561140b577fc008bc849b42227c61d5063a1313ce509a6e99211bfd59e827e417be6c65c81b600460068111156113e757fe5b604051808260ff1660ff16815260200191505060405180910390a1600093506116ee565b3a856000016004015414151561146c577fc008bc849b42227c61d5063a1313ce509a6e99211bfd59e827e417be6c65c81b60068081111561144857fe5b604051808260ff1660ff16815260200191505060405180910390a1600093506116ee565b60018560050160010160156101000a81548160ff02191690831515021790555061149885600001611930565b8560050160010160166101000a81548160ff0219169083151502179055506114c285600701611a11565b156114f8576114ec85600701600501546114de87600701611a58565b611a6690919063ffffffff16565b85600701600501819055505b8460070160050154915061150e85600701611a87565b50338560070160010160006101000a81548173ffffffffffffffffffffffffffffffffffffffff021916908373ffffffffffffffffffffffffffffffffffffffff16021790555061156185600d016118b5565b156115f257611587856007016002015486600d0160010154611a6690919063ffffffff16565b8560070160020181905550600085600d01600101819055506115e285600701600201546115d487600d0160030160009054906101000a900460ff1688600701611b0f90919063ffffffff16565b611a6690919063ffffffff16565b8560070160020181905550611623565b611617856007016002015461160987600701611b4a565b611a6690919063ffffffff16565b85600701600201819055505b61164b62015f9061163d5a8661188190919063ffffffff16565b611a6690919063ffffffff16565b9050611679856007016002015461166b3a84611b5890919063ffffffff16565b611a6690919063ffffffff16565b85600701600201819055507f3e504bb8b225ad41f613b0c3c4205cdd752d1615b4d77cd1773417282fcfb5d98560070160020154838360405180848152602001838152602001828152602001935050505060405180910390a16116de85600701611b8e565b506116e885611c16565b50600193505b505050919050565b600061170182611ce2565b61170a83611d06565b119050919050565b600061172082600d016118b5565b15151561172c57600080fd5b8160050160010160149054906101000a900460ff1615151561174d57600080fd5b61175982601101611d29565b151561176457600080fd5b81600d0160020154341015151561177a57600080fd5b60019050919050565b6000806117d283600501546117c460646117b661179f88611d72565b6117a889611d06565b61188190919063ffffffff16565b611b5890919063ffffffff16565b611d9a90919063ffffffff16565b9050606481111515156117e157fe5b80915050919050565b6000338360000160006101000a81548173ffffffffffffffffffffffffffffffffffffffff021916908373ffffffffffffffffffffffffffffffffffffffff160217905550348360010181905550818360030160006101000a81548160ff021916908360ff16021790555092915050565b600061187a6202bf208360000160030154611a6690919063ffffffff16565b9050919050565b600082821115151561189257600080fd5b818303905092915050565b600081600101546118ad83611d06565b109050919050565b6000808260000160009054906101000a900473ffffffffffffffffffffffffffffffffffffffff1673ffffffffffffffffffffffffffffffffffffffff1614159050919050565b600061190782611d06565b826001015411158015611929575061191e82611db5565b61192783611d06565b105b9050919050565b60003a826004015414151561194457600080fd5b8160000160009054906101000a900473ffffffffffffffffffffffffffffffffffffffff1673ffffffffffffffffffffffffffffffffffffffff1682600201548360030154908460010160405180828054600181600116156101000203166002900480156119f35780601f106119c8576101008083540402835291602001916119f3565b820191906000526020600020905b8154815290600101906020018083116119d657829003601f168201915b5050915050600060405180830381858888f193505050509050919050565b6000808260040160009054906101000a900473ffffffffffffffffffffffffffffffffffffffff1673ffffffffffffffffffffffffffffffffffffffff1614159050919050565b600081600301549050919050565b6000808284019050838110151515611a7d57600080fd5b8091505092915050565b600080826005015490506000811115611b0457600083600501819055508260040160009054906101000a900473ffffffffffffffffffffffffffffffffffffffff1673ffffffffffffffffffffffffffffffffffffffff166108fc829081150290604051600060405180830381858888f193505050509150611b09565b600191505b50919050565b6000611b426064611b348460ff16611b2687611b4a565b611b5890919063ffffffff16565b611d9a90919063ffffffff16565b905092915050565b600081600001549050919050565b60008082840290506000841480611b795750828482811515611b7657fe5b04145b1515611b8457600080fd5b8091505092915050565b600080826002015490506000811115611c0b57600083600201819055508260010160009054906101000a900473ffffffffffffffffffffffffffffffffffffffff1673ffffffffffffffffffffffffffffffffffffffff166108fc829081150290604051600060405180830381858888f193505050509150611c10565b600191505b50919050565b600080611c7c8360070160050154611c6e8560070160020154611c6087600d01600101543073ffffffffffffffffffffffffffffffffffffffff163161188190919063ffffffff16565b61188190919063ffffffff16565b61188190919063ffffffff16565b90508260050160000160009054906101000a900473ffffffffffffffffffffffffffffffffffffffff1673ffffffffffffffffffffffffffffffffffffffff166108fc829081150290604051600060405180830381858888f19350505050915050919050565b6000611cff82600201548360010154611a6690919063ffffffff16565b9050919050565b6000611d228260000160009054906101000a900460ff16611dd9565b9050919050565b6000611d3482611d06565b611d3d83611d72565b11158015611d5a5750611d4f82611e32565b611d5883611d06565b105b15611d685760019050611d6d565b600090505b919050565b6000611d938260050154611d8584611e32565b61188190919063ffffffff16565b9050919050565b6000808284811515611da857fe5b0490508091505092915050565b6000611dd282600401548360010154611a6690919063ffffffff16565b9050919050565b6000600280811115611de757fe5b826002811115611df357fe5b1415611e0157429050611e2d565b60016002811115611e0e57fe5b826002811115611e1a57fe5b1415611e2857439050611e2d565b600080fd5b919050565b6000611e4f8260030154836001015461188190919063ffffffff16565b9050919050565b602060405190810160405280600081525090565b60c0604051908101604052806006905b600073ffffffffffffffffffffffffffffffffffffffff16815260200190600190039081611e7a5790505090565b6060604051908101604052806003905b60001515815260200190600190039081611eb85790505090565b6101e060405190810160405280600f905b6000815260200190600190039081611ee35790505090565b6020604051908101604052806001905b600060ff16815260200190600190039081611f0b57905050905600a165627a7a72305820c1dde64ce901d212427bcc031e6381d8abcc88aa3169483e5303af1876bdc12e0029",
  "source": "pragma solidity 0.4.19;\n\nimport \"contracts/Library/RequestLib.sol\";\nimport \"contracts/Library/RequestScheduleLib.sol\";\nimport \"contracts/Interface/TransactionRequestInterface.sol\";\n\ncontract TransactionRequest is TransactionRequestInterface {\n    using RequestLib for RequestLib.Request;\n    using RequestScheduleLib for RequestScheduleLib.ExecutionWindow;\n\n    RequestLib.Request txnRequest;\n\n    /*\n     *  addressArgs[0] - meta.createdBy\n     *  addressArgs[1] - meta.owner\n     *  addressArgs[2] - paymentData.feeRecipient\n     *  addressArgs[3] - txnData.toAddress\n     *\n     *  uintArgs[0]  - paymentData.fee\n     *  uintArgs[1]  - paymentData.bounty\n     *  uintArgs[2]  - schedule.claimWindowSize\n     *  uintArgs[3]  - schedule.freezePeriod\n     *  uintArgs[4]  - schedule.reservedWindowSize\n     *  uintArgs[5]  - schedule.temporalUnit\n     *  uintArgs[7]  - schedule.executionWindowSize\n     *  uintArgs[6]  - schedule.windowStart\n     *  uintArgs[8]  - txnData.callGas\n     *  uintArgs[9]  - txnData.callValue\n     *  uintArgs[10] - txnData.gasPrice\n     *  uintArgs[11] - claimData.requiredDeposit\n     */\n    function TransactionRequest(\n        address[4]  addressArgs,\n        uint[12]    uintArgs,\n        bytes       callData\n    )\n        public payable\n    {\n        txnRequest.initialize(addressArgs, uintArgs, callData);\n    }\n\n    /*\n     *  Allow receiving ether.  This is needed if there is a large increase in\n     *  network gas prices.\n     */\n    function() public payable {}\n\n    /*\n     *  Actions\n     */\n    function execute() public returns (bool) {\n        return txnRequest.execute();\n    }\n\n    function cancel() public returns (bool) {\n        return txnRequest.cancel();\n    }\n\n    function claim() public payable returns (bool) {\n        return txnRequest.claim();\n    }\n\n    /*\n     *  Data accessor functions.\n     */\n     \n    // Declaring this function `view`, although it creates a compiler warning, is\n    // necessary to return values from it.\n    function requestData() \n        public view returns (address[6], bool[3], uint[15], uint8[1])\n    {\n        if (txnRequest.serialize()) {\n            return (\n                txnRequest.serializedValues.addressValues,\n                txnRequest.serializedValues.boolValues,\n                txnRequest.serializedValues.uintValues,\n                txnRequest.serializedValues.uint8Values\n            );\n        } else {\n            revert();\n        }\n    }\n\n    function callData() \n        public view returns (bytes data)\n    {\n        data = txnRequest.txnData.callData;\n    }\n\n    /**\n     * @dev Proxy a call from this contract to another contract.\n     * This function is only callable by the scheduler and can only\n     * be called after the execution window ends. One purpose is to\n     * provide a way to transfer assets held by this contract somewhere else.\n     * For example, if this request was used to buy tokens during an ICO,\n     * it would become the owner of the tokens and this function would need\n     * to be called with the encoded data to the token contract to transfer\n     * the assets somewhere else. */\n    function proxy(address _to, bytes _data)\n        public payable returns (bool success)\n    {\n        require(txnRequest.meta.owner == msg.sender\n                && txnRequest.schedule.isAfterWindow());\n        return _to.call.value(msg.value)(_data);\n    }\n\n    /*\n     *  Pull based payment functions.\n     */\n    function refundClaimDeposit() public returns (bool) {\n        txnRequest.refundClaimDeposit();\n    }\n\n    function sendFee() public returns (bool) {\n        return txnRequest.sendFee();\n    }\n\n    function sendBounty() public returns (bool) {\n        return txnRequest.sendBounty();\n    }\n\n    function sendOwnerEther() public returns (bool) {\n        return txnRequest.sendOwnerEther();\n    }\n}\n",
  "sourcePath": "/home/logan/Work/ethereum-alarm-clock/contracts/TransactionRequest.sol",
  "compiler": {
    "name": "solc",
    "version": "0.4.19+commit.c4cbbb05.Emscripten.clang"
  },
  "schemaVersion": "1.0.1",
  "updatedAt": "2018-02-05T22:09:16.342Z"
}