{
  "contractName": "SimpleToken",
  "abi": [
    {
      "constant": false,
      "inputs": [
        {
          "name": "_who",
          "type": "address"
        }
      ],
      "name": "balanceOf",
      "outputs": [
        {
          "name": "balance",
          "type": "uint256"
        }
      ],
      "payable": false,
      "stateMutability": "nonpayable",
      "type": "function"
    },
    {
      "constant": true,
      "inputs": [],
      "name": "owner",
      "outputs": [
        {
          "name": "",
          "type": "address"
        }
      ],
      "payable": false,
      "stateMutability": "view",
      "type": "function"
    },
    {
      "constant": false,
      "inputs": [
        {
          "name": "_to",
          "type": "address"
        },
        {
          "name": "_amount",
          "type": "uint256"
        }
      ],
      "name": "transfer",
      "outputs": [
        {
          "name": "success",
          "type": "bool"
        }
      ],
      "payable": false,
      "stateMutability": "nonpayable",
      "type": "function"
    },
    {
      "inputs": [
        {
          "name": "_totalSupply",
          "type": "uint256"
        }
      ],
      "payable": false,
      "stateMutability": "nonpayable",
      "type": "constructor"
    }
  ],
  "bytecode": "0x6060604052341561000f57600080fd5b6040516020806103c583398101604052808051906020019091905050336000806101000a81548173ffffffffffffffffffffffffffffffffffffffff021916908373ffffffffffffffffffffffffffffffffffffffff16021790555080600160008060009054906101000a900473ffffffffffffffffffffffffffffffffffffffff1673ffffffffffffffffffffffffffffffffffffffff1673ffffffffffffffffffffffffffffffffffffffff16815260200190815260200160002081905550506102e5806100e06000396000f300606060405260043610610057576000357c0100000000000000000000000000000000000000000000000000000000900463ffffffff16806370a082311461005c5780638da5cb5b146100a9578063a9059cbb146100fe575b600080fd5b341561006757600080fd5b610093600480803573ffffffffffffffffffffffffffffffffffffffff16906020019091905050610158565b6040518082815260200191505060405180910390f35b34156100b457600080fd5b6100bc6101a1565b604051808273ffffffffffffffffffffffffffffffffffffffff1673ffffffffffffffffffffffffffffffffffffffff16815260200191505060405180910390f35b341561010957600080fd5b61013e600480803573ffffffffffffffffffffffffffffffffffffffff169060200190919080359060200190919050506101c6565b604051808215151515815260200191505060405180910390f35b6000600160008373ffffffffffffffffffffffffffffffffffffffff1673ffffffffffffffffffffffffffffffffffffffff168152602001908152602001600020549050919050565b6000809054906101000a900473ffffffffffffffffffffffffffffffffffffffff1681565b600081600160003373ffffffffffffffffffffffffffffffffffffffff1673ffffffffffffffffffffffffffffffffffffffff1681526020019081526020016000205411151561021557600080fd5b81600160003373ffffffffffffffffffffffffffffffffffffffff1673ffffffffffffffffffffffffffffffffffffffff1681526020019081526020016000206000828254039250508190555081600160008573ffffffffffffffffffffffffffffffffffffffff1673ffffffffffffffffffffffffffffffffffffffff1681526020019081526020016000206000828254019250508190555060019050929150505600a165627a7a723058209bcfef9aa84e562bf4712e1144a8ac4bdfbc11a61af9a1b75a9a21baed4dc7110029",
  "source": "/// Super simple token contract that moves funds into the owner account on creation and\n/// only exposes enough API to be used for `test/proxy.js`\ncontract SimpleToken {\n\n    address public owner;\n\n    mapping(address => uint) balances;\n\n    function SimpleToken (uint _totalSupply) {\n        owner = msg.sender;\n        balances[owner] = _totalSupply;\n    }\n\n    function transfer (address _to, uint _amount)\n        public returns (bool success)\n    {\n        require(balances[msg.sender] > _amount);\n        balances[msg.sender] -= _amount;\n        balances[_to] += _amount;\n        success = true;\n    }\n\n    function balanceOf (address _who)\n        public returns (uint balance)\n    {\n        balance = balances[_who];\n    }\n\n}",
  "sourcePath": "/home/logan/Work/ethereum-alarm-clock/contracts/_test/SimpleToken.sol",
  "compiler": {
    "name": "solc",
    "version": "0.4.18+commit.9cf6e910.Emscripten.clang"
  },
  "schemaVersion": "1.0.1",
  "updatedAt": "2017-12-16T01:10:38.004Z"
}