{
  "contractName": "GroveLib",
  "abi": [
    {
      "constant": true,
      "inputs": [
        {
          "name": "index",
          "type": "GroveLib.Index storage"
        },
        {
          "name": "id",
          "type": "bytes32"
        }
      ],
      "name": "getNodeId",
      "outputs": [
        {
          "name": "",
          "type": "bytes32"
        }
      ],
      "payable": false,
      "stateMutability": "view",
      "type": "function"
    },
    {
      "constant": true,
      "inputs": [
        {
          "name": "index",
          "type": "GroveLib.Index storage"
        },
        {
          "name": "id",
          "type": "bytes32"
        }
      ],
      "name": "getNodeValue",
      "outputs": [
        {
          "name": "",
          "type": "int256"
        }
      ],
      "payable": false,
      "stateMutability": "view",
      "type": "function"
    },
    {
      "constant": true,
      "inputs": [
        {
          "name": "index",
          "type": "GroveLib.Index storage"
        },
        {
          "name": "id",
          "type": "bytes32"
        }
      ],
      "name": "getNodeHeight",
      "outputs": [
        {
          "name": "",
          "type": "uint256"
        }
      ],
      "payable": false,
      "stateMutability": "view",
      "type": "function"
    },
    {
      "constant": true,
      "inputs": [
        {
          "name": "index",
          "type": "GroveLib.Index storage"
        },
        {
          "name": "id",
          "type": "bytes32"
        }
      ],
      "name": "getNodeParent",
      "outputs": [
        {
          "name": "",
          "type": "bytes32"
        }
      ],
      "payable": false,
      "stateMutability": "view",
      "type": "function"
    },
    {
      "constant": true,
      "inputs": [
        {
          "name": "index",
          "type": "GroveLib.Index storage"
        },
        {
          "name": "id",
          "type": "bytes32"
        }
      ],
      "name": "getNodeLeftChild",
      "outputs": [
        {
          "name": "",
          "type": "bytes32"
        }
      ],
      "payable": false,
      "stateMutability": "view",
      "type": "function"
    },
    {
      "constant": true,
      "inputs": [
        {
          "name": "index",
          "type": "GroveLib.Index storage"
        },
        {
          "name": "id",
          "type": "bytes32"
        }
      ],
      "name": "getNodeRightChild",
      "outputs": [
        {
          "name": "",
          "type": "bytes32"
        }
      ],
      "payable": false,
      "stateMutability": "view",
      "type": "function"
    },
    {
      "constant": true,
      "inputs": [
        {
          "name": "index",
          "type": "GroveLib.Index storage"
        },
        {
          "name": "id",
          "type": "bytes32"
        }
      ],
      "name": "getPreviousNode",
      "outputs": [
        {
          "name": "",
          "type": "bytes32"
        }
      ],
      "payable": false,
      "stateMutability": "view",
      "type": "function"
    },
    {
      "constant": true,
      "inputs": [
        {
          "name": "index",
          "type": "GroveLib.Index storage"
        },
        {
          "name": "id",
          "type": "bytes32"
        }
      ],
      "name": "getNextNode",
      "outputs": [
        {
          "name": "",
          "type": "bytes32"
        }
      ],
      "payable": false,
      "stateMutability": "view",
      "type": "function"
    },
    {
      "constant": false,
      "inputs": [
        {
          "name": "index",
          "type": "GroveLib.Index storage"
        },
        {
          "name": "id",
          "type": "bytes32"
        },
        {
          "name": "value",
          "type": "int256"
        }
      ],
      "name": "insert",
      "outputs": [],
      "payable": false,
      "stateMutability": "nonpayable",
      "type": "function"
    },
    {
      "constant": true,
      "inputs": [
        {
          "name": "index",
          "type": "GroveLib.Index storage"
        },
        {
          "name": "id",
          "type": "bytes32"
        }
      ],
      "name": "exists",
      "outputs": [
        {
          "name": "",
          "type": "bool"
        }
      ],
      "payable": false,
      "stateMutability": "view",
      "type": "function"
    },
    {
      "constant": false,
      "inputs": [
        {
          "name": "index",
          "type": "GroveLib.Index storage"
        },
        {
          "name": "id",
          "type": "bytes32"
        }
      ],
      "name": "remove",
      "outputs": [],
      "payable": false,
      "stateMutability": "nonpayable",
      "type": "function"
    },
    {
      "constant": true,
      "inputs": [
        {
          "name": "index",
          "type": "GroveLib.Index storage"
        },
        {
          "name": "operator",
          "type": "bytes2"
        },
        {
          "name": "value",
          "type": "int256"
        }
      ],
      "name": "query",
      "outputs": [
        {
          "name": "",
          "type": "bytes32"
        }
      ],
      "payable": false,
      "stateMutability": "view",
      "type": "function"
    }
  ],
  "bytecode": "0x6060604052341561000f57600080fd5b6121da8061001e6000396000f3006060604052600436106100ba576000357c0100000000000000000000000000000000000000000000000000000000900463ffffffff1680630e9f1a3c146100bf5780632b4096b4146101005780636ec1398214610141578063a3119e5714610182578063a749f19b146101bb578063ab7366f7146101f4578063bacd695814610219578063bfdf87c014610247578063c4144b2614610288578063caa46c9c146102c9578063e6ce3a6a1461030a578063ed5bd7ea14610371575b600080fd5b6100e26004808035906020019091908035600019169060200190919050506103ae565b60405180826000191660001916815260200191505060405180910390f35b6101236004808035906020019091908035600019169060200190919050506103d9565b60405180826000191660001916815260200191505060405180910390f35b610164600480803590602001909190803560001916906020019091905050610404565b60405180826000191660001916815260200191505060405180910390f35b6101a560048080359060200190919080356000191690602001909190505061042f565b6040518082815260200191505060405180910390f35b6101de60048080359060200190919080356000191690602001909190505061045a565b6040518082815260200191505060405180910390f35b610217600480803590602001909190803560001916906020019091905050610485565b005b6102456004808035906020019091908035600019169060200190919080359060200190919050506108cc565b005b61026a600480803590602001909190803560001916906020019091905050610a85565b60405180826000191660001916815260200191505060405180910390f35b6102ab600480803590602001909190803560001916906020019091905050610ab0565b60405180826000191660001916815260200191505060405180910390f35b6102ec600480803590602001909190803560001916906020019091905050610ddb565b60405180826000191660001916815260200191505060405180910390f35b61035360048080359060200190919080357dffffffffffffffffffffffffffffffffffffffffffffffffffffffffffff1916906020019091908035906020019091905050611106565b60405180826000191660001916815260200191505060405180910390f35b6103946004808035906020019091908035600019169060200190919050506117c2565b604051808215151515815260200191505060405180910390f35b6000826001016000836000191660001916815260200190815260200160002060040154905092915050565b6000826001016000836000191660001916815260200190815260200160002060030154905092915050565b6000826001016000836000191660001916815260200190815260200160002060020154905092915050565b6000826001016000836000191660001916815260200190815260200160002060010154905092915050565b6000826001016000836000191660001916815260200190815260200160002060050154905092915050565b60008060008060008660010160008760001916600019168152602001908152602001600020905085600019168160000154600019161415156104c6576108c3565b60006001028160030154600019161415806104ed5750600060010281600401546000191614155b156107e65760006001028160030154600019161415156105385786600101600061051b898460000154610ddb565b600019166000191681526020019081526020016000209450610565565b86600101600061054c898460000154610ab0565b6000191660001916815260200190815260200160002094505b8660010160008660020154600019166000191681526020019081526020016000209350846000015491508460000154600019168460030154600019161415610603578460040154846003018160001916905550600060010285600401546000191614151561060257866001016000866004015460001916600019168152602001908152602001600020925083600001548360020181600019169055505b5b8460000154600019168460040154600019161415610677578460030154846004018160001916905550600060010285600301546000191614151561067657866001016000866003015460001916600019168152602001908152602001600020925083600001548360020181600019169055505b5b8060020154856002018160001916905550600060010281600201546000191614151561071957866001016000826002015460001916600019168152602001908152602001600020935080600001546000191684600301546000191614156106ea5784600001548460030181600019169055505b80600001546000191684600401546000191614156107145784600001548460040181600019169055505b61072b565b84600001548760000181600019169055505b8060030154856003018160001916905550600060010281600301546000191614151561078657866001016000826003015460001916600019168152602001908152602001600020925084600001548360020181600019169055505b806004015485600401816000191690555060006001028160040154600019161415156107e157866001016000826004015460001916600019168152602001908152602001600020925084600001548360020181600019169055505b610876565b600060010281600201546000191614151561086c578660010160008260020154600019166000191681526020019081526020016000209350806000015460001916846003015460001916141561083f5783600301600090555b80600001546000191684600401546000191614156108605783600401600090555b83600001549150610875565b86600001600090555b5b806000016000905580600101600090558060020160009055806003016000905580600401600090558060050160009055600060010282600019161415156108c2576108c187836117ef565b5b5b50505050505050565b60008083600019168560010160008660001916600019168152602001908152602001600020600001546000191614156109375782856001016000866000191660001916815260200190815260200160002060010154141561092c57610a7e565b6109368585610485565b5b600060010291506000600102856000015460001916141561096057838560000181600019169055505b84600101600086600001546000191660001916815260200190815260200160002090505b600115610a6f57600060010281600001546000191614156109c7578381600001816000191690555081816002018160001916905550828160010181905550610a6f565b80600001549150806001015483121515610a2557600060010281600401546000191614156109fd57838160040181600019169055505b8460010160008260040154600019166000191681526020019081526020016000209050610984565b60006001028160030154600019161415610a4757838160030181600019169055505b8460010160008260030154600019166000191681526020019081526020016000209050610984565b610a7d8582600001546117ef565b5b5050505050565b6000826001016000836000191660001916815260200190815260200160002060000154905092915050565b600080610abb61216b565b60008560010160008660001916600019168152602001908152602001600020925060006001028360000154600019161415610afc5760006001029350610dd2565b6000600102836004015460001916141515610c4e5785600101600084600401546000191660001916815260200190815260200160002060c060405190810160405290816000820154600019166000191681526020016001820154815260200160028201546000191660001916815260200160038201546000191660001916815260200160048201546000191660001916815260200160058201548152505091505b6000600102826060015160001916141515610c425785600101600083606001516000191660001916815260200190815260200160002060c06040519081016040529081600082015460001916600019168152602001600182015481526020016002820154600019166000191681526020016003820154600019166000191681526020016004820154600019166000191681526020016005820154815250509150610b9d565b81600001519350610dd2565b6000600102836002015460001916141515610dca5785600101600084600201546000191660001916815260200190815260200160002090508260c060405190810160405290816000820154600019166000191681526020016001820154815260200160028201546000191660001916815260200160038201546000191660001916815260200160048201546000191660001916815260200160058201548152505091505b600115610dc9578160000151600019168160030154600019161415610d1d5780600001549350610dd2565b60006001028160020154600019161415610d3657610dc9565b8060c060405190810160405290816000820154600019166000191681526020016001820154815260200160028201546000191660001916815260200160038201546000191660001916815260200160048201546000191660001916815260200160058201548152505091508560010160008260020154600019166000191681526020019081526020016000209050610cf2565b5b600060010293505b50505092915050565b600080610de661216b565b60008560010160008660001916600019168152602001908152602001600020925060006001028360000154600019161415610e2757600060010293506110fd565b6000600102836003015460001916141515610f795785600101600084600301546000191660001916815260200190815260200160002060c060405190810160405290816000820154600019166000191681526020016001820154815260200160028201546000191660001916815260200160038201546000191660001916815260200160048201546000191660001916815260200160058201548152505091505b6000600102826080015160001916141515610f6d5785600101600083608001516000191660001916815260200190815260200160002060c06040519081016040529081600082015460001916600019168152602001600182015481526020016002820154600019166000191681526020016003820154600019166000191681526020016004820154600019166000191681526020016005820154815250509150610ec8565b816000015193506110fd565b60006001028360020154600019161415156110f55785600101600084600201546000191660001916815260200190815260200160002090508260c060405190810160405290816000820154600019166000191681526020016001820154815260200160028201546000191660001916815260200160038201546000191660001916815260200160048201546000191660001916815260200160058201548152505091505b6001156110f457816000015160001916816004015460001916141561104857806000015493506110fd565b60006001028160020154600019161415611061576110f4565b8060c06040519081016040529081600082015460001916600019168152602001600182015481526020016002820154600019166000191681526020016003820154600019166000191681526020016004820154600019166000191681526020016005820154815250509150856001016000826002015460001916600019168152602001908152602001600020905061101d565b5b600060010293505b50505092915050565b60008060008560000154915060006001028260001916141561112e57600060010292506117b9565b856001016000836000191660001916815260200190815260200160002090505b6001156117b8576111648160010154868661196d565b15611464577f3c000000000000000000000000000000000000000000000000000000000000007dffffffffffffffffffffffffffffffffffffffffffffffffffffffffffff1916857dffffffffffffffffffffffffffffffffffffffffffffffffffffffffffff1916148061123a57507f3c3d0000000000000000000000000000000000000000000000000000000000007dffffffffffffffffffffffffffffffffffffffffffffffffffffffffffff1916857dffffffffffffffffffffffffffffffffffffffffffffffffffffffffffff1916145b156112b0576000600102816004015460001916141561125f57806000015492506117b9565b611277611270878360040154611bc1565b868661196d565b156112a457856001016000826004015460001916600019168152602001908152602001600020905061114e565b806000015492506117b9565b7f3e000000000000000000000000000000000000000000000000000000000000007dffffffffffffffffffffffffffffffffffffffffffffffffffffffffffff1916857dffffffffffffffffffffffffffffffffffffffffffffffffffffffffffff1916148061138157507f3e3d0000000000000000000000000000000000000000000000000000000000007dffffffffffffffffffffffffffffffffffffffffffffffffffffffffffff1916857dffffffffffffffffffffffffffffffffffffffffffffffffffffffffffff1916145b806113ed57507f3d3d0000000000000000000000000000000000000000000000000000000000007dffffffffffffffffffffffffffffffffffffffffffffffffffffffffffff1916857dffffffffffffffffffffffffffffffffffffffffffffffffffffffffffff1916145b15611463576000600102816003015460001916141561141257806000015492506117b9565b61142a611423878360030154611c3b565b868661196d565b1561145757856001016000826003015460001916600019168152602001908152602001600020905061114e565b806000015492506117b9565b5b7f3c000000000000000000000000000000000000000000000000000000000000007dffffffffffffffffffffffffffffffffffffffffffffffffffffffffffff1916857dffffffffffffffffffffffffffffffffffffffffffffffffffffffffffff1916148061153557507f3c3d0000000000000000000000000000000000000000000000000000000000007dffffffffffffffffffffffffffffffffffffffffffffffffffffffffffff1916857dffffffffffffffffffffffffffffffffffffffffffffffffffffffffffff1916145b15611582576000600102816003015460001916141561155a57600060010292506117b9565b856001016000826003015460001916600019168152602001908152602001600020905061114e565b7f3e000000000000000000000000000000000000000000000000000000000000007dffffffffffffffffffffffffffffffffffffffffffffffffffffffffffff1916857dffffffffffffffffffffffffffffffffffffffffffffffffffffffffffff1916148061165357507f3e3d0000000000000000000000000000000000000000000000000000000000007dffffffffffffffffffffffffffffffffffffffffffffffffffffffffffff1916857dffffffffffffffffffffffffffffffffffffffffffffffffffffffffffff1916145b156116a0576000600102816004015460001916141561167857600060010292506117b9565b856001016000826004015460001916600019168152602001908152602001600020905061114e565b7f3d3d0000000000000000000000000000000000000000000000000000000000007dffffffffffffffffffffffffffffffffffffffffffffffffffffffffffff1916857dffffffffffffffffffffffffffffffffffffffffffffffffffffffffffff191614156117b357838160010154121561175e576000600102816004015460001916141561173657600060010292506117b9565b856001016000826004015460001916600019168152602001908152602001600020905061114e565b83816001015413156117b2576000600102816003015460001916141561178a57600060010292506117b9565b856001016000826003015460001916600019168152602001908152602001600020905061114e565b5b61114e565b5b50509392505050565b60008083600101600084600019166000191681526020019081526020016000206005015411905092915050565b600080836001016000846000191660001916815260200190815260200160002091505b60011561196757611827848360000154611cb5565b90506002811415611885577fffffffffffffffffffffffffffffffffffffffffffffffffffffffffffffffff611861858460030154611cb5565b141561187657611875848360030154611d2b565b5b611884848360000154611efb565b5b7ffffffffffffffffffffffffffffffffffffffffffffffffffffffffffffffffe8114156118e15760016118bd858460040154611cb5565b14156118d2576118d1848360040154611efb565b5b6118e0848360000154611d2b565b5b807fffffffffffffffffffffffffffffffffffffffffffffffffffffffffffffffff13158015611912575060018113155b15611926576119258483600001546120cb565b5b6000600102826002015460001916141561193f57611967565b8360010160008360020154600019166000191681526020019081526020016000209150611812565b50505050565b60007f3e000000000000000000000000000000000000000000000000000000000000007dffffffffffffffffffffffffffffffffffffffffffffffffffffffffffff1916837dffffffffffffffffffffffffffffffffffffffffffffffffffffffffffff191614156119e3578184139050611bba565b7f3c000000000000000000000000000000000000000000000000000000000000007dffffffffffffffffffffffffffffffffffffffffffffffffffffffffffff1916837dffffffffffffffffffffffffffffffffffffffffffffffffffffffffffff19161415611a57578184129050611bba565b7f3e3d0000000000000000000000000000000000000000000000000000000000007dffffffffffffffffffffffffffffffffffffffffffffffffffffffffffff1916837dffffffffffffffffffffffffffffffffffffffffffffffffffffffffffff19161415611acc57818412159050611bba565b7f3c3d0000000000000000000000000000000000000000000000000000000000007dffffffffffffffffffffffffffffffffffffffffffffffffffffffffffff1916837dffffffffffffffffffffffffffffffffffffffffffffffffffffffffffff19161415611b4157818413159050611bba565b7f3d3d0000000000000000000000000000000000000000000000000000000000007dffffffffffffffffffffffffffffffffffffffffffffffffffffffffffff1916837dffffffffffffffffffffffffffffffffffffffffffffffffffffffffffff19161415611bb5578184149050611bba565b600080fd5b9392505050565b600080836001016000846000191660001916815260200190815260200160002090505b600115611c335760006001028160030154600019161415611c0b5780600101549150611c34565b8360010160008260030154600019166000191681526020019081526020016000209050611be4565b5b5092915050565b600080836001016000846000191660001916815260200190815260200160002090505b600115611cad5760006001028160040154600019161415611c855780600101549150611cae565b8360010160008260040154600019166000191681526020019081526020016000209050611c5e565b5b5092915050565b6000808360010160008460001916600019168152602001908152602001600020905083600101600082600401546000191660001916815260200190815260200160002060050154846001016000836003015460001916600019168152602001908152602001600020600501540391505092915050565b60008060008085600101600086600019166000191681526020019081526020016000209350600060010284600401546000191614151515611d6b57600080fd5b8560010160008560040154600019166000191681526020019081526020016000209250836002015483600201816000191690555083600401600090556000600102846002015460001916141515611e345785600101600085600201546000191660001916815260200190815260200160002091508360000154600019168260030154600019161415611e095782600001548260030181600019169055505b8360000154600019168260040154600019161415611e335782600001548260040181600019169055505b5b6000600102836003015460001916141515611e8f578560010160008460030154600019166000191681526020019081526020016000209050806000015484600401816000191690555083600001548160020181600019169055505b8260000154846002018160001916905550836000015483600301816000191690555060006001028360020154600019161415611ed75782600001548660000181600019169055505b611ee58685600001546120cb565b611ef38684600001546120cb565b505050505050565b60008060008085600101600086600019166000191681526020019081526020016000209350600060010284600301546000191614151515611f3b57600080fd5b85600101600085600301546000191660001916815260200190815260200160002092508360020154836002018160001916905550836003016000905560006001028460020154600019161415156120045785600101600085600201546000191660001916815260200190815260200160002091508360000154600019168260030154600019161415611fd95782600001548260030181600019169055505b83600001546000191682600401546000191614156120035782600001548260040181600019169055505b5b600060010283600401546000191614151561205f578560010160008460040154600019166000191681526020019081526020016000209050826004015484600301816000191690555083600001548160020181600019169055505b82600001548460020181600019169055508360000154836004018160001916905550600060010283600201546000191614156120a75782600001548660000181600019169055505b6120b58685600001546120cb565b6120c38684600001546120cb565b505050505050565b6000826001016000836000191660001916815260200190815260200160002090506001612140846001016000846003015460001916600019168152602001908152602001600020600501548560010160008560040154600019166000191681526020019081526020016000206005015461214e565b018160050181905550505050565b6000818310151561216157829050612165565b8190505b92915050565b60c06040519081016040528060008019168152602001600081526020016000801916815260200160008019168152602001600080191681526020016000815250905600a165627a7a7230582075f80d5aa76a028be482b80a3778715557b2f4fd60efc5c2a4fd479c8845cf6c0029",
  "source": "pragma solidity 0.4.19;\n\n/// @title GroveLib - Library for queriable indexed ordered data.\n/// @author PiperMerriam - <pipermerriam@gmail.com>\nlibrary GroveLib {\n\n        // Indexes for ordered data\n        struct Index {\n                bytes32 root;\n                mapping (bytes32 => Node) nodes;\n        }\n\n        struct Node {\n                bytes32 id;\n                int value;\n                bytes32 parent;\n                bytes32 left;\n                bytes32 right;\n                uint height;\n        }\n\n        function max(uint a, uint b) \n            internal pure returns (uint)\n        {\n            if (a >= b) {\n                return a;\n            }\n            return b;\n        }\n\n        /*\n         *  Node getters\n         */\n        /// @dev Retrieve the unique identifier for the node.\n        /// @param index The index that the node is part of.\n        /// @param id The id for the node to be looked up.\n        function getNodeId(Index storage index, bytes32 id) \n            public view returns (bytes32)\n        {\n            return index.nodes[id].id;\n        }\n\n        /// @dev Retrieve the value for the node.\n        /// @param index The index that the node is part of.\n        /// @param id The id for the node to be looked up.\n        function getNodeValue(Index storage index, bytes32 id)\n            public view returns (int)\n        {\n            return index.nodes[id].value;\n        }\n\n        /// @dev Retrieve the height of the node.\n        /// @param index The index that the node is part of.\n        /// @param id The id for the node to be looked up.\n        function getNodeHeight(Index storage index, bytes32 id)\n            public view returns (uint)\n        {\n            return index.nodes[id].height;\n        }\n\n        /// @dev Retrieve the parent id of the node.\n        /// @param index The index that the node is part of.\n        /// @param id The id for the node to be looked up.\n        function getNodeParent(Index storage index, bytes32 id)\n            public view returns (bytes32)\n        {\n            return index.nodes[id].parent;\n        }\n\n        /// @dev Retrieve the left child id of the node.\n        /// @param index The index that the node is part of.\n        /// @param id The id for the node to be looked up.\n        function getNodeLeftChild(Index storage index, bytes32 id)\n            public view returns (bytes32)\n        {\n            return index.nodes[id].left;\n        }\n\n        /// @dev Retrieve the right child id of the node.\n        /// @param index The index that the node is part of.\n        /// @param id The id for the node to be looked up.\n        function getNodeRightChild(Index storage index, bytes32 id)\n            public view returns (bytes32)\n        {\n            return index.nodes[id].right;\n        }\n\n        /// @dev Retrieve the node id of the previous node in the tree.\n        /// @param index The index that the node is part of.\n        /// @param id The id for the node to be looked up.\n        function getPreviousNode(Index storage index, bytes32 id)\n            public view returns (bytes32)\n        {\n            Node storage currentNode = index.nodes[id];\n\n            if (currentNode.id == 0x0) {\n                // Unknown node, just return 0x0;\n                return 0x0;\n            }\n\n            Node memory child;\n\n            if (currentNode.left != 0x0) {\n                // Trace left to latest child in left tree.\n                child = index.nodes[currentNode.left];\n\n                while (child.right != 0) {\n                    child = index.nodes[child.right];\n                }\n                return child.id;\n            }\n\n            if (currentNode.parent != 0x0) {\n                // Now we trace back up through parent relationships, looking\n                // for a link where the child is the right child of it's\n                // parent.\n                Node storage parent = index.nodes[currentNode.parent];\n                child = currentNode;\n\n                while (true) {\n                    if (parent.right == child.id) {\n                        return parent.id;\n                    }\n\n                    if (parent.parent == 0x0) {\n                        break;\n                    }\n                    child = parent;\n                    parent = index.nodes[parent.parent];\n                }\n            }\n\n            // This is the first node, and has no previous node.\n            return 0x0;\n        }\n\n        /// @dev Retrieve the node id of the previous node in the tree.\n        /// @param index The index that the node is part of.\n        /// @param id The id for the node to be looked up.\n        function getNextNode(Index storage index, bytes32 id)\n            public view returns (bytes32)\n        {\n            Node storage currentNode = index.nodes[id];\n\n            if (currentNode.id == 0x0) {\n                // Unknown node, just return 0x0;\n                return 0x0;\n            }\n\n            Node memory child;\n\n            if (currentNode.right != 0x0) {\n                // Trace right to earliest child in right tree.\n                child = index.nodes[currentNode.right];\n\n                while (child.left != 0) {\n                    child = index.nodes[child.left];\n                }\n                return child.id;\n            }\n\n            if (currentNode.parent != 0x0) {\n                // if the node is the left child of it's parent, then the\n                // parent is the next one.\n                Node storage parent = index.nodes[currentNode.parent];\n                child = currentNode;\n\n                while (true) {\n                    if (parent.left == child.id) {\n                        return parent.id;\n                    }\n\n                    if (parent.parent == 0x0) {\n                        break;\n                    }\n                    child = parent;\n                    parent = index.nodes[parent.parent];\n                }\n\n                // Now we need to trace all the way up checking to see if any parent is the \n            }\n\n            // This is the final node.\n            return 0x0;\n        }\n\n\n        /// @dev Updates or Inserts the id into the index at its appropriate location based on the value provided.\n        /// @param index The index that the node is part of.\n        /// @param id The unique identifier of the data element the index node will represent.\n        /// @param value The value of the data element that represents it's total ordering with respect to other elementes.\n        function insert(Index storage index, bytes32 id, int value) public {\n                if (index.nodes[id].id == id) {\n                    // A node with this id already exists.  If the value is\n                    // the same, then just return early, otherwise, remove it\n                    // and reinsert it.\n                    if (index.nodes[id].value == value) {\n                        return;\n                    }\n                    remove(index, id);\n                }\n\n                bytes32 previousNodeId = 0x0;\n\n                if (index.root == 0x0) {\n                    index.root = id;\n                }\n                Node storage currentNode = index.nodes[index.root];\n\n                // Do insertion\n                while (true) {\n                    if (currentNode.id == 0x0) {\n                        // This is a new unpopulated node.\n                        currentNode.id = id;\n                        currentNode.parent = previousNodeId;\n                        currentNode.value = value;\n                        break;\n                    }\n\n                    // Set the previous node id.\n                    previousNodeId = currentNode.id;\n\n                    // The new node belongs in the right subtree\n                    if (value >= currentNode.value) {\n                        if (currentNode.right == 0x0) {\n                            currentNode.right = id;\n                        }\n                        currentNode = index.nodes[currentNode.right];\n                        continue;\n                    }\n\n                    // The new node belongs in the left subtree.\n                    if (currentNode.left == 0x0) {\n                        currentNode.left = id;\n                    }\n                    currentNode = index.nodes[currentNode.left];\n                }\n\n                // Rebalance the tree\n                _rebalanceTree(index, currentNode.id);\n        }\n\n        /// @dev Checks whether a node for the given unique identifier exists within the given index.\n        /// @param index The index that should be searched\n        /// @param id The unique identifier of the data element to check for.\n        function exists(Index storage index, bytes32 id) \n            public view returns (bool)\n        {\n            return (index.nodes[id].height > 0);\n        }\n\n        /// @dev Remove the node for the given unique identifier from the index.\n        /// @param index The index that should be removed\n        /// @param id The unique identifier of the data element to remove.\n        function remove(Index storage index, bytes32 id)\n            public\n        {\n            Node storage replacementNode;\n            Node storage parent;\n            Node storage child;\n            bytes32 rebalanceOrigin;\n\n            Node storage nodeToDelete = index.nodes[id];\n\n            if (nodeToDelete.id != id) {\n                // The id does not exist in the tree.\n                return;\n            }\n\n            if (nodeToDelete.left != 0x0 || nodeToDelete.right != 0x0) {\n                // This node is not a leaf node and thus must replace itself in\n                // it's tree by either the previous or next node.\n                if (nodeToDelete.left != 0x0) {\n                    // This node is guaranteed to not have a right child.\n                    replacementNode = index.nodes[getPreviousNode(index, nodeToDelete.id)];\n                }\n                else {\n                    // This node is guaranteed to not have a left child.\n                    replacementNode = index.nodes[getNextNode(index, nodeToDelete.id)];\n                }\n                // The replacementNode is guaranteed to have a parent.\n                parent = index.nodes[replacementNode.parent];\n\n                // Keep note of the location that our tree rebalancing should\n                // start at.\n                rebalanceOrigin = replacementNode.id;\n\n                // Join the parent of the replacement node with any subtree of\n                // the replacement node.  We can guarantee that the replacement\n                // node has at most one subtree because of how getNextNode and\n                // getPreviousNode are used.\n                if (parent.left == replacementNode.id) {\n                    parent.left = replacementNode.right;\n                    if (replacementNode.right != 0x0) {\n                        child = index.nodes[replacementNode.right];\n                        child.parent = parent.id;\n                    }\n                }\n                if (parent.right == replacementNode.id) {\n                    parent.right = replacementNode.left;\n                    if (replacementNode.left != 0x0) {\n                        child = index.nodes[replacementNode.left];\n                        child.parent = parent.id;\n                    }\n                }\n\n                // Now we replace the nodeToDelete with the replacementNode.\n                // This includes parent/child relationships for all of the\n                // parent, the left child, and the right child.\n                replacementNode.parent = nodeToDelete.parent;\n                if (nodeToDelete.parent != 0x0) {\n                    parent = index.nodes[nodeToDelete.parent];\n                    if (parent.left == nodeToDelete.id) {\n                        parent.left = replacementNode.id;\n                    }\n                    if (parent.right == nodeToDelete.id) {\n                        parent.right = replacementNode.id;\n                    }\n                }\n                else {\n                    // If the node we are deleting is the root node update the\n                    // index root node pointer.\n                    index.root = replacementNode.id;\n                }\n\n                replacementNode.left = nodeToDelete.left;\n                if (nodeToDelete.left != 0x0) {\n                    child = index.nodes[nodeToDelete.left];\n                    child.parent = replacementNode.id;\n                }\n\n                replacementNode.right = nodeToDelete.right;\n                if (nodeToDelete.right != 0x0) {\n                    child = index.nodes[nodeToDelete.right];\n                    child.parent = replacementNode.id;\n                }\n            }\n            else if (nodeToDelete.parent != 0x0) {\n                // The node being deleted is a leaf node so we only erase it's\n                // parent linkage.\n                parent = index.nodes[nodeToDelete.parent];\n\n                if (parent.left == nodeToDelete.id) {\n                    delete parent.left;\n                }\n                if (parent.right == nodeToDelete.id) {\n                    delete parent.right;\n                }\n\n                // keep note of where the rebalancing should begin.\n                rebalanceOrigin = parent.id;\n            }\n            else {\n                // This is both a leaf node and the root node, so we need to\n                // unset the root node pointer.\n                delete index.root;\n            }\n\n            // Now we zero out all of the fields on the nodeToDelete.\n            delete nodeToDelete.id;\n            delete nodeToDelete.value;\n            delete nodeToDelete.parent;\n            delete nodeToDelete.left;\n            delete nodeToDelete.right;\n            delete nodeToDelete.height;\n\n            // Walk back up the tree rebalancing\n            if (rebalanceOrigin != 0x0) {\n                _rebalanceTree(index, rebalanceOrigin);\n            }\n        }\n\n        bytes2 constant GT = \">\";\n        bytes2 constant LT = \"<\";\n        bytes2 constant GTE = \">=\";\n        bytes2 constant LTE = \"<=\";\n        bytes2 constant EQ = \"==\";\n\n        function _compare(int left, bytes2 operator, int right)\n            internal pure returns (bool)\n        {\n            if (operator == GT) {\n                return (left > right);\n            }\n            if (operator == LT) {\n                return (left < right);\n            }\n            if (operator == GTE) {\n                return (left >= right);\n            }\n            if (operator == LTE) {\n                return (left <= right);\n            }\n            if (operator == EQ) {\n                return (left == right);\n            }\n\n            // Invalid operator.\n            revert();\n        }\n\n        function _getMaximum(Index storage index, bytes32 id)\n            internal view returns (int)\n        {\n                Node storage currentNode = index.nodes[id];\n\n                while (true) {\n                    if (currentNode.right == 0x0) {\n                        return currentNode.value;\n                    }\n                    currentNode = index.nodes[currentNode.right];\n                }\n        }\n\n        function _getMinimum(Index storage index, bytes32 id)\n            internal view returns (int)\n        {\n                Node storage currentNode = index.nodes[id];\n\n                while (true) {\n                    if (currentNode.left == 0x0) {\n                        return currentNode.value;\n                    }\n                    currentNode = index.nodes[currentNode.left];\n                }\n        }\n\n\n        /** \n         * @dev Query the index for the edge-most node that satisfies the\n         *  given query.  For >, >=, and ==, this will be the left-most node\n         *  that satisfies the comparison.  For < and <= this will be the\n         *  right-most node that satisfies the comparison.\n         *\n         * @param index The index that should be queried\n         * @param operator One of '>', '>=', '<', '<=', '==' to specify what\n         *  type of comparison operator should be used.\n         */\n        function query(Index storage index, bytes2 operator, int value)\n            public view returns (bytes32)\n        {\n                bytes32 rootNodeId = index.root;\n                \n                if (rootNodeId == 0x0) {\n                    // Empty tree.\n                    return 0x0;\n                }\n\n                Node storage currentNode = index.nodes[rootNodeId];\n\n                while (true) {\n                    if (_compare(currentNode.value, operator, value)) {\n                        // We have found a match but it might not be the\n                        // *correct* match.\n                        if ((operator == LT) || (operator == LTE)) {\n                            // Need to keep traversing right until this is no\n                            // longer true.\n                            if (currentNode.right == 0x0) {\n                                return currentNode.id;\n                            }\n                            if (_compare(_getMinimum(index, currentNode.right), operator, value)) {\n                                // There are still nodes to the right that\n                                // match.\n                                currentNode = index.nodes[currentNode.right];\n                                continue;\n                            }\n                            return currentNode.id;\n                        }\n\n                        if ((operator == GT) || (operator == GTE) || (operator == EQ)) {\n                            // Need to keep traversing left until this is no\n                            // longer true.\n                            if (currentNode.left == 0x0) {\n                                return currentNode.id;\n                            }\n                            if (_compare(_getMaximum(index, currentNode.left), operator, value)) {\n                                currentNode = index.nodes[currentNode.left];\n                                continue;\n                            }\n                            return currentNode.id;\n                        }\n                    }\n\n                    if ((operator == LT) || (operator == LTE)) {\n                        if (currentNode.left == 0x0) {\n                            // There are no nodes that are less than the value\n                            // so return null.\n                            return 0x0;\n                        }\n                        currentNode = index.nodes[currentNode.left];\n                        continue;\n                    }\n\n                    if ((operator == GT) || (operator == GTE)) {\n                        if (currentNode.right == 0x0) {\n                            // There are no nodes that are greater than the value\n                            // so return null.\n                            return 0x0;\n                        }\n                        currentNode = index.nodes[currentNode.right];\n                        continue;\n                    }\n\n                    if (operator == EQ) {\n                        if (currentNode.value < value) {\n                            if (currentNode.right == 0x0) {\n                                return 0x0;\n                            }\n                            currentNode = index.nodes[currentNode.right];\n                            continue;\n                        }\n\n                        if (currentNode.value > value) {\n                            if (currentNode.left == 0x0) {\n                                return 0x0;\n                            }\n                            currentNode = index.nodes[currentNode.left];\n                            continue;\n                        }\n                    }\n                }\n        }\n\n        function _rebalanceTree(Index storage index, bytes32 id)\n            internal\n        {\n            // Trace back up rebalancing the tree and updating heights as\n            // needed..\n            Node storage currentNode = index.nodes[id];\n\n            while (true) {\n                int balanceFactor = _getBalanceFactor(index, currentNode.id);\n\n                if (balanceFactor == 2) {\n                    // Right rotation (tree is heavy on the left)\n                    if (_getBalanceFactor(index, currentNode.left) == -1) {\n                        // The subtree is leaning right so it need to be\n                        // rotated left before the current node is rotated\n                        // right.\n                        _rotateLeft(index, currentNode.left);\n                    }\n                    _rotateRight(index, currentNode.id);\n                }\n\n                if (balanceFactor == -2) {\n                    // Left rotation (tree is heavy on the right)\n                    if (_getBalanceFactor(index, currentNode.right) == 1) {\n                        // The subtree is leaning left so it need to be\n                        // rotated right before the current node is rotated\n                        // left.\n                        _rotateRight(index, currentNode.right);\n                    }\n                    _rotateLeft(index, currentNode.id);\n                }\n\n                if ((-1 <= balanceFactor) && (balanceFactor <= 1)) {\n                    _updateNodeHeight(index, currentNode.id);\n                }\n\n                if (currentNode.parent == 0x0) {\n                    // Reached the root which may be new due to tree\n                    // rotation, so set it as the root and then break.\n                    break;\n                }\n\n                currentNode = index.nodes[currentNode.parent];\n            }\n        }\n\n        function _getBalanceFactor(Index storage index, bytes32 id)\n            internal view returns (int)\n        {\n            Node storage node = index.nodes[id];\n\n            return int(index.nodes[node.left].height) - int(index.nodes[node.right].height);\n        }\n\n        function _updateNodeHeight(Index storage index, bytes32 id)\n            internal\n        {\n            Node storage node = index.nodes[id];\n\n            node.height = max(index.nodes[node.left].height, index.nodes[node.right].height) + 1;\n        }\n\n        function _rotateLeft(Index storage index, bytes32 id)\n            internal\n        {\n            Node storage originalRoot = index.nodes[id];\n\n            // Cannot rotate left if there is no right originalRoot to rotate into\n            // place.\n            require(originalRoot.right != 0x0);\n\n            // The right child is the new root, so it gets the original\n            // `originalRoot.parent` as it's parent.\n            Node storage newRoot = index.nodes[originalRoot.right];\n            newRoot.parent = originalRoot.parent;\n\n            // The original root needs to have it's right child nulled out.\n            delete originalRoot.right;\n\n            if (originalRoot.parent != 0x0) {\n                // If there is a parent node, it needs to now point downward at\n                // the newRoot which is rotating into the place where `node` was.\n                Node storage parent = index.nodes[originalRoot.parent];\n\n                // figure out if we're a left or right child and have the\n                // parent point to the new node.\n                if (parent.left == originalRoot.id) {\n                    parent.left = newRoot.id;\n                }\n                if (parent.right == originalRoot.id) {\n                    parent.right = newRoot.id;\n                }\n            }\n\n\n            if (newRoot.left != 0) {\n                // If the new root had a left child, that moves to be the\n                // new right child of the original root node\n                Node storage leftChild = index.nodes[newRoot.left];\n                originalRoot.right = leftChild.id;\n                leftChild.parent = originalRoot.id;\n            }\n\n            // Update the newRoot's left node to point at the original node.\n            originalRoot.parent = newRoot.id;\n            newRoot.left = originalRoot.id;\n\n            if (newRoot.parent == 0x0) {\n                index.root = newRoot.id;\n            }\n\n            // TODO: are both of these updates necessary?\n            _updateNodeHeight(index, originalRoot.id);\n            _updateNodeHeight(index, newRoot.id);\n        }\n\n        function _rotateRight(Index storage index, bytes32 id) internal {\n            Node storage originalRoot = index.nodes[id];\n\n            // Cannot rotate right if there is no left node to rotate into\n            // place.\n            require(originalRoot.left != 0x0);\n\n            // The left child is taking the place of node, so we update it's\n            // parent to be the original parent of the node.\n            Node storage newRoot = index.nodes[originalRoot.left];\n            newRoot.parent = originalRoot.parent;\n\n            // Null out the originalRoot.left\n            delete originalRoot.left;\n\n            if (originalRoot.parent != 0x0) {\n                // If the node has a parent, update the correct child to point\n                // at the newRoot now.\n                Node storage parent = index.nodes[originalRoot.parent];\n\n                if (parent.left == originalRoot.id) {\n                    parent.left = newRoot.id;\n                }\n                if (parent.right == originalRoot.id) {\n                    parent.right = newRoot.id;\n                }\n            }\n\n            if (newRoot.right != 0x0) {\n                Node storage rightChild = index.nodes[newRoot.right];\n                originalRoot.left = newRoot.right;\n                rightChild.parent = originalRoot.id;\n            }\n\n            // Update the new root's right node to point to the original node.\n            originalRoot.parent = newRoot.id;\n            newRoot.right = originalRoot.id;\n\n            if (newRoot.parent == 0x0) {\n                index.root = newRoot.id;\n            }\n\n            // Recompute heights.\n            _updateNodeHeight(index, originalRoot.id);\n            _updateNodeHeight(index, newRoot.id);\n        }\n}",
  "sourcePath": "contracts/Library/GroveLib.sol",
  "compiler": {
    "name": "solc",
    "version": "0.4.19+commit.c4cbbb05.Emscripten.clang"
  },
  "schemaVersion": "1.0.1",
  "updatedAt": "2018-02-23T08:52:28.848Z"
}