{
  "contractName": "PaymentLib",
  "abi": [
    {
      "constant": true,
      "inputs": [
        {
          "name": "_bounty",
          "type": "uint256"
        },
        {
          "name": "_fee",
          "type": "uint256"
        },
        {
          "name": "_callGas",
          "type": "uint256"
        },
        {
          "name": "_callValue",
          "type": "uint256"
        },
        {
          "name": "_gasPrice",
          "type": "uint256"
        },
        {
          "name": "_gasOverhead",
          "type": "uint256"
        }
      ],
      "name": "computeEndowment",
      "outputs": [
        {
          "name": "",
          "type": "uint256"
        }
      ],
      "payable": false,
      "stateMutability": "pure",
      "type": "function"
    },
    {
      "constant": true,
      "inputs": [
        {
          "name": "_endowment",
          "type": "uint256"
        },
        {
          "name": "_bounty",
          "type": "uint256"
        },
        {
          "name": "_fee",
          "type": "uint256"
        },
        {
          "name": "_callGas",
          "type": "uint256"
        },
        {
          "name": "_callValue",
          "type": "uint256"
        },
        {
          "name": "_gasPrice",
          "type": "uint256"
        },
        {
          "name": "_gasOverhead",
          "type": "uint256"
        }
      ],
      "name": "validateEndowment",
      "outputs": [
        {
          "name": "",
          "type": "bool"
        }
      ],
      "payable": false,
      "stateMutability": "pure",
      "type": "function"
    }
  ],
  "bytecode": "0x6060604052341561000f57600080fd5b6102418061001e6000396000f30060606040526004361061004c576000357c0100000000000000000000000000000000000000000000000000000000900463ffffffff16806327960c5f146100515780635ee345e4146100b7575b600080fd5b61009d6004808035906020019091908035906020019091908035906020019091908035906020019091908035906020019091908035906020019091908035906020019091905050610110565b604051808215151515815260200191505060405180910390f35b6100fa6004808035906020019091908035906020019091908035906020019091908035906020019091908035906020019091908035906020019091905050610130565b6040518082815260200191505060405180910390f35b6000610120878787878787610130565b8810159050979650505050505050565b60006101b2846101a461014c86866101be90919063ffffffff16565b610196610162888b6101be90919063ffffffff16565b61018861017960028e6101be90919063ffffffff16565b8e6101f490919063ffffffff16565b6101f490919063ffffffff16565b6101f490919063ffffffff16565b6101f490919063ffffffff16565b90509695505050505050565b600080828402905060008414806101df57508284828115156101dc57fe5b04145b15156101ea57600080fd5b8091505092915050565b600080828401905083811015151561020b57600080fd5b80915050929150505600a165627a7a72305820d7a31bb77a029ba90c0e6faf671c93abae78c57ab41ee0cb819905224927f1950029",
  "source": "pragma solidity 0.4.19;\n\nimport \"contracts/Library/ExecutionLib.sol\";\nimport \"contracts/Library/MathLib.sol\";\nimport \"contracts/zeppelin/SafeMath.sol\";\n\n/**\n * Library containing the functionality for the bounty and fee payments.\n * - Bounty payments are the reward paid to the executing agent of transaction\n * requests.\n * - Fee payments are the cost of using a Scheduler to make transactions. It is \n * a way for developers to monetize their work on the EAC.\n */\nlibrary PaymentLib {\n    using SafeMath for uint;\n\n    struct PaymentData {\n        uint bounty;                /// The amount in wei to be paid to the executing agent of the TransactionRequest.\n\n        address bountyBenefactor;   /// The address that the bounty will be sent to.\n\n        uint bountyOwed;            /// The amount that is owed to the bountyBenefactor.\n\n        uint fee;                   /// The amount in wei that will be paid to the FEE_RECIPIENT address.\n\n        address feeRecipient;       /// The address that the fee will be sent to.\n\n        uint feeOwed;               /// The amount that is owed to the feeRecipient.\n    }\n\n    ///---------------\n    /// GETTERS\n    ///---------------\n\n    /**\n     * @dev Getter function that returns true if a request has a benefactor.\n     */\n    function hasFeeRecipient(PaymentData storage self)\n        internal view returns (bool)\n    {\n        return self.feeRecipient != 0x0;\n    }\n\n    /**\n     * @dev Computes the amount to send to the feeRecipient. \n     */\n    function getFee(PaymentData storage self) \n        internal view returns (uint)\n    {\n        return self.fee;\n    }\n\n    /**\n     * @dev Computes the amount to send to the agent that executed the request.\n     */\n    function getBounty(PaymentData storage self)\n        internal view returns (uint)\n    {\n        return self.bounty;\n    }\n \n    /**\n     * @dev Computes the amount to send to the address that fulfilled the request\n     *       with an additional modifier. This is used when the call was claimed.\n     */\n    function getBountyWithModifier(PaymentData storage self,\n                                   uint8 _paymentModifier)\n        internal view returns (uint)\n    {\n        return getBounty(self).mul(_paymentModifier).div(100);\n    }\n\n    ///---------------\n    /// SENDERS\n    ///---------------\n\n    /**\n     * @dev Send the feeOwed amount to the feeRecipient.\n     * Note: The send is allowed to fail.\n     */\n    function sendFee(PaymentData storage self) \n        internal returns (bool)\n    {\n        uint feeAmount = self.feeOwed;\n        if (feeAmount > 0) {\n            // re-entrance protection.\n            self.feeOwed = 0;\n            return self.feeRecipient.send(feeAmount);\n        }\n        return true;\n    }\n\n    /**\n     * @dev Send the bountyOwed amount to the bountyBenefactor.\n     * Note: The send is allowed to fail.\n     */\n    function sendBounty(PaymentData storage self)\n        internal returns (bool)\n    {\n        uint bountyAmount = self.bountyOwed;\n        if (bountyAmount > 0) {\n            // re-entrance protection.\n            self.bountyOwed = 0;\n            return self.bountyBenefactor.send(bountyAmount);\n        }\n        return true;\n    }\n\n    ///---------------\n    /// Endowment\n    ///---------------\n\n    /**\n     * @dev Compute the endowment value for the given TransactionRequest parameters.\n     * See request_factory.rst in docs folder under Check #1 for more information about\n     * this calculation.\n     */\n    function computeEndowment(\n        uint _bounty,\n        uint _fee,\n        uint _callGas,\n        uint _callValue,\n        uint _gasPrice,\n        uint _gasOverhead\n    ) \n        public pure returns (uint)\n    {\n        return _bounty\n                .add(_fee.mul(2))\n                .add(_callGas.mul(_gasPrice))\n                .add(_gasOverhead.mul(_gasPrice))\n                .add(_callValue);\n    }\n\n    /*\n     * Validation: ensure that the request endowment is sufficient to cover.\n     * - bounty * maxMultiplier\n     * - fee * maxMultiplier\n     * - gasReimbursment\n     * - callValue\n     */\n    function validateEndowment(uint _endowment,\n                               uint _bounty,\n                               uint _fee,\n                               uint _callGas,\n                               uint _callValue,\n                               uint _gasPrice,\n                               uint _gasOverhead)\n        public pure returns (bool)\n    {\n        return _endowment >= computeEndowment(\n            _bounty,\n            _fee,\n            _callGas,\n            _callValue,\n            _gasPrice,\n            _gasOverhead\n        );\n    }\n}\n",
  "sourcePath": "contracts/Library/PaymentLib.sol",
  "compiler": {
    "name": "solc",
    "version": "0.4.19+commit.c4cbbb05.Emscripten.clang"
  },
  "schemaVersion": "1.0.1",
  "updatedAt": "2018-02-23T08:52:28.823Z"
}