{
  "contractName": "RequestFactory",
  "abi": [
    {
      "constant": true,
      "inputs": [],
      "name": "requestTracker",
      "outputs": [
        {
          "name": "",
          "type": "address"
        }
      ],
      "payable": false,
      "stateMutability": "view",
      "type": "function"
    },
    {
      "constant": true,
      "inputs": [],
      "name": "transactionRequestCore",
      "outputs": [
        {
          "name": "",
          "type": "address"
        }
      ],
      "payable": false,
      "stateMutability": "view",
      "type": "function"
    },
    {
      "inputs": [
        {
          "name": "_trackerAddress",
          "type": "address"
        },
        {
          "name": "_transactionRequestCore",
          "type": "address"
        }
      ],
      "payable": false,
      "stateMutability": "nonpayable",
      "type": "constructor"
    },
    {
      "anonymous": false,
      "inputs": [
        {
          "indexed": false,
          "name": "error",
          "type": "uint8"
        }
      ],
      "name": "ValidationError",
      "type": "event"
    },
    {
      "anonymous": false,
      "inputs": [
        {
          "indexed": true,
          "name": "target",
          "type": "address"
        },
        {
          "indexed": false,
          "name": "clone",
          "type": "address"
        }
      ],
      "name": "CloneCreated",
      "type": "event"
    },
    {
      "anonymous": false,
      "inputs": [
        {
          "indexed": false,
          "name": "request",
          "type": "address"
        },
        {
          "indexed": true,
          "name": "owner",
          "type": "address"
        }
      ],
      "name": "RequestCreated",
      "type": "event"
    },
    {
      "constant": false,
      "inputs": [
        {
          "name": "_addressArgs",
          "type": "address[3]"
        },
        {
          "name": "_uintArgs",
          "type": "uint256[12]"
        },
        {
          "name": "_callData",
          "type": "bytes"
        }
      ],
      "name": "createRequest",
      "outputs": [
        {
          "name": "",
          "type": "address"
        }
      ],
      "payable": true,
      "stateMutability": "payable",
      "type": "function"
    },
    {
      "constant": false,
      "inputs": [
        {
          "name": "_addressArgs",
          "type": "address[3]"
        },
        {
          "name": "_uintArgs",
          "type": "uint256[12]"
        },
        {
          "name": "_callData",
          "type": "bytes"
        }
      ],
      "name": "createValidatedRequest",
      "outputs": [
        {
          "name": "",
          "type": "address"
        }
      ],
      "payable": true,
      "stateMutability": "payable",
      "type": "function"
    },
    {
      "constant": true,
      "inputs": [
        {
          "name": "_addressArgs",
          "type": "address[3]"
        },
        {
          "name": "_uintArgs",
          "type": "uint256[12]"
        },
        {
          "name": "_callData",
          "type": "bytes"
        },
        {
          "name": "_endowment",
          "type": "uint256"
        }
      ],
      "name": "validateRequestParams",
      "outputs": [
        {
          "name": "",
          "type": "bool[6]"
        }
      ],
      "payable": false,
      "stateMutability": "view",
      "type": "function"
    },
    {
      "constant": true,
      "inputs": [
        {
          "name": "_address",
          "type": "address"
        }
      ],
      "name": "isKnownRequest",
      "outputs": [
        {
          "name": "isKnown",
          "type": "bool"
        }
      ],
      "payable": false,
      "stateMutability": "view",
      "type": "function"
    }
  ],
  "bytecode": "0x6060604052341561000f57600080fd5b6040516040806112208339810160405280805190602001909190805190602001909190505060008273ffffffffffffffffffffffffffffffffffffffff161415151561005a57600080fd5b60008173ffffffffffffffffffffffffffffffffffffffff161415151561008057600080fd5b816000806101000a81548173ffffffffffffffffffffffffffffffffffffffff021916908373ffffffffffffffffffffffffffffffffffffffff16021790555080600160006101000a81548173ffffffffffffffffffffffffffffffffffffffff021916908373ffffffffffffffffffffffffffffffffffffffff160217905550505061110e806101126000396000f300606060405260043610610077576000357c0100000000000000000000000000000000000000000000000000000000900463ffffffff168062b7520e1461007c57806348b47b8f146100d15780637c4cc101146101cc5780639be91642146102b7578063b64eecb114610308578063d7ceab4c1461035d575b600080fd5b341561008757600080fd5b61008f610448565b604051808273ffffffffffffffffffffffffffffffffffffffff1673ffffffffffffffffffffffffffffffffffffffff16815260200191505060405180910390f35b34156100dc57600080fd5b61018e6004808060600190600380602002604051908101604052809291908260036020028082843782019150505050509190806101800190600c806020026040519081016040528092919082600c6020028082843782019150505050509190803590602001908201803590602001908080601f0160208091040260200160405190810160405280939291908181526020018383808284378201915050505050509190803590602001909190505061046d565b6040518082600660200280838360005b838110156101b957808201518184015260208101905061019e565b5050505090500191505060405180910390f35b6102756004808060600190600380602002604051908101604052809291908260036020028082843782019150505050509190806101800190600c806020026040519081016040528092919082600c6020028082843782019150505050509190803590602001908201803590602001908080601f016020809104026020016040519081016040528093929190818152602001838380828437820191505050505050919050506106e7565b604051808273ffffffffffffffffffffffffffffffffffffffff1673ffffffffffffffffffffffffffffffffffffffff16815260200191505060405180910390f35b34156102c257600080fd5b6102ee600480803573ffffffffffffffffffffffffffffffffffffffff16906020019091905050610b54565b604051808215151515815260200191505060405180910390f35b341561031357600080fd5b61031b610baa565b604051808273ffffffffffffffffffffffffffffffffffffffff1673ffffffffffffffffffffffffffffffffffffffff16815260200191505060405180910390f35b6104066004808060600190600380602002604051908101604052809291908260036020028082843782019150505050509190806101800190600c806020026040519081016040528092919082600c6020028082843782019150505050509190803590602001908201803590602001908080601f01602080910402602001604051908101604052809392919081815260200183838082843782019150505050505091905050610bd0565b604051808273ffffffffffffffffffffffffffffffffffffffff1673ffffffffffffffffffffffffffffffffffffffff16815260200191505060405180910390f35b6000809054906101000a900473ffffffffffffffffffffffffffffffffffffffff1681565b6104756110a4565b73__RequestLib____________________________6363351d696080604051908101604052803373ffffffffffffffffffffffffffffffffffffffff1673ffffffffffffffffffffffffffffffffffffffff1681526020018860006003811015156104dc57fe5b602002015173ffffffffffffffffffffffffffffffffffffffff1673ffffffffffffffffffffffffffffffffffffffff16815260200188600160038110151561052157fe5b602002015173ffffffffffffffffffffffffffffffffffffffff1673ffffffffffffffffffffffffffffffffffffffff16815260200188600260038110151561056657fe5b602002015173ffffffffffffffffffffffffffffffffffffffff1673ffffffffffffffffffffffffffffffffffffffff16815250868686600060405160c001526040518563ffffffff167c01000000000000000000000000000000000000000000000000000000000281526004018085600460200280838360005b838110156105fc5780820151818401526020810190506105e1565b5050505090500184600c60200280838360005b8381101561062a57808201518184015260208101905061060f565b5050505090500180602001838152602001828103825284818151815260200191508051906020019080838360005b83811015610673578082015181840152602081019050610658565b50505050905090810190601f1680156106a05780820380516001836020036101000a031916815260200191505b509550505050505060c06040518083038186803b15156106bf57600080fd5b6102c65a03f415156106d057600080fd5b5050506040518060c0016040529050949350505050565b600080610715600160009054906101000a900473ffffffffffffffffffffffffffffffffffffffff16610f5c565b90508073ffffffffffffffffffffffffffffffffffffffff1663820e8522346080604051908101604052803373ffffffffffffffffffffffffffffffffffffffff1673ffffffffffffffffffffffffffffffffffffffff16815260200189600060038110151561078157fe5b602002015173ffffffffffffffffffffffffffffffffffffffff1673ffffffffffffffffffffffffffffffffffffffff1681526020018960016003811015156107c657fe5b602002015173ffffffffffffffffffffffffffffffffffffffff1673ffffffffffffffffffffffffffffffffffffffff16815260200189600260038110151561080b57fe5b602002015173ffffffffffffffffffffffffffffffffffffffff1673ffffffffffffffffffffffffffffffffffffffff1681525087876040518563ffffffff167c01000000000000000000000000000000000000000000000000000000000281526004018084600460200280838360005b8381101561089757808201518184015260208101905061087c565b5050505090500183600c60200280838360005b838110156108c55780820151818401526020810190506108aa565b5050505090500180602001828103825283818151815260200191508051906020019080838360005b838110156109085780820151818401526020810190506108ed565b50505050905090810190601f1680156109355780820380516001836020036101000a031916815260200191505b509450505050506000604051808303818588803b151561095457600080fd5b6125ee5a03f1151561096557600080fd5b505050506001600260008373ffffffffffffffffffffffffffffffffffffffff1673ffffffffffffffffffffffffffffffffffffffff16815260200190815260200160002060006101000a81548160ff0219169083151502179055508460006003811015156109d057fe5b602002015173ffffffffffffffffffffffffffffffffffffffff167fe8e96ecb871262a64e118290c6c1ad9e992412da71c65cd6924fd0cf1f64cec382604051808273ffffffffffffffffffffffffffffffffffffffff1673ffffffffffffffffffffffffffffffffffffffff16815260200191505060405180910390a26000809054906101000a900473ffffffffffffffffffffffffffffffffffffffff1673ffffffffffffffffffffffffffffffffffffffff166309d33f1d82866007600c81101515610a9b57fe5b60200201516000604051602001526040518363ffffffff167c0100000000000000000000000000000000000000000000000000000000028152600401808373ffffffffffffffffffffffffffffffffffffffff1673ffffffffffffffffffffffffffffffffffffffff16815260200182815260200192505050602060405180830381600087803b1515610b2d57600080fd5b6102c65a03f11515610b3e57600080fd5b5050506040518051905050809150509392505050565b6000600260008373ffffffffffffffffffffffffffffffffffffffff1673ffffffffffffffffffffffffffffffffffffffff16815260200190815260200160002060009054906101000a900460ff169050919050565b600160009054906101000a900473ffffffffffffffffffffffffffffffffffffffff1681565b6000610bda6110a4565b610be68585853461046d565b90508073__IterTools_____________________________635fa77dac90916000604051602001526040518263ffffffff167c01000000000000000000000000000000000000000000000000000000000281526004018082600660200280838360005b83811015610c64578082015181840152602081019050610c49565b5050505090500191505060206040518083038186803b1515610c8557600080fd5b6102c65a03f41515610c9657600080fd5b505050604051805190501515610f4657806000600681101515610cb557fe5b60200201511515610d0a577f077a9c333594b471fbfcd18e36bfb234269fe83c1cbb6a332f0b228258bcc02a60006005811115610cee57fe5b604051808260ff1660ff16815260200191505060405180910390a15b806001600681101515610d1957fe5b60200201511515610d6e577f077a9c333594b471fbfcd18e36bfb234269fe83c1cbb6a332f0b228258bcc02a60016005811115610d5257fe5b604051808260ff1660ff16815260200191505060405180910390a15b806002600681101515610d7d57fe5b60200201511515610dd2577f077a9c333594b471fbfcd18e36bfb234269fe83c1cbb6a332f0b228258bcc02a60026005811115610db657fe5b604051808260ff1660ff16815260200191505060405180910390a15b806003600681101515610de157fe5b60200201511515610e36577f077a9c333594b471fbfcd18e36bfb234269fe83c1cbb6a332f0b228258bcc02a60036005811115610e1a57fe5b604051808260ff1660ff16815260200191505060405180910390a15b806004600681101515610e4557fe5b60200201511515610e9a577f077a9c333594b471fbfcd18e36bfb234269fe83c1cbb6a332f0b228258bcc02a60046005811115610e7e57fe5b604051808260ff1660ff16815260200191505060405180910390a15b806005600681101515610ea957fe5b60200201511515610efd577f077a9c333594b471fbfcd18e36bfb234269fe83c1cbb6a332f0b228258bcc02a600580811115610ee157fe5b604051808260ff1660ff16815260200191505060405180910390a15b3373ffffffffffffffffffffffffffffffffffffffff166108fc349081150290604051600060405180830381858888f193505050501515610f3d57600080fd5b60009150610f54565b610f518585856106e7565b91505b509392505050565b6000610f666110ce565b600080608060405190810160405280604881526020017f3460425760388060106000396000f30036600060ff376000803660ff73beefbe81526020017fefbeefbeefbeefbeefbeefbeefbeefbeef5af4156032573d80600060ff3e60ff81526020017ff3005b600080fd000000000000000000000000000000000000000000000000008152509250846c01000000000000000000000000029150600090505b601481101561108d57818160148110151561101c57fe5b1a7f0100000000000000000000000000000000000000000000000000000000000000028382601d0181518110151561105057fe5b9060200101907effffffffffffffffffffffffffffffffffffffffffffffffffffffffffffff1916908160001a9053508080600101915050611005565b82516020840181816000f095505050505050919050565b60c0604051908101604052806006905b600015158152602001906001900390816110b45790505090565b6020604051908101604052806000815250905600a165627a7a723058209424cc108af85675a7bb1a0fc516e33a19ba12c2d7c58da15cb1c66906ccba370029",
  "source": "pragma solidity 0.4.19;\n\nimport \"contracts/Interface/RequestFactoryInterface.sol\";\nimport \"contracts/Interface/RequestTrackerInterface.sol\";\nimport \"contracts/TransactionRequestCore.sol\";\nimport \"contracts/Library/RequestLib.sol\";\nimport \"contracts/IterTools.sol\";\nimport \"contracts/CloneFactory.sol\";\n\n/**\n * @title RequestFactory\n * @dev Contract which will produce new TransactionRequests.\n */\ncontract RequestFactory is RequestFactoryInterface, CloneFactory {\n    using IterTools for bool[6];\n\n    // RequestTracker of this contract.\n    RequestTrackerInterface public requestTracker;\n    TransactionRequestCore public transactionRequestCore;\n\n    function RequestFactory(\n        address _trackerAddress,\n        address _transactionRequestCore\n    ) public {\n        require( _trackerAddress != 0x0 );\n        require( _transactionRequestCore != 0x0 );\n\n        requestTracker = RequestTrackerInterface(_trackerAddress);\n        transactionRequestCore = TransactionRequestCore(_transactionRequestCore);\n    }\n\n    /**\n     * @dev The lowest level interface for creating a transaction request.\n     *\n     * @param _addressArgs [0] -  meta.owner\n     * @param _addressArgs [1] -  paymentData.feeRecipient\n     * @param _addressArgs [2] -  txnData.toAddress\n     * @param _uintArgs [0]    -  paymentData.fee\n     * @param _uintArgs [1]    -  paymentData.bounty\n     * @param _uintArgs [2]    -  schedule.claimWindowSize\n     * @param _uintArgs [3]    -  schedule.freezePeriod\n     * @param _uintArgs [4]    -  schedule.reservedWindowSize\n     * @param _uintArgs [5]    -  schedule.temporalUnit\n     * @param _uintArgs [6]    -  schedule.windowSize\n     * @param _uintArgs [7]    -  schedule.windowStart\n     * @param _uintArgs [8]    -  txnData.callGas\n     * @param _uintArgs [9]    -  txnData.callValue\n     * @param _uintArgs [10]   -  txnData.gasPrice\n     * @param _uintArgs [11]   -  claimData.requiredDeposit\n     * @param _callData        -  The call data\n     */\n    function createRequest(\n        address[3]  _addressArgs,\n        uint[12]    _uintArgs,\n        bytes       _callData\n    )\n        public payable returns (address)\n    {\n        // Create a new transaction request clone from transactionRequestCore.\n        address transactionRequest = createClone(transactionRequestCore);\n\n        // Call initialize on the transaction request clone.\n        TransactionRequestCore(transactionRequest).initialize.value(msg.value)(\n            [\n                msg.sender,       // Created by\n                _addressArgs[0],  // meta.owner\n                _addressArgs[1],  // paymentData.feeRecipient\n                _addressArgs[2]   // txnData.toAddress\n            ],\n            _uintArgs,            //uint[12]\n            _callData\n        );\n\n        // Track the address locally\n        requests[transactionRequest] = true;\n\n        // Log the creation.\n        RequestCreated(transactionRequest, _addressArgs[0]);\n\n        // Add the transaction request to the tracker along with the `windowStart`\n        requestTracker.addRequest(transactionRequest, _uintArgs[7]);\n\n        return transactionRequest;\n    }\n\n    /**\n     *  The same as createRequest except that it requires validation prior to\n     *  creation.\n     *\n     *  Parameters are the same as `createRequest`\n     */\n    function createValidatedRequest(\n        address[3]  _addressArgs,\n        uint[12]    _uintArgs,\n        bytes       _callData\n    )\n        public payable returns (address)\n    {\n        bool[6] memory isValid = validateRequestParams(\n            _addressArgs,\n            _uintArgs,\n            _callData,\n            msg.value\n        );\n\n        if (!isValid.all()) {\n            if (!isValid[0]) {\n                ValidationError(uint8(Errors.InsufficientEndowment));\n            }\n            if (!isValid[1]) {\n                ValidationError(uint8(Errors.ReservedWindowBiggerThanExecutionWindow));\n            }\n            if (!isValid[2]) {\n                ValidationError(uint8(Errors.InvalidTemporalUnit));\n            }\n            if (!isValid[3]) {\n                ValidationError(uint8(Errors.ExecutionWindowTooSoon));\n            }\n            if (!isValid[4]) {\n                ValidationError(uint8(Errors.CallGasTooHigh));\n            }\n            if (!isValid[5]) {\n                ValidationError(uint8(Errors.EmptyToAddress));\n            }\n\n            // Try to return the ether sent with the message.  If this failed\n            // then revert() to force it to be returned\n            if (!msg.sender.send(msg.value)) {\n                revert();\n            }\n            return 0x0;\n        }\n\n        return createRequest(_addressArgs, _uintArgs, _callData);\n    }\n\n    /// ----------------------------\n    /// Internal\n    /// ----------------------------\n\n    /*\n     *  @dev The enum for launching `ValidationError` events and mapping them to an error.\n     */\n    enum Errors {\n        InsufficientEndowment,\n        ReservedWindowBiggerThanExecutionWindow,\n        InvalidTemporalUnit,\n        ExecutionWindowTooSoon,\n        CallGasTooHigh,\n        EmptyToAddress\n    }\n\n    event ValidationError(uint8 error);\n\n    /*\n     * @dev Validate the constructor arguments for either `createRequest` or `createValidatedRequest`.\n     */\n    function validateRequestParams(\n        address[3]  _addressArgs,\n        uint[12]    _uintArgs,\n        bytes       _callData,\n        uint        _endowment\n    )\n        public view returns (bool[6])\n    {\n        return RequestLib.validate(\n            [\n                msg.sender,      // meta.createdBy\n                _addressArgs[0],  // meta.owner\n                _addressArgs[1],  // paymentData.feeRecipient\n                _addressArgs[2]   // txnData.toAddress\n            ],\n            _uintArgs,\n            _callData,\n            _endowment\n        );\n    }\n\n    /// Mapping to hold known requests.\n    mapping (address => bool) requests;\n\n    function isKnownRequest(address _address)\n        public view returns (bool isKnown)\n    {\n        return requests[_address];\n    }\n}\n",
  "sourcePath": "/Users/piotrkosinski/Projects/eac/contracts/RequestFactory.sol",
  "compiler": {
    "name": "solc",
    "version": "0.4.19+commit.c4cbbb05.Emscripten.clang"
  },
  "schemaVersion": "1.0.1",
  "updatedAt": "2018-02-23T08:52:28.828Z"
}