{
  "contractName": "RequestLib",
  "abi": [
    {
      "anonymous": false,
      "inputs": [
        {
          "indexed": false,
          "name": "reason",
          "type": "uint8"
        }
      ],
      "name": "Aborted",
      "type": "event"
    },
    {
      "anonymous": false,
      "inputs": [
        {
          "indexed": false,
          "name": "rewardPayment",
          "type": "uint256"
        },
        {
          "indexed": false,
          "name": "measuredGasConsumption",
          "type": "uint256"
        }
      ],
      "name": "Cancelled",
      "type": "event"
    },
    {
      "anonymous": false,
      "inputs": [],
      "name": "Claimed",
      "type": "event"
    },
    {
      "anonymous": false,
      "inputs": [
        {
          "indexed": false,
          "name": "bounty",
          "type": "uint256"
        },
        {
          "indexed": false,
          "name": "fee",
          "type": "uint256"
        },
        {
          "indexed": false,
          "name": "measuredGasConsumption",
          "type": "uint256"
        }
      ],
      "name": "Executed",
      "type": "event"
    },
    {
      "constant": true,
      "inputs": [
        {
          "name": "_addressArgs",
          "type": "address[4]"
        },
        {
          "name": "_uintArgs",
          "type": "uint256[12]"
        },
        {
          "name": "_callData",
          "type": "bytes"
        },
        {
          "name": "_endowment",
          "type": "uint256"
        }
      ],
      "name": "validate",
      "outputs": [
        {
          "name": "isValid",
          "type": "bool[6]"
        }
      ],
      "payable": false,
      "stateMutability": "view",
      "type": "function"
    },
    {
      "constant": false,
      "inputs": [
        {
          "name": "self",
          "type": "RequestLib.Request storage"
        },
        {
          "name": "_addressArgs",
          "type": "address[4]"
        },
        {
          "name": "_uintArgs",
          "type": "uint256[12]"
        },
        {
          "name": "_callData",
          "type": "bytes"
        }
      ],
      "name": "initialize",
      "outputs": [
        {
          "name": "initialized",
          "type": "bool"
        }
      ],
      "payable": false,
      "stateMutability": "nonpayable",
      "type": "function"
    },
    {
      "constant": true,
      "inputs": [],
      "name": "PRE_EXECUTION_GAS",
      "outputs": [
        {
          "name": "",
          "type": "uint256"
        }
      ],
      "payable": false,
      "stateMutability": "pure",
      "type": "function"
    },
    {
      "constant": true,
      "inputs": [
        {
          "name": "self",
          "type": "RequestLib.Request storage"
        }
      ],
      "name": "requiredExecutionGas",
      "outputs": [
        {
          "name": "requiredGas",
          "type": "uint256"
        }
      ],
      "payable": false,
      "stateMutability": "view",
      "type": "function"
    },
    {
      "constant": true,
      "inputs": [],
      "name": "EXECUTION_GAS_OVERHEAD",
      "outputs": [
        {
          "name": "",
          "type": "uint256"
        }
      ],
      "payable": false,
      "stateMutability": "pure",
      "type": "function"
    },
    {
      "constant": true,
      "inputs": [],
      "name": "EXECUTE_EXTRA_GAS",
      "outputs": [
        {
          "name": "",
          "type": "uint256"
        }
      ],
      "payable": false,
      "stateMutability": "pure",
      "type": "function"
    },
    {
      "constant": true,
      "inputs": [],
      "name": "CANCEL_EXTRA_GAS",
      "outputs": [
        {
          "name": "",
          "type": "uint256"
        }
      ],
      "payable": false,
      "stateMutability": "pure",
      "type": "function"
    },
    {
      "constant": false,
      "inputs": [
        {
          "name": "self",
          "type": "RequestLib.Request storage"
        }
      ],
      "name": "cancel",
      "outputs": [
        {
          "name": "",
          "type": "bool"
        }
      ],
      "payable": false,
      "stateMutability": "nonpayable",
      "type": "function"
    },
    {
      "constant": false,
      "inputs": [
        {
          "name": "self",
          "type": "RequestLib.Request storage"
        }
      ],
      "name": "refundClaimDeposit",
      "outputs": [
        {
          "name": "",
          "type": "bool"
        }
      ],
      "payable": false,
      "stateMutability": "nonpayable",
      "type": "function"
    },
    {
      "constant": false,
      "inputs": [
        {
          "name": "self",
          "type": "RequestLib.Request storage"
        }
      ],
      "name": "sendFee",
      "outputs": [
        {
          "name": "",
          "type": "bool"
        }
      ],
      "payable": false,
      "stateMutability": "nonpayable",
      "type": "function"
    },
    {
      "constant": false,
      "inputs": [
        {
          "name": "self",
          "type": "RequestLib.Request storage"
        }
      ],
      "name": "sendBounty",
      "outputs": [
        {
          "name": "",
          "type": "bool"
        }
      ],
      "payable": false,
      "stateMutability": "nonpayable",
      "type": "function"
    },
    {
      "constant": false,
      "inputs": [
        {
          "name": "self",
          "type": "RequestLib.Request storage"
        }
      ],
      "name": "sendOwnerEther",
      "outputs": [
        {
          "name": "",
          "type": "bool"
        }
      ],
      "payable": false,
      "stateMutability": "nonpayable",
      "type": "function"
    }
  ],
  "bytecode": "0x6060604052341561000f57600080fd5b6122168061001e6000396000f3006060604052600436106100ba576000357c0100000000000000000000000000000000000000000000000000000000900463ffffffff168063067199bc146100bf5780631d49e081146100eb57806332839d98146101095780634074b91c1461013957806345104b161461016957806363351d69146101875780637994549a146102775780638c5bebf2146102a7578063ab3b2e8114610373578063d2531590146103a3578063d96d7ea2146103c1578063f925a7d6146103df575b600080fd5b6100d5600480803590602001909190505061040f565b6040518082815260200191505060405180910390f35b6100f3610435565b6040518082815260200191505060405180910390f35b61011f6004808035906020019091905050610440565b604051808215151515815260200191505060405180910390f35b61014f600480803590602001909190505061062c565b604051808215151515815260200191505060405180910390f35b610171610675565b6040518082815260200191505060405180910390f35b6102396004808060800190600480602002604051908101604052809291908260046020028082843782019150505050509190806101800190600c806020026040519081016040528092919082600c6020028082843782019150505050509190803590602001908201803590602001908080601f01602080910402602001604051908101604052809392919081815260200183838082843782019150505050505091908035906020019091905050610680565b6040518082600660200280838360005b83811015610264578082015181840152602081019050610249565b5050505090500191505060405180910390f35b61028d6004808035906020019091905050610ef5565b604051808215151515815260200191505060405180910390f35b6103596004808035906020019091908060800190600480602002604051908101604052809291908260046020028082843782019150505050509190806101800190600c806020026040519081016040528092919082600c6020028082843782019150505050509190803590602001908201803590602001908080601f01602080910402602001604051908101604052809392919081815260200183838082843782019150505050505091905050610f3d565b604051808215151515815260200191505060405180910390f35b6103896004808035906020019091905050611273565b604051808215151515815260200191505060405180910390f35b6103ab6112a3565b6040518082815260200191505060405180910390f35b6103c96112ae565b6040518082815260200191505060405180910390f35b6103f560048080359060200190919050506112b8565b604051808215151515815260200191505060405180910390f35b600061042e6202bf2083600001600301546112e890919063ffffffff16565b9050919050565b600062015f90905090565b6000806000806000805a945061045587611309565b151561046057600080fd5b60018760050160010160146101000a81548160ff02191690831515021790555061048c87600d016113fd565b151561049757600080fd5b8660050160000160009054906101000a900473ffffffffffffffffffffffffffffffffffffffff1673ffffffffffffffffffffffffffffffffffffffff163373ffffffffffffffffffffffffffffffffffffffff161415156105d85733915061052a6105146064896007016000015461148990919063ffffffff16565b88600701600201546112e890919063ffffffff16565b905061055462014c086105465a886114a490919063ffffffff16565b6112e890919063ffffffff16565b925061057b8161056d3a866114c090919063ffffffff16565b6112e890919063ffffffff16565b905080935060008111156105d757600087600701600201819055508173ffffffffffffffffffffffffffffffffffffffff166108fc829081150290604051600060405180830381858888f1935050505015156105d657600080fd5b5b5b7fa761582a460180d55522f9f5fdc076390a1f48a7a62a8afbd45c1bb797948edb8484604051808381526020018281526020019250505060405180910390a16106208761062c565b95505050505050919050565b60008160050160010160149054906101000a900460ff16806106565750610655826011016114f6565b5b1561066b5761066482611512565b9050610670565b600090505b919050565b60006202bf20905090565b610688611d5c565b610690611d86565b83816000015160200181905250600081606001516000019073ffffffffffffffffffffffffffffffffffffffff16908173ffffffffffffffffffffffffffffffffffffffff16815250508560006004811015156106e957fe5b602002015181602001516020019073ffffffffffffffffffffffffffffffffffffffff16908173ffffffffffffffffffffffffffffffffffffffff168152505085600160048110151561073857fe5b602002015181602001516000019073ffffffffffffffffffffffffffffffffffffffff16908173ffffffffffffffffffffffffffffffffffffffff168152505085600260048110151561078757fe5b602002015181604001516080019073ffffffffffffffffffffffffffffffffffffffff16908173ffffffffffffffffffffffffffffffffffffffff1681525050600081604001516020019073ffffffffffffffffffffffffffffffffffffffff16908173ffffffffffffffffffffffffffffffffffffffff168152505085600360048110151561081357fe5b602002015181600001516000019073ffffffffffffffffffffffffffffffffffffffff16908173ffffffffffffffffffffffffffffffffffffffff1681525050600081602001516040019015159081151581525050600081602001516060019015159081151581525050600081602001516080019015159081151581525050600081606001516020018181525050846000600c811015156108b057fe5b602002015181604001516060018181525050846001600c811015156108d157fe5b6020020151816040015160000181815250506000816040015160a0018181525050600081604001516040018181525050846002600c8110151561091057fe5b6020020151816080015160a0018181525050846003600c8110151561093157fe5b602002015181608001516060018181525050846004600c8110151561095257fe5b60200201518160800151608001818152505073__MathLib_______________________________637ae2b5c7866005600c8110151561098d57fe5b602002015160026000604051602001526040518363ffffffff167c0100000000000000000000000000000000000000000000000000000000028152600401808381526020018281526020019250505060206040518083038186803b15156109f357600080fd5b6102c65a03f41515610a0457600080fd5b505050604051805190506002811115610a1957fe5b8160800151600001906002811115610a2d57fe5b90816002811115610a3a57fe5b81525050846006600c81101515610a4d57fe5b602002015181608001516040018181525050846007600c81101515610a6e57fe5b602002015181608001516020018181525050846008600c81101515610a8f57fe5b602002015181600001516060018181525050846009600c81101515610ab057fe5b60200201518160000151604001818152505084600a600c81101515610ad157fe5b60200201518160000151608001818152505084600b600c81101515610af257fe5b602002015181606001516040018181525050600081606001516060019060ff16908160ff168152505073__PaymentLib____________________________6327960c5f848360400151600001518460400151606001518560000151606001518660000151604001518760000151608001516202bf206000604051602001526040518863ffffffff167c01000000000000000000000000000000000000000000000000000000000281526004018088815260200187815260200186815260200185815260200184815260200183815260200182815260200197505050505050505060206040518083038186803b1515610be957600080fd5b6102c65a03f41515610bfa57600080fd5b50505060405180519050826000600681101515610c1357fe5b60200201901515908115158152505073__RequestScheduleLib____________________631a26ed1c8260800151608001518360800151604001516000604051602001526040518363ffffffff167c0100000000000000000000000000000000000000000000000000000000028152600401808381526020018281526020019250505060206040518083038186803b1515610cad57600080fd5b6102c65a03f41515610cbe57600080fd5b50505060405180519050826001600681101515610cd757fe5b60200201901515908115158152505073__RequestScheduleLib____________________632e898ddc866005600c81101515610d0f57fe5b60200201516000604051602001526040518263ffffffff167c01000000000000000000000000000000000000000000000000000000000281526004018082815260200191505060206040518083038186803b1515610d6c57600080fd5b6102c65a03f41515610d7d57600080fd5b50505060405180519050826002600681101515610d9657fe5b60200201901515908115158152505073__RequestScheduleLib____________________633c57ec9c8260800151600001518360800151606001518460800151602001516000604051602001526040518463ffffffff167c010000000000000000000000000000000000000000000000000000000002815260040180846002811115610e1e57fe5b60ff168152602001838152602001828152602001935050505060206040518083038186803b1515610e4e57600080fd5b6102c65a03f41515610e5f57600080fd5b50505060405180519050826003600681101515610e7857fe5b602002019015159081151581525050610e9c8160000151606001516202bf206115de565b826004600681101515610eab57fe5b602002019015159081151581525050610ecb8160000151600001516115f3565b826005600681101515610eda57fe5b60200201901515908115158152505081915050949350505050565b60008160050160010160149054906101000a900460ff1680610f1f5750610f1e826011016114f6565b5b1515610f2a57600080fd5b610f3682600d016113fd565b9050919050565b6000610f47611de2565b610f4f611e20565b610f57611e4a565b610f5f611e73565b60c060405190810160405280600073ffffffffffffffffffffffffffffffffffffffff168152602001896000600481101515610f9757fe5b602002015173ffffffffffffffffffffffffffffffffffffffff1673ffffffffffffffffffffffffffffffffffffffff168152602001896001600481101515610fdc57fe5b602002015173ffffffffffffffffffffffffffffffffffffffff1673ffffffffffffffffffffffffffffffffffffffff16815260200189600260048110151561102157fe5b602002015173ffffffffffffffffffffffffffffffffffffffff1673ffffffffffffffffffffffffffffffffffffffff168152602001600073ffffffffffffffffffffffffffffffffffffffff16815260200189600360048110151561108357fe5b602002015173ffffffffffffffffffffffffffffffffffffffff1673ffffffffffffffffffffffffffffffffffffffff1681525093506060604051908101604052806000151515158152602001600015151515815260200160001515151581525092506101e06040519081016040528060008152602001886000600c8110151561110957fe5b6020020151815260200160008152602001886001600c8110151561112957fe5b6020020151815260200160008152602001886002600c8110151561114957fe5b60200201518152602001886003600c8110151561116257fe5b60200201518152602001886004600c8110151561117b57fe5b60200201518152602001886005600c8110151561119457fe5b60200201518152602001886006600c811015156111ad57fe5b60200201518152602001886007600c811015156111c657fe5b60200201518152602001886008600c811015156111df57fe5b60200201518152602001886009600c811015156111f857fe5b6020020151815260200188600a600c8110151561121157fe5b6020020151815260200188600b600c8110151561122a57fe5b60200201518152509150602060405190810160405280600060ff16815250905061125889858585858b611616565b151561126357600080fd5b6001945050505050949350505050565b6000611281826011016114f6565b156112995761129282600701611b19565b905061129e565b600090505b919050565b600062014c08905090565b60006161a8905090565b60006112c6826011016114f6565b156112de576112d782600701611ba1565b90506112e3565b600090505b919050565b60008082840190508381101515156112ff57600080fd5b8091505092915050565b60008160050160010160149054906101000a900460ff161561132e57600090506113f8565b8160050160010160159054906101000a900460ff161580156113585750611357826011016114f6565b5b1561136657600190506113f8565b61137282600d01611c29565b158015611387575061138682601101611c70565b5b80156113e557508160050160000160009054906101000a900473ffffffffffffffffffffffffffffffffffffffff1673ffffffffffffffffffffffffffffffffffffffff163373ffffffffffffffffffffffffffffffffffffffff16145b156113f357600190506113f8565b600090505b919050565b60008060008360010154111561147e5782600101549050600083600101819055508260000160009054906101000a900473ffffffffffffffffffffffffffffffffffffffff1673ffffffffffffffffffffffffffffffffffffffff166108fc829081150290604051600060405180830381858888f193505050509150611483565b600191505b50919050565b600080828481151561149757fe5b0490508091505092915050565b60008282111515156114b557600080fd5b818303905092915050565b600080828402905060008414806114e157508284828115156114de57fe5b04145b15156114ec57600080fd5b8091505092915050565b600061150182611c8c565b61150a83611cb0565b119050919050565b600080611578836007016005015461156a856007016002015461155c87600d01600101543073ffffffffffffffffffffffffffffffffffffffff16316114a490919063ffffffff16565b6114a490919063ffffffff16565b6114a490919063ffffffff16565b90508260050160000160009054906101000a900473ffffffffffffffffffffffffffffffffffffffff1673ffffffffffffffffffffffffffffffffffffffff166108fc829081150290604051600060405180830381858888f19350505050915050919050565b60006115e982611cd3565b8310905092915050565b6000808273ffffffffffffffffffffffffffffffffffffffff1614159050919050565b600081876000016001019080519060200190611633929190611e9e565b5085600060068110151561164357fe5b602002015187600d0160000160006101000a81548173ffffffffffffffffffffffffffffffffffffffff021916908373ffffffffffffffffffffffffffffffffffffffff16021790555085600160068110151561169c57fe5b60200201518760050160010160006101000a81548173ffffffffffffffffffffffffffffffffffffffff021916908373ffffffffffffffffffffffffffffffffffffffff1602179055508560026006811015156116f557fe5b60200201518760050160000160006101000a81548173ffffffffffffffffffffffffffffffffffffffff021916908373ffffffffffffffffffffffffffffffffffffffff16021790555085600360068110151561174e57fe5b60200201518760070160040160006101000a81548173ffffffffffffffffffffffffffffffffffffffff021916908373ffffffffffffffffffffffffffffffffffffffff1602179055508560046006811015156117a757fe5b60200201518760070160010160006101000a81548173ffffffffffffffffffffffffffffffffffffffff021916908373ffffffffffffffffffffffffffffffffffffffff16021790555085600560068110151561180057fe5b60200201518760000160000160006101000a81548173ffffffffffffffffffffffffffffffffffffffff021916908373ffffffffffffffffffffffffffffffffffffffff16021790555084600060038110151561185957fe5b60200201518760050160010160146101000a81548160ff02191690831515021790555084600160038110151561188b57fe5b60200201518760050160010160156101000a81548160ff0219169083151502179055508460026003811015156118bd57fe5b60200201518760050160010160166101000a81548160ff021916908315150217905550836000600f811015156118ef57fe5b602002015187600d0160010181905550836001600f8110151561190e57fe5b60200201518760070160030181905550836002600f8110151561192d57fe5b60200201518760070160050181905550836003600f8110151561194c57fe5b60200201518760070160000181905550836004600f8110151561196b57fe5b60200201518760070160020181905550836005600f8110151561198a57fe5b60200201518760110160050181905550836006600f811015156119a957fe5b60200201518760110160030181905550836007600f811015156119c857fe5b60200201518760110160040181905550836008600f811015156119e757fe5b602002015160028111156119f757fe5b8760110160000160006101000a81548160ff02191690836002811115611a1957fe5b0217905550836009600f81101515611a2d57fe5b6020020151876011016002018190555083600a600f81101515611a4c57fe5b6020020151876011016001018190555083600b600f81101515611a6b57fe5b6020020151876000016003018190555083600c600f81101515611a8a57fe5b6020020151876000016002018190555083600d600f81101515611aa957fe5b6020020151876000016004018190555083600e600f81101515611ac857fe5b602002015187600d0160020181905550826000600181101515611ae757fe5b602002015187600d0160030160006101000a81548160ff021916908360ff160217905550600190509695505050505050565b600080826002015490506000811115611b9657600083600201819055508260010160009054906101000a900473ffffffffffffffffffffffffffffffffffffffff1673ffffffffffffffffffffffffffffffffffffffff166108fc829081150290604051600060405180830381858888f193505050509150611b9b565b600191505b50919050565b600080826005015490506000811115611c1e57600083600501819055508260040160009054906101000a900473ffffffffffffffffffffffffffffffffffffffff1673ffffffffffffffffffffffffffffffffffffffff166108fc829081150290604051600060405180830381858888f193505050509150611c23565b600191505b50919050565b6000808260000160009054906101000a900473ffffffffffffffffffffffffffffffffffffffff1673ffffffffffffffffffffffffffffffffffffffff1614159050919050565b6000611c7b82611cdf565b611c8483611cb0565b109050919050565b6000611ca9826002015483600101546112e890919063ffffffff16565b9050919050565b6000611ccc8260000160009054906101000a900460ff16611d03565b9050919050565b60008145039050919050565b6000611cfc826003015483600101546114a490919063ffffffff16565b9050919050565b6000600280811115611d1157fe5b826002811115611d1d57fe5b1415611d2b57429050611d57565b60016002811115611d3857fe5b826002811115611d4457fe5b1415611d5257439050611d57565b600080fd5b919050565b60c0604051908101604052806006905b60001515815260200190600190039081611d6c5790505090565b61066060405190810160405280611d9b611f1e565b8152602001611da8611f6a565b8152602001611db5611fcc565b8152602001611dc261202f565b8152602001611dcf612071565b8152602001611ddc6120b3565b81525090565b60c0604051908101604052806006905b600073ffffffffffffffffffffffffffffffffffffffff16815260200190600190039081611df25790505090565b6060604051908101604052806003905b60001515815260200190600190039081611e305790505090565b6101e060405190810160405280600f905b6000815260200190600190039081611e5b5790505090565b6020604051908101604052806001905b600060ff16815260200190600190039081611e835790505090565b828054600181600116156101000203166002900490600052602060002090601f016020900481019282601f10611edf57805160ff1916838001178555611f0d565b82800160010185558215611f0d579182015b82811115611f0c578251825591602001919060010190611ef1565b5b509050611f1a91906120f5565b5090565b60a060405190810160405280600073ffffffffffffffffffffffffffffffffffffffff168152602001611f4f61211a565b81526020016000815260200160008152602001600081525090565b60a060405190810160405280600073ffffffffffffffffffffffffffffffffffffffff168152602001600073ffffffffffffffffffffffffffffffffffffffff1681526020016000151581526020016000151581526020016000151581525090565b60c06040519081016040528060008152602001600073ffffffffffffffffffffffffffffffffffffffff1681526020016000815260200160008152602001600073ffffffffffffffffffffffffffffffffffffffff168152602001600081525090565b608060405190810160405280600073ffffffffffffffffffffffffffffffffffffffff1681526020016000815260200160008152602001600060ff1681525090565b60c0604051908101604052806000600281111561208a57fe5b815260200160008152602001600081526020016000815260200160008152602001600081525090565b610320604051908101604052806120c861212e565b81526020016120d561216c565b81526020016120e2612196565b81526020016120ef6121bf565b81525090565b61211791905b808211156121135760008160009055506001016120fb565b5090565b90565b602060405190810160405280600081525090565b60c0604051908101604052806006905b600073ffffffffffffffffffffffffffffffffffffffff1681526020019060019003908161213e5790505090565b6060604051908101604052806003905b6000151581526020019060019003908161217c5790505090565b6101e060405190810160405280600f905b60008152602001906001900390816121a75790505090565b6020604051908101604052806001905b600060ff168152602001906001900390816121cf57905050905600a165627a7a723058206d5a7911e8f7fbc7400d85d8a65642b7244e1d37db711c5a216916e41fba426f0029",
  "source": "pragma solidity 0.4.19;\n\nimport \"contracts/Library/ClaimLib.sol\";\nimport \"contracts/Library/ExecutionLib.sol\";\nimport \"contracts/Library/PaymentLib.sol\";\nimport \"contracts/Library/RequestMetaLib.sol\";\nimport \"contracts/Library/RequestScheduleLib.sol\";\n\nimport \"contracts/Library/MathLib.sol\";\nimport \"contracts/zeppelin/SafeMath.sol\";\n\nlibrary RequestLib {\n    using ClaimLib for ClaimLib.ClaimData;\n    using ExecutionLib for ExecutionLib.ExecutionData;\n    using PaymentLib for PaymentLib.PaymentData;\n    using RequestMetaLib for RequestMetaLib.RequestMeta;\n    using RequestScheduleLib for RequestScheduleLib.ExecutionWindow;\n    using SafeMath for uint;\n\n    /*\n     *  This struct exists to circumvent an issue with returning multiple\n     *  values from a library function.  I found through experimentation that I\n     *  could not return more than 4 things from a library function, even if I\n     *  put them in arrays. - Piper\n     */\n    struct SerializedRequest {\n        address[6]  addressValues;\n        bool[3]     boolValues;\n        uint[15]    uintValues;\n        uint8[1]    uint8Values;\n    }\n\n    struct Request {\n        ExecutionLib.ExecutionData          txnData;\n        RequestMetaLib.RequestMeta          meta;\n        PaymentLib.PaymentData              paymentData;\n        ClaimLib.ClaimData                  claimData;\n        RequestScheduleLib.ExecutionWindow  schedule;\n        SerializedRequest                   serializedValues;\n    }\n\n    enum AbortReason {\n        WasCancelled,       //0\n        AlreadyCalled,      //1\n        BeforeCallWindow,   //2\n        AfterCallWindow,    //3\n        ReservedForClaimer, //4\n        InsufficientGas,    //5\n        MismatchGasPrice    //6\n    }\n\n    event Aborted(uint8 reason);\n    event Cancelled(uint rewardPayment, uint measuredGasConsumption);\n    event Claimed();\n    event Executed(uint bounty, uint fee, uint measuredGasConsumption);\n\n    /**\n     * @dev Validate the initialization parameters of a transaction request.\n     */\n    function validate(\n        address[4]  _addressArgs,\n        uint[12]    _uintArgs,\n        bytes       _callData,\n        uint        _endowment\n    ) \n        public view returns (bool[6] isValid)\n    {\n        Request memory request;\n\n        // callData is special.\n        request.txnData.callData = _callData;\n\n        // Address values\n        request.claimData.claimedBy =               0x0;\n        request.meta.createdBy =                    _addressArgs[0];\n        request.meta.owner =                        _addressArgs[1];\n        request.paymentData.feeRecipient =          _addressArgs[2];\n        request.paymentData.bountyBenefactor =      0x0;\n        request.txnData.toAddress =                 _addressArgs[3];\n\n        // Boolean values\n        request.meta.isCancelled =      false;\n        request.meta.wasCalled =        false;\n        request.meta.wasSuccessful =    false;\n\n        // UInt values\n        request.claimData.claimDeposit =        0;\n        request.paymentData.fee =               _uintArgs[0];\n        request.paymentData.bounty =            _uintArgs[1];\n        request.paymentData.feeOwed =           0;\n        request.paymentData.bountyOwed =        0;\n        request.schedule.claimWindowSize =      _uintArgs[2];\n        request.schedule.freezePeriod =         _uintArgs[3];\n        request.schedule.reservedWindowSize =   _uintArgs[4];\n        // This must be capped at 1 or it throws an exception.\n        request.schedule.temporalUnit =         RequestScheduleLib.TemporalUnit(MathLib.min(_uintArgs[5], 2));\n        request.schedule.windowSize =           _uintArgs[6];\n        request.schedule.windowStart =          _uintArgs[7];\n        request.txnData.callGas =               _uintArgs[8];\n        request.txnData.callValue =             _uintArgs[9];\n        request.txnData.gasPrice =              _uintArgs[10];\n        request.claimData.requiredDeposit =     _uintArgs[11];\n\n        // Uint8 values\n        request.claimData.paymentModifier = 0;\n\n        // The order of these errors matters as it determines which\n        // ValidationError event codes are logged when validation fails.\n        isValid[0] = PaymentLib.validateEndowment(\n            _endowment,\n            request.paymentData.bounty,\n            request.paymentData.fee,\n            request.txnData.callGas,\n            request.txnData.callValue,\n            request.txnData.gasPrice,\n            _EXECUTION_GAS_OVERHEAD\n        );\n        isValid[1] = RequestScheduleLib.validateReservedWindowSize(\n            request.schedule.reservedWindowSize,\n            request.schedule.windowSize\n        );\n        isValid[2] = RequestScheduleLib.validateTemporalUnit(_uintArgs[5]);\n        isValid[3] = RequestScheduleLib.validateWindowStart(\n            request.schedule.temporalUnit,\n            request.schedule.freezePeriod,\n            request.schedule.windowStart\n        );\n        isValid[4] = ExecutionLib.validateCallGas(\n            request.txnData.callGas,\n            _EXECUTION_GAS_OVERHEAD\n        );\n        isValid[5] = ExecutionLib.validateToAddress(request.txnData.toAddress);\n\n        return isValid;\n    }\n\n    /**\n     * @dev Initialize a new Request.\n     */\n    function initialize(\n        Request storage self,\n        address[4]      _addressArgs,\n        uint[12]        _uintArgs,\n        bytes           _callData\n    ) \n        public returns (bool initialized)\n    {\n        address[6] memory addressValues = [\n            0x0,                // self.claimData.claimedBy\n            _addressArgs[0],    // self.meta.createdBy\n            _addressArgs[1],    // self.meta.owner\n            _addressArgs[2],    // self.paymentData.feeRecipient\n            0x0,                // self.paymentData.bountyBenefactor\n            _addressArgs[3]     // self.txnData.toAddress\n        ];\n\n        bool[3] memory boolValues = [false, false, false];\n\n        uint[15] memory uintValues = [\n            0,                  // self.claimData.claimDeposit\n            _uintArgs[0],       // self.paymentData.fee\n            0,                  // self.paymentData.feeOwed\n            _uintArgs[1],       // self.paymentData.bounty\n            0,                  // self.paymentData.bountyOwed\n            _uintArgs[2],       // self.schedule.claimWindowSize\n            _uintArgs[3],       // self.schedule.freezePeriod\n            _uintArgs[4],       // self.schedule.reservedWindowSize\n            _uintArgs[5],       // self.schedule.temporalUnit\n            _uintArgs[6],       // self.schedule.windowSize\n            _uintArgs[7],       // self.schedule.windowStart\n            _uintArgs[8],       // self.txnData.callGas\n            _uintArgs[9],       // self.txnData.callValue\n            _uintArgs[10],      // self.txnData.gasPrice\n            _uintArgs[11]       // self.claimData.requiredDeposit\n        ];\n\n        uint8[1] memory uint8Values = [\n            0\n        ];\n\n        require( deserialize(self, addressValues, boolValues, uintValues, uint8Values, _callData) );\n\n        return true;\n    }\n\n    /*\n     *  Returns the entire data structure of the Request in a *serialized*\n     *  format.  This will be missing the `callData` which must be requested\n     *  separately\n     *\n     *  Parameter order is alphabetical by type, then namespace, then name\n     *\n     *  NOTE: This exists because of an issue I ran into related to returning\n     *  multiple values from a library function.  I found through\n     *  experimentation that I was unable to return more than 4 things, even if\n     *  I used the trick of returning arrays of items.\n     */\n    function serialize(Request storage self) \n        internal returns (bool serialized)\n    {\n        // Address values\n        self.serializedValues.addressValues[0] = self.claimData.claimedBy;\n        self.serializedValues.addressValues[1] = self.meta.createdBy;\n        self.serializedValues.addressValues[2] = self.meta.owner;\n        self.serializedValues.addressValues[3] = self.paymentData.feeRecipient;\n        self.serializedValues.addressValues[4] = self.paymentData.bountyBenefactor;\n        self.serializedValues.addressValues[5] = self.txnData.toAddress;\n\n        // Boolean values\n        self.serializedValues.boolValues[0] = self.meta.isCancelled;\n        self.serializedValues.boolValues[1] = self.meta.wasCalled;\n        self.serializedValues.boolValues[2] = self.meta.wasSuccessful;\n\n        // UInt256 values\n        self.serializedValues.uintValues[0] = self.claimData.claimDeposit;\n        self.serializedValues.uintValues[1] = self.paymentData.fee;\n        self.serializedValues.uintValues[2] = self.paymentData.feeOwed;\n        self.serializedValues.uintValues[3] = self.paymentData.bounty;\n        self.serializedValues.uintValues[4] = self.paymentData.bountyOwed;\n        self.serializedValues.uintValues[5] = self.schedule.claimWindowSize;\n        self.serializedValues.uintValues[6] = self.schedule.freezePeriod;\n        self.serializedValues.uintValues[7] = self.schedule.reservedWindowSize;\n        self.serializedValues.uintValues[8] = uint(self.schedule.temporalUnit);\n        self.serializedValues.uintValues[9] = self.schedule.windowSize;\n        self.serializedValues.uintValues[10] = self.schedule.windowStart;\n        self.serializedValues.uintValues[11] = self.txnData.callGas;\n        self.serializedValues.uintValues[12] = self.txnData.callValue;\n        self.serializedValues.uintValues[13] = self.txnData.gasPrice;\n        self.serializedValues.uintValues[14] = self.claimData.requiredDeposit;\n\n        // Uint8 values\n        self.serializedValues.uint8Values[0] = self.claimData.paymentModifier;\n\n        return true;\n    }\n\n    /**\n     * @dev Populates a Request object from the full output of `serialize`.\n     *\n     *  Parameter order is alphabetical by type, then namespace, then name.\n     */\n    function deserialize(\n        Request storage self,\n        address[6]  _addressValues,\n        bool[3]     _boolValues,\n        uint[15]    _uintValues,\n        uint8[1]    _uint8Values,\n        bytes       _callData\n    )\n        internal returns (bool deserialized)\n    {\n        // callData is special.\n        self.txnData.callData = _callData;\n\n        // Address values\n        self.claimData.claimedBy =              _addressValues[0];\n        self.meta.createdBy =                   _addressValues[1];\n        self.meta.owner =                       _addressValues[2];\n        self.paymentData.feeRecipient =         _addressValues[3];\n        self.paymentData.bountyBenefactor =     _addressValues[4];\n        self.txnData.toAddress =                _addressValues[5];\n\n        // Boolean values\n        self.meta.isCancelled =     _boolValues[0];\n        self.meta.wasCalled =       _boolValues[1];\n        self.meta.wasSuccessful =   _boolValues[2];\n\n        // UInt values\n        self.claimData.claimDeposit =       _uintValues[0];\n        self.paymentData.fee =              _uintValues[1];\n        self.paymentData.feeOwed =          _uintValues[2];\n        self.paymentData.bounty =           _uintValues[3];\n        self.paymentData.bountyOwed =       _uintValues[4];\n        self.schedule.claimWindowSize =     _uintValues[5];\n        self.schedule.freezePeriod =        _uintValues[6];\n        self.schedule.reservedWindowSize =  _uintValues[7];\n        self.schedule.temporalUnit =        RequestScheduleLib.TemporalUnit(_uintValues[8]);\n        self.schedule.windowSize =          _uintValues[9];\n        self.schedule.windowStart =         _uintValues[10];\n        self.txnData.callGas =              _uintValues[11];\n        self.txnData.callValue =            _uintValues[12];\n        self.txnData.gasPrice =             _uintValues[13];\n        self.claimData.requiredDeposit =    _uintValues[14];\n\n        // Uint8 values\n        self.claimData.paymentModifier = _uint8Values[0];\n\n        deserialized = true;\n    }\n\n    function execute(Request storage self) \n        internal returns (bool)\n    {\n        /*\n         *  Execute the TransactionRequest\n         *\n         *  +---------------------+\n         *  | Phase 1: Validation |\n         *  +---------------------+\n         *\n         *  Must pass all of the following checks:\n         *\n         *  1. Not already called.\n         *  2. Not cancelled.\n         *  3. Not before the execution window.\n         *  4. Not after the execution window.\n         *  5. if (claimedBy == 0x0 or msg.sender == claimedBy):\n         *         - windowStart <= block.number\n         *         - block.number <= windowStart + windowSize\n         *     else if (msg.sender != claimedBy):\n         *         - windowStart + reservedWindowSize <= block.number\n         *         - block.number <= windowStart + windowSize\n         *     else:\n         *         - throw (should be impossible)\n         *  \n         *  6. msg.gas == callGas\n         *\n         *  +--------------------+\n         *  | Phase 2: Execution |\n         *  +--------------------+\n         *\n         *  1. Mark as called (must be before actual execution to prevent\n         *     re-entrance)\n         *  2. Send Transaction and record success or failure.\n         *\n         *  +---------------------+\n         *  | Phase 3: Accounting |\n         *  +---------------------+\n         *\n         *  1. Calculate and send fee amount.\n         *  2. Calculate and send bounty amount.\n         *  3. Send remaining ether back to owner.\n         *\n         */\n\n        // Record the gas at the beginning of the transaction so we can\n        // calculate how much has been used later.\n        uint startGas = msg.gas;\n\n        // +----------------------+\n        // | Begin: Authorization |\n        // +----------------------+\n\n        if (msg.gas < requiredExecutionGas(self).sub(_PRE_EXECUTION_GAS)) {\n            Aborted(uint8(AbortReason.InsufficientGas));\n            return false;\n        } else if (self.meta.wasCalled) {\n            Aborted(uint8(AbortReason.AlreadyCalled));\n            return false;\n        } else if (self.meta.isCancelled) {\n            Aborted(uint8(AbortReason.WasCancelled));\n            return false;\n        } else if (self.schedule.isBeforeWindow()) {\n            Aborted(uint8(AbortReason.BeforeCallWindow));\n            return false;\n        } else if (self.schedule.isAfterWindow()) {\n            Aborted(uint8(AbortReason.AfterCallWindow));\n            return false;\n        } else if (self.claimData.isClaimed() &&\n                   msg.sender != self.claimData.claimedBy &&\n                   self.schedule.inReservedWindow()) {\n            Aborted(uint8(AbortReason.ReservedForClaimer));\n            return false;\n        } else if (self.txnData.gasPrice != tx.gasprice) {\n            Aborted(uint8(AbortReason.MismatchGasPrice));\n            return false;\n        }\n\n        // +--------------------+\n        // | End: Authorization |\n        // +--------------------+\n        // +------------------+\n        // | Begin: Execution |\n        // +------------------+\n\n        // Mark as being called before sending transaction to prevent re-entrance.\n        self.meta.wasCalled = true;\n\n        // Send the transaction...\n        // The transaction is allowed to fail and the executing agent will still get the bounty.\n        // `.sendTransaction()` will return false on a failed exeuction. \n        self.meta.wasSuccessful = self.txnData.sendTransaction();\n\n        // +----------------+\n        // | End: Execution |\n        // +----------------+\n        // +-------------------+\n        // | Begin: Accounting |\n        // +-------------------+\n\n        // Compute the fee amount\n        if (self.paymentData.hasFeeRecipient()) {\n            self.paymentData.feeOwed = self.paymentData.getFee()\n                                       .add(self.paymentData.feeOwed);\n        }\n\n        // Record this locally so that we can log it later.\n        // `.sendFee()` below will change `self.paymentData.feeOwed` to 0 to prevent re-entrance.\n        uint totalFeePayment = self.paymentData.feeOwed;\n\n        // Send the fee. This transaction may also fail but can be called again after\n        // execution.\n        self.paymentData.sendFee();\n\n        // Compute the bounty amount.\n        self.paymentData.bountyBenefactor = msg.sender;\n        if (self.claimData.isClaimed()) {\n            // If the transaction request was claimed, we add the deposit to the bounty whether\n            // or not the same agent who claimed is executing.\n            self.paymentData.bountyOwed = self.claimData.claimDeposit\n                                          .add(self.paymentData.bountyOwed);\n            // To prevent re-entrance we zero out the claim deposit since it is now accounted for\n            // in the bounty value.\n            self.claimData.claimDeposit = 0;\n            // Depending on when the transaction request was claimed, we apply the modifier to the\n            // bounty payment and add it to the bounty already owed.\n            self.paymentData.bountyOwed = self.paymentData.getBountyWithModifier(self.claimData.paymentModifier)\n                                          .add(self.paymentData.bountyOwed);\n        } else {\n            // Not claimed. Just add the full bounty.\n            self.paymentData.bountyOwed = self.paymentData.getBounty()\n                                          .add(self.paymentData.bountyOwed);\n        }\n\n        // Take down the amount of gas used so far in execution to compensate the executing agent.\n        uint measuredGasConsumption = startGas\n                                      .sub(msg.gas)\n                                      .add(_EXECUTE_EXTRA_GAS);\n\n        // // +----------------------------------------------------------------------+\n        // // | NOTE: All code after this must be accounted for by EXECUTE_EXTRA_GAS |\n        // // +----------------------------------------------------------------------+\n\n        // Add the gas reimbursment amount to the bounty.\n        self.paymentData.bountyOwed = measuredGasConsumption\n                                      .mul(tx.gasprice)\n                                      .add(self.paymentData.bountyOwed);\n\n        // Log the bounty and fee. Otherwise it is non-trivial to figure\n        // out how much was payed.\n        Executed(self.paymentData.bountyOwed, totalFeePayment, measuredGasConsumption);\n    \n        // Attempt to send the bounty. as with `.sendFee()` it may fail and need to be caled after execution.\n        self.paymentData.sendBounty();\n\n        // If any ether is left, send it back to the owner of the transaction request.\n        _sendOwnerEther(self);\n\n        // +-----------------+\n        // | End: Accounting |\n        // +-----------------+\n        // Successful\n        return true;\n    }\n\n\n    // This is the amount of gas that it takes to enter from the\n    // `TransactionRequest.execute()` contract into the `RequestLib.execute()`\n    // method at the point where the gas check happens.\n    uint private constant _PRE_EXECUTION_GAS = 25000;   // TODO is this number still accurate?\n\n    function PRE_EXECUTION_GAS()\n        public pure returns (uint)\n    {\n        return _PRE_EXECUTION_GAS;\n    }\n\n    function requiredExecutionGas(Request storage self) \n        public view returns (uint requiredGas)\n    {\n        requiredGas = self.txnData.callGas.add(_EXECUTION_GAS_OVERHEAD);\n    }\n\n    /*\n     * The amount of gas needed to complete the execute method after\n     * the transaction has been sent.\n     */\n    uint private constant _EXECUTION_GAS_OVERHEAD = 180000; // TODO check accuracy of this number\n\n    function EXECUTION_GAS_OVERHEAD()\n        public pure returns (uint)\n    {\n        return _EXECUTION_GAS_OVERHEAD;\n    }\n\n    \n    /*\n     *  The amount of gas used by the portion of the `execute` function\n     *  that cannot be accounted for via gas tracking.\n     */\n    uint private constant  _EXECUTE_EXTRA_GAS = 90000; // again, check for accuracy... Doubled this from Piper's original - Logan\n\n    function EXECUTE_EXTRA_GAS() \n        public pure returns (uint)\n    {\n        return _EXECUTE_EXTRA_GAS;\n    }\n\n    /*\n     * @dev Performs the checks to see if a request can be cancelled.\n     *  Must satisfy the following conditions.\n     *\n     *  1. Not Cancelled\n     *  2. either:\n     *    * not wasCalled && afterExecutionWindow\n     *    * not claimed && beforeFreezeWindow && msg.sender == owner\n     */\n    function isCancellable(Request storage self) \n        internal view returns (bool)\n    {\n        if (self.meta.isCancelled) {\n            // already cancelled!\n            return false;\n        } else if (!self.meta.wasCalled && self.schedule.isAfterWindow()) {\n            // not called but after the window\n            return true;\n        } else if (!self.claimData.isClaimed() && self.schedule.isBeforeFreeze() && msg.sender == self.meta.owner) {\n            // not claimed and before freezePeriod and owner is cancelling\n            return true;\n        } else {\n            // otherwise cannot cancel\n            return false;\n        }\n    }\n\n    /*\n     *  Constant value to account for the gas usage that cannot be accounted\n     *  for using gas-tracking within the `cancel` function.\n     */\n    uint private constant _CANCEL_EXTRA_GAS = 85000; // Check accuracy\n\n    function CANCEL_EXTRA_GAS() \n        public pure returns (uint)\n    {\n        return _CANCEL_EXTRA_GAS;\n    }\n\n    /*\n     *  Cancel the transaction request, attempting to send all appropriate\n     *  refunds.  To incentivise cancellation by other parties, a small reward\n     *  payment is issued to the party that cancels the request if they are not\n     *  the owner.\n     */\n    function cancel(Request storage self) \n        public returns (bool)\n    {\n        uint startGas = msg.gas;\n        uint rewardPayment;\n        uint measuredGasConsumption;\n\n        // Checks if this transactionRequest can be cancelled.\n        require( isCancellable(self) );\n\n        // Set here to prevent re-entrance attacks.\n        self.meta.isCancelled = true;\n\n        // Refund the claim deposit (if there is one)\n        require( self.claimData.refundDeposit() );\n\n        // Send a reward to the cancelling agent if they are not the owner.\n        // This is to incentivize the cancelling of expired transaction requests.\n        // This also guarantees that it is being cancelled after the call window\n        // since the `isCancellable()` function checks this.\n        if (msg.sender != self.meta.owner) {\n            // Create the rewardBenefactor\n            address rewardBenefactor = msg.sender;\n            // Create the rewardOwed variable, it is one-hundredth\n            // of the bounty.\n            uint rewardOwed = self.paymentData.bountyOwed\n                              .add(self.paymentData.bounty.div(100));\n\n            // Calculate the amount of gas cancelling agent used in this transaction.\n            measuredGasConsumption = startGas\n                                     .sub(msg.gas)\n                                     .add(_CANCEL_EXTRA_GAS);\n            // Add their gas fees to the reward.\n            rewardOwed = measuredGasConsumption\n                         .mul(tx.gasprice)\n                         .add(rewardOwed);\n\n            // Take note of the rewardPayment to log it.\n            rewardPayment = rewardOwed;\n\n            // Transfers the rewardPayment.\n            if (rewardOwed > 0) {\n                self.paymentData.bountyOwed = 0;\n                rewardBenefactor.transfer(rewardOwed);\n            }\n        }\n\n        // Log it!\n        Cancelled(rewardPayment, measuredGasConsumption);\n\n        // Send the remaining ether to the owner.\n        return sendOwnerEther(self);\n    }\n\n    /*\n     * @dev Performs some checks to verify that a transaction request is claimable.\n     * @param self The Request object.\n     */\n    function isClaimable(Request storage self) \n        internal view returns (bool)\n    {\n        // Require not claimed and not cancelled.\n        require( !self.claimData.isClaimed() );\n        require( !self.meta.isCancelled );\n\n        // Require that it's in the claim window and the value sent is over the required deposit.\n        require( self.schedule.inClaimWindow() );\n        require( msg.value >= self.claimData.requiredDeposit );\n        return true;\n    }\n\n    /*\n     * @dev Claims the request.\n     * @param self The Request object.\n     * Payable because it requires the sender to send enough ether to cover the claimDeposit.\n     */\n    function claim(Request storage self) \n        internal returns (bool claimed)\n    {\n        require( isClaimable(self) );\n\n        self.claimData.claim(self.schedule.computePaymentModifier());\n        Claimed();\n        claimed = true;\n    }\n\n    /*\n     * @dev Refund claimer deposit.\n     */\n    function refundClaimDeposit(Request storage self)\n        public returns (bool)\n    {\n        require( self.meta.isCancelled || self.schedule.isAfterWindow() );\n        return self.claimData.refundDeposit();\n    }\n\n    /*\n     * Send fee. Wrapper over the real function that perform an extra\n     * check to see if it's after the execution window (and thus the first transaction failed)\n     */\n    function sendFee(Request storage self) \n        public returns (bool)\n    {\n        if (self.schedule.isAfterWindow()) {\n            return self.paymentData.sendFee();\n        }\n        return false;\n    }\n\n    /*\n     * Send bounty. Wrapper over the real function that performs an extra\n     * check to see if it's after execution window (and thus the first transaction failed)\n     */\n    function sendBounty(Request storage self) \n        public returns (bool)\n    {\n        /// check wasCalled\n        if (self.schedule.isAfterWindow()) {\n            return self.paymentData.sendBounty();\n        }\n        return false;\n    }\n\n    /**\n     * Send owner ether. Wrapper over the real function that performs an extra \n     * check to see if it's after execution window (and thus the first transaction failed)\n     */\n    function sendOwnerEther(Request storage self)\n        public returns (bool)\n    {\n        if( self.meta.isCancelled || self.schedule.isAfterWindow() ) {\n            return _sendOwnerEther(self);\n        }\n        return false;\n    }\n\n    function _sendOwnerEther(Request storage self) \n        internal returns (bool)\n    {\n        // Note! This does not do any checks since it is used in the execute function.\n        // The public version of the function should be used for checks and in the cancel function.\n        uint ownerRefund = this.balance\n                           .sub(self.claimData.claimDeposit)\n                           .sub(self.paymentData.bountyOwed)\n                           .sub(self.paymentData.feeOwed);\n        return self.meta.owner.send(ownerRefund);\n    }\n}",
  "sourcePath": "contracts/Library/RequestLib.sol",
  "compiler": {
    "name": "solc",
    "version": "0.4.19+commit.c4cbbb05.Emscripten.clang"
  },
  "schemaVersion": "1.0.1",
  "updatedAt": "2018-02-23T08:52:28.908Z"
}