{
  "contractName": "DelayedPayment",
  "abi": [
    {
      "constant": true,
      "inputs": [],
      "name": "payment",
      "outputs": [
        {
          "name": "",
          "type": "address"
        }
      ],
      "payable": false,
      "stateMutability": "view",
      "type": "function"
    },
    {
      "constant": true,
      "inputs": [],
      "name": "scheduler",
      "outputs": [
        {
          "name": "",
          "type": "address"
        }
      ],
      "payable": false,
      "stateMutability": "view",
      "type": "function"
    },
    {
      "inputs": [
        {
          "name": "_scheduler",
          "type": "address"
        },
        {
          "name": "_numBlocks",
          "type": "uint256"
        },
        {
          "name": "_recipient",
          "type": "address"
        },
        {
          "name": "_value",
          "type": "uint256"
        }
      ],
      "payable": true,
      "stateMutability": "payable",
      "type": "constructor"
    },
    {
      "payable": true,
      "stateMutability": "payable",
      "type": "fallback"
    },
    {
      "constant": false,
      "inputs": [],
      "name": "payout",
      "outputs": [
        {
          "name": "",
          "type": "bool"
        }
      ],
      "payable": false,
      "stateMutability": "nonpayable",
      "type": "function"
    },
    {
      "constant": false,
      "inputs": [],
      "name": "collectRemaining",
      "outputs": [
        {
          "name": "",
          "type": "bool"
        }
      ],
      "payable": false,
      "stateMutability": "nonpayable",
      "type": "function"
    }
  ],
  "bytecode": "0x60806040526404a817c80060065560405160808061074c833981018060405281019080805190602001909291908051906020019092919080519060200190929190805190602001909291905050506000846000806101000a81548173ffffffffffffffffffffffffffffffffffffffff021916908373ffffffffffffffffffffffffffffffffffffffff16021790555083430160048190555082600160006101000a81548173ffffffffffffffffffffffffffffffffffffffff021916908373ffffffffffffffffffffffffffffffffffffffff16021790555033600260006101000a81548173ffffffffffffffffffffffffffffffffffffffff021916908373ffffffffffffffffffffffffffffffffffffffff160217905550816005819055506000809054906101000a900473ffffffffffffffffffffffffffffffffffffffff1673ffffffffffffffffffffffffffffffffffffffff166363b6240d60065460065462030d4060006006546040518663ffffffff167c01000000000000000000000000000000000000000000000000000000000281526004018086815260200185815260200184815260200183815260200182815260200195505050505050602060405180830381600087803b1580156101db57600080fd5b505af11580156101ef573d6000803e3d6000fd5b505050506040513d602081101561020557600080fd5b810190808051906020019092919050505090506000809054906101000a900473ffffffffffffffffffffffffffffffffffffffff1673ffffffffffffffffffffffffffffffffffffffff16630801b65482306101006040519081016040528062030d4081526020016000815260200160ff815260200160045481526020016006548152602001600654815260200160065481526020016002600654028152506040518463ffffffff167c0100000000000000000000000000000000000000000000000000000000028152600401808373ffffffffffffffffffffffffffffffffffffffff1673ffffffffffffffffffffffffffffffffffffffff1681526020018060200183600860200280838360005b83811015610330578082015181840152602081019050610315565b5050505090500182810382526000815260200160200193505050506020604051808303818588803b15801561036457600080fd5b505af1158015610378573d6000803e3d6000fd5b50505050506040513d602081101561038f57600080fd5b8101908080519060200190929190505050600360006101000a81548173ffffffffffffffffffffffffffffffffffffffff021916908373ffffffffffffffffffffffffffffffffffffffff1602179055506005543073ffffffffffffffffffffffffffffffffffffffff16311015151561040557fe5b5050505050610333806104196000396000f300608060405260043610610062576000357c0100000000000000000000000000000000000000000000000000000000900463ffffffff16806342f6487a146100a657806357afb890146100fd57806363bd1d4a1461012c578063d1ad17bf1461015b575b6000341115610070576100a4565b60003073ffffffffffffffffffffffffffffffffffffffff1631111561009e576100986101b2565b506100a3565b600080fd5b5b005b3480156100b257600080fd5b506100bb610237565b604051808273ffffffffffffffffffffffffffffffffffffffff1673ffffffffffffffffffffffffffffffffffffffff16815260200191505060405180910390f35b34801561010957600080fd5b5061011261025d565b604051808215151515815260200191505060405180910390f35b34801561013857600080fd5b506101416101b2565b604051808215151515815260200191505060405180910390f35b34801561016757600080fd5b506101706102e2565b604051808273ffffffffffffffffffffffffffffffffffffffff1673ffffffffffffffffffffffffffffffffffffffff16815260200191505060405180910390f35b600060045443101515156101c557600080fd5b600160009054906101000a900473ffffffffffffffffffffffffffffffffffffffff1673ffffffffffffffffffffffffffffffffffffffff166108fc6005549081150290604051600060405180830381858888f1935050505015801561022f573d6000803e3d6000fd5b506001905090565b600360009054906101000a900473ffffffffffffffffffffffffffffffffffffffff1681565b6000600260009054906101000a900473ffffffffffffffffffffffffffffffffffffffff1673ffffffffffffffffffffffffffffffffffffffff166108fc3073ffffffffffffffffffffffffffffffffffffffff16319081150290604051600060405180830381858888f193505050501580156102de573d6000803e3d6000fd5b5090565b6000809054906101000a900473ffffffffffffffffffffffffffffffffffffffff16815600a165627a7a72305820408767a12ce2d28a7280adcd6985cd0f464eb5a4aa29aca4b4050994c1de80e00029",
  "source": "pragma solidity 0.4.24;\n\nimport \"contracts/Interface/SchedulerInterface.sol\";\n\n/// Example of using the Scheduler from a smart contract to delay a payment.\ncontract DelayedPayment {\n\n    SchedulerInterface public scheduler;\n    \n    address recipient;\n    address owner;\n    address public payment;\n\n    uint lockedUntil;\n    uint value;\n    uint twentyGwei = 20000000000 wei;\n\n    constructor(\n        address _scheduler,\n        uint    _numBlocks,\n        address _recipient,\n        uint _value\n    )  public payable {\n        scheduler = SchedulerInterface(_scheduler);\n        lockedUntil = block.number + _numBlocks;\n        recipient = _recipient;\n        owner = msg.sender;\n        value = _value;\n   \n        uint endowment = scheduler.computeEndowment(\n            twentyGwei,\n            twentyGwei,\n            200000,\n            0,\n            twentyGwei\n        );\n\n        payment = scheduler.schedule.value(endowment)( // 0.1 ether is to pay for gas, bounty and fee\n            this,                   // send to self\n            \"\",                     // and trigger fallback function\n            [\n                200000,             // The amount of gas to be sent with the transaction.\n                0,                  // The amount of wei to be sent.\n                255,                // The size of the execution window.\n                lockedUntil,        // The start of the execution window.\n                twentyGwei,    // The gasprice for the transaction (aka 20 gwei)\n                twentyGwei,    // The fee included in the transaction.\n                twentyGwei,         // The bounty that awards the executor of the transaction.\n                twentyGwei * 2     // The required amount of wei the claimer must send as deposit.\n            ]\n        );\n\n        assert(address(this).balance >= value);\n    }\n\n    function () public payable {\n        if (msg.value > 0) { //this handles recieving remaining funds sent while scheduling (0.1 ether)\n            return;\n        } else if (address(this).balance > 0) {\n            payout();\n        } else {\n            revert();\n        }\n    }\n\n    function payout()\n        public returns (bool)\n    {\n        require(block.number >= lockedUntil);\n        \n        recipient.transfer(value);\n        return true;\n    }\n\n    function collectRemaining()\n        public returns (bool) \n    {\n        owner.transfer(address(this).balance);\n    }\n}",
  "sourcePath": "/home/logan/Work/ethereum-alarm-clock/contracts/_examples/DelayedPayment.sol",
  "compiler": {
    "name": "solc",
    "version": "0.4.24+commit.e67f0147.Emscripten.clang"
  },
  "schemaVersion": "2.0.1",
  "updatedAt": "2018-08-06T12:46:50.498Z"
}