{
  "contractName": "IterTools",
  "abi": [
    {
      "constant": true,
      "inputs": [
        {
          "name": "_values",
          "type": "bool[6]"
        }
      ],
      "name": "all",
      "outputs": [
        {
          "name": "",
          "type": "bool"
        }
      ],
      "payable": false,
      "stateMutability": "pure",
      "type": "function"
    }
  ],
  "bytecode": "0x610128610030600b82828239805160001a6073146000811461002057610022565bfe5b5030600052607381538281f30073000000000000000000000000000000000000000030146080604052600436106056576000357c0100000000000000000000000000000000000000000000000000000000900463ffffffff1680635fa77dac14605b575b600080fd5b609c6004803603810190808060c0019060068060200260405190810160405280929190826006602002808284378201915050505050919291929050505060b6565b604051808215151515815260200191505060405180910390f35b600080600090505b600681101560f157828160068110151560d357fe5b6020020151151560e5576000915060f6565b808060010191505060be565b600191505b509190505600a165627a7a723058206f8347a3f9cbd9712d8e0bb9661b814a6e1c8cbd6d843227aa8a93812d7a63980029",
  "source": "pragma solidity 0.4.24;\n\n/**\n * @title IterTools\n * @dev Utility library that iterates through a boolean array of length 6.\n */\nlibrary IterTools {\n    /*\n     * @dev Return true if all of the values in the boolean array are true.\n     * @param _values A boolean array of length 6.\n     * @return True if all values are true, False if _any_ are false.\n     */\n    function all(bool[6] _values) \n        public pure returns (bool)\n    {\n        for (uint i = 0; i < _values.length; i++) {\n            if (!_values[i]) {\n                return false;\n            }\n        }\n        return true;\n    }\n}\n",
  "sourcePath": "/home/volt/workspaces/ethereum-alarm-clock/ethereum-alarm-clock/contracts/IterTools.sol",
  "compiler": {
    "name": "solc",
    "version": "0.4.24+commit.e67f0147.Emscripten.clang"
  },
  "schemaVersion": "2.0.1",
  "updatedAt": "2018-08-17T14:26:00.976Z"
}