{
  "contractName": "Proxy",
  "abi": [
    {
      "constant": true,
      "inputs": [],
      "name": "owner",
      "outputs": [
        {
          "name": "",
          "type": "address"
        }
      ],
      "payable": false,
      "stateMutability": "view",
      "type": "function"
    },
    {
      "constant": true,
      "inputs": [],
      "name": "scheduler",
      "outputs": [
        {
          "name": "",
          "type": "address"
        }
      ],
      "payable": false,
      "stateMutability": "view",
      "type": "function"
    },
    {
      "constant": true,
      "inputs": [],
      "name": "scheduledTransaction",
      "outputs": [
        {
          "name": "",
          "type": "address"
        }
      ],
      "payable": false,
      "stateMutability": "view",
      "type": "function"
    },
    {
      "constant": true,
      "inputs": [],
      "name": "receipient",
      "outputs": [
        {
          "name": "",
          "type": "address"
        }
      ],
      "payable": false,
      "stateMutability": "view",
      "type": "function"
    },
    {
      "inputs": [
        {
          "name": "_scheduler",
          "type": "address"
        },
        {
          "name": "_receipient",
          "type": "address"
        },
        {
          "name": "_payout",
          "type": "uint256"
        },
        {
          "name": "_gasPrice",
          "type": "uint256"
        },
        {
          "name": "_delay",
          "type": "uint256"
        }
      ],
      "payable": true,
      "stateMutability": "payable",
      "type": "constructor"
    },
    {
      "payable": true,
      "stateMutability": "payable",
      "type": "fallback"
    },
    {
      "constant": false,
      "inputs": [
        {
          "name": "_receipient",
          "type": "address"
        }
      ],
      "name": "sendOwnerEther",
      "outputs": [],
      "payable": false,
      "stateMutability": "nonpayable",
      "type": "function"
    }
  ],
  "bytecode": "0x608060405260405160a0806107a18339810180604052810190808051906020019092919080519060200190929190805190602001909291908051906020019092919080519060200190929190505050846000806101000a81548173ffffffffffffffffffffffffffffffffffffffff021916908373ffffffffffffffffffffffffffffffffffffffff16021790555083600160006101000a81548173ffffffffffffffffffffffffffffffffffffffff021916908373ffffffffffffffffffffffffffffffffffffffff16021790555033600360006101000a81548173ffffffffffffffffffffffffffffffffffffffff021916908373ffffffffffffffffffffffffffffffffffffffff1602179055506000809054906101000a900473ffffffffffffffffffffffffffffffffffffffff1673ffffffffffffffffffffffffffffffffffffffff16630801b654343061010060405190810160405280621e8480815260200188815260200160ff81526020018643018152602001878152602001613039815260200162036cc78152602001614e208152506040518463ffffffff167c0100000000000000000000000000000000000000000000000000000000028152600401808373ffffffffffffffffffffffffffffffffffffffff1673ffffffffffffffffffffffffffffffffffffffff1681526020018060200183600860200280838360005b83811015610223578082015181840152602081019050610208565b5050505090500182810382526000815260200160200193505050506020604051808303818588803b15801561025757600080fd5b505af115801561026b573d6000803e3d6000fd5b50505050506040513d602081101561028257600080fd5b8101908080519060200190929190505050600260006101000a81548173ffffffffffffffffffffffffffffffffffffffff021916908373ffffffffffffffffffffffffffffffffffffffff16021790555050505050506104ba806102e76000396000f30060806040526004361061006d576000357c0100000000000000000000000000000000000000000000000000000000900463ffffffff1680633e50b0b8146100e25780638da5cb5b14610125578063d1ad17bf1461017c578063ee177f4a146101d3578063ff5d80f21461022a575b60003411156100e057600160009054906101000a900473ffffffffffffffffffffffffffffffffffffffff1673ffffffffffffffffffffffffffffffffffffffff166108fc349081150290604051600060405180830381858888f193505050501580156100de573d6000803e3d6000fd5b505b005b3480156100ee57600080fd5b50610123600480360381019080803573ffffffffffffffffffffffffffffffffffffffff169060200190929190505050610281565b005b34801561013157600080fd5b5061013a6103f7565b604051808273ffffffffffffffffffffffffffffffffffffffff1673ffffffffffffffffffffffffffffffffffffffff16815260200191505060405180910390f35b34801561018857600080fd5b5061019161041d565b604051808273ffffffffffffffffffffffffffffffffffffffff1673ffffffffffffffffffffffffffffffffffffffff16815260200191505060405180910390f35b3480156101df57600080fd5b506101e8610442565b604051808273ffffffffffffffffffffffffffffffffffffffff1673ffffffffffffffffffffffffffffffffffffffff16815260200191505060405180910390f35b34801561023657600080fd5b5061023f610468565b604051808273ffffffffffffffffffffffffffffffffffffffff1673ffffffffffffffffffffffffffffffffffffffff16815260200191505060405180910390f35b600360009054906101000a900473ffffffffffffffffffffffffffffffffffffffff1673ffffffffffffffffffffffffffffffffffffffff163373ffffffffffffffffffffffffffffffffffffffff161480156102f5575060008173ffffffffffffffffffffffffffffffffffffffff1614155b156103f457600260009054906101000a900473ffffffffffffffffffffffffffffffffffffffff1673ffffffffffffffffffffffffffffffffffffffff16633e50b0b8826040518263ffffffff167c0100000000000000000000000000000000000000000000000000000000028152600401808273ffffffffffffffffffffffffffffffffffffffff1673ffffffffffffffffffffffffffffffffffffffff168152602001915050602060405180830381600087803b1580156103b757600080fd5b505af11580156103cb573d6000803e3d6000fd5b505050506040513d60208110156103e157600080fd5b8101908080519060200190929190505050505b50565b600360009054906101000a900473ffffffffffffffffffffffffffffffffffffffff1681565b6000809054906101000a900473ffffffffffffffffffffffffffffffffffffffff1681565b600260009054906101000a900473ffffffffffffffffffffffffffffffffffffffff1681565b600160009054906101000a900473ffffffffffffffffffffffffffffffffffffffff16815600a165627a7a7230582022e5861a6f29c37a32e7ded946fe51935adb23b7bd5e7f1e108640d4282fe8820029",
  "source": "pragma solidity 0.4.24;\n\nimport \"contracts/Interface/SchedulerInterface.sol\";\nimport \"contracts/Interface/TransactionRequestInterface.sol\";\n\ncontract Proxy {\n    SchedulerInterface public scheduler;\n    address public receipient; \n    address public scheduledTransaction;\n    address public owner;\n\n    function Proxy(address _scheduler, address _receipient, uint _payout, uint _gasPrice, uint _delay) public payable {\n        scheduler = SchedulerInterface(_scheduler);\n        receipient = _receipient;\n        owner = msg.sender;\n\n        scheduledTransaction = scheduler.schedule.value(msg.value)(\n            this,              // toAddress\n            \"\",                     // callData\n            [\n                2000000,            // The amount of gas to be sent with the transaction.\n                _payout,                  // The amount of wei to be sent.\n                255,                // The size of the execution window.\n                block.number + _delay,        // The start of the execution window.\n                _gasPrice,    // The gasprice for the transaction\n                12345 wei,          // The fee included in the transaction.\n                224455 wei,         // The bounty that awards the executor of the transaction.\n                20000 wei           // The required amount of wei the claimer must send as deposit.\n            ]\n        );\n    }\n\n    function () public payable {\n        if (msg.value > 0) {\n            receipient.transfer(msg.value);\n        }\n    }\n\n    function sendOwnerEther(address _receipient) public {\n        if (msg.sender == owner && _receipient != 0x0) {\n            TransactionRequestInterface(scheduledTransaction).sendOwnerEther(_receipient);\n        }   \n    }\n}",
  "sourcePath": "/home/volt/workspaces/ethereum-alarm-clock/ethereum-alarm-clock/contracts/_test/Proxy.sol",
  "compiler": {
    "name": "solc",
    "version": "0.4.24+commit.e67f0147.Emscripten.clang"
  },
  "schemaVersion": "2.0.1",
  "updatedAt": "2018-08-17T12:30:10.233Z"
}