{
  "contractName": "RecurringPayment",
  "abi": [
    {
      "constant": true,
      "inputs": [],
      "name": "scheduler",
      "outputs": [
        {
          "name": "",
          "type": "address"
        }
      ],
      "payable": false,
      "stateMutability": "view",
      "type": "function"
    },
    {
      "constant": true,
      "inputs": [],
      "name": "currentScheduledTransaction",
      "outputs": [
        {
          "name": "",
          "type": "address"
        }
      ],
      "payable": false,
      "stateMutability": "view",
      "type": "function"
    },
    {
      "inputs": [
        {
          "name": "_scheduler",
          "type": "address"
        },
        {
          "name": "_paymentInterval",
          "type": "uint256"
        },
        {
          "name": "_paymentValue",
          "type": "uint256"
        },
        {
          "name": "_recipient",
          "type": "address"
        }
      ],
      "payable": true,
      "stateMutability": "payable",
      "type": "constructor"
    },
    {
      "payable": true,
      "stateMutability": "payable",
      "type": "fallback"
    },
    {
      "anonymous": false,
      "inputs": [
        {
          "indexed": true,
          "name": "scheduledTransaction",
          "type": "address"
        },
        {
          "indexed": false,
          "name": "recipient",
          "type": "address"
        },
        {
          "indexed": false,
          "name": "value",
          "type": "uint256"
        }
      ],
      "name": "PaymentScheduled",
      "type": "event"
    },
    {
      "anonymous": false,
      "inputs": [
        {
          "indexed": true,
          "name": "scheduledTransaction",
          "type": "address"
        },
        {
          "indexed": false,
          "name": "recipient",
          "type": "address"
        },
        {
          "indexed": false,
          "name": "value",
          "type": "uint256"
        }
      ],
      "name": "PaymentExecuted",
      "type": "event"
    },
    {
      "constant": false,
      "inputs": [],
      "name": "process",
      "outputs": [
        {
          "name": "",
          "type": "bool"
        }
      ],
      "payable": false,
      "stateMutability": "nonpayable",
      "type": "function"
    }
  ],
  "bytecode": "0x60806040526040516080806109b683398101806040528101908080519060200190929190805190602001909291908051906020019092919080519060200190929190505050836000806101000a81548173ffffffffffffffffffffffffffffffffffffffff021916908373ffffffffffffffffffffffffffffffffffffffff1602179055508260018190555080600460006101000a81548173ffffffffffffffffffffffffffffffffffffffff021916908373ffffffffffffffffffffffffffffffffffffffff160217905550816002819055506100ea6100f4640100000000026401000000009004565b50505050506103a5565b600060015443016003819055506000809054906101000a900473ffffffffffffffffffffffffffffffffffffffff1673ffffffffffffffffffffffffffffffffffffffff16630801b65467016345785d8a00003061010060405190810160405280620f424081526020016000815260200160ff815260200160035481526020016404a817c80081526020016404a817c80081526020016404a817c80081526020016406fc23ac008152506040518463ffffffff167c0100000000000000000000000000000000000000000000000000000000028152600401808373ffffffffffffffffffffffffffffffffffffffff1673ffffffffffffffffffffffffffffffffffffffff1681526020018060200183600860200280838360005b8381101561022a57808201518184015260208101905061020f565b5050505090500182810382526000815260200160200193505050506020604051808303818588803b15801561025e57600080fd5b505af1158015610272573d6000803e3d6000fd5b50505050506040513d602081101561028957600080fd5b8101908080519060200190929190505050600560006101000a81548173ffffffffffffffffffffffffffffffffffffffff021916908373ffffffffffffffffffffffffffffffffffffffff160217905550600560009054906101000a900473ffffffffffffffffffffffffffffffffffffffff1673ffffffffffffffffffffffffffffffffffffffff167f4af0c8645a6689f769a3d01b49a33d9aedacab3b36cdcfa34cfccb9b9be558ac600460009054906101000a900473ffffffffffffffffffffffffffffffffffffffff16600254604051808373ffffffffffffffffffffffffffffffffffffffff1673ffffffffffffffffffffffffffffffffffffffff1681526020018281526020019250505060405180910390a290565b610602806103b46000396000f300608060405260043610610057576000357c0100000000000000000000000000000000000000000000000000000000900463ffffffff168063c33fb87714610071578063d1ad17bf146100a0578063ddde3cb2146100f7575b60003411156100655761006f565b61006d61014e565b505b005b34801561007d57600080fd5b5061008661014e565b604051808215151515815260200191505060405180910390f35b3480156100ac57600080fd5b506100b5610165565b604051808273ffffffffffffffffffffffffffffffffffffffff1673ffffffffffffffffffffffffffffffffffffffff16815260200191505060405180910390f35b34801561010357600080fd5b5061010c61018a565b604051808273ffffffffffffffffffffffffffffffffffffffff1673ffffffffffffffffffffffffffffffffffffffff16815260200191505060405180910390f35b60006101586101b0565b50610161610325565b5090565b6000809054906101000a900473ffffffffffffffffffffffffffffffffffffffff1681565b600560009054906101000a900473ffffffffffffffffffffffffffffffffffffffff1681565b600060035443101515156101c357600080fd5b6002543073ffffffffffffffffffffffffffffffffffffffff1631101515156101eb57600080fd5b600460009054906101000a900473ffffffffffffffffffffffffffffffffffffffff1673ffffffffffffffffffffffffffffffffffffffff166108fc6002549081150290604051600060405180830381858888f19350505050158015610255573d6000803e3d6000fd5b50600560009054906101000a900473ffffffffffffffffffffffffffffffffffffffff1673ffffffffffffffffffffffffffffffffffffffff167f107f47a72001748abd3c158810f2111e5fdab22dbbfc1d9c5578889e8da5c408600460009054906101000a900473ffffffffffffffffffffffffffffffffffffffff16600254604051808373ffffffffffffffffffffffffffffffffffffffff1673ffffffffffffffffffffffffffffffffffffffff1681526020018281526020019250505060405180910390a26001905090565b600060015443016003819055506000809054906101000a900473ffffffffffffffffffffffffffffffffffffffff1673ffffffffffffffffffffffffffffffffffffffff16630801b65467016345785d8a00003061010060405190810160405280620f424081526020016000815260200160ff815260200160035481526020016404a817c80081526020016404a817c80081526020016404a817c80081526020016406fc23ac008152506040518463ffffffff167c0100000000000000000000000000000000000000000000000000000000028152600401808373ffffffffffffffffffffffffffffffffffffffff1673ffffffffffffffffffffffffffffffffffffffff1681526020018060200183600860200280838360005b8381101561045b578082015181840152602081019050610440565b5050505090500182810382526000815260200160200193505050506020604051808303818588803b15801561048f57600080fd5b505af11580156104a3573d6000803e3d6000fd5b50505050506040513d60208110156104ba57600080fd5b8101908080519060200190929190505050600560006101000a81548173ffffffffffffffffffffffffffffffffffffffff021916908373ffffffffffffffffffffffffffffffffffffffff160217905550600560009054906101000a900473ffffffffffffffffffffffffffffffffffffffff1673ffffffffffffffffffffffffffffffffffffffff167f4af0c8645a6689f769a3d01b49a33d9aedacab3b36cdcfa34cfccb9b9be558ac600460009054906101000a900473ffffffffffffffffffffffffffffffffffffffff16600254604051808373ffffffffffffffffffffffffffffffffffffffff1673ffffffffffffffffffffffffffffffffffffffff1681526020018281526020019250505060405180910390a2905600a165627a7a72305820bbe62846081a8b49165fa1288f640416e0ab4ff51812821176503f551f3fbdd20029",
  "source": "pragma solidity 0.4.24;\n\nimport \"contracts/Interface/SchedulerInterface.sol\";\n\n/// Example of using the Scheduler from a smart contract to delay a payment.\ncontract RecurringPayment {\n    SchedulerInterface public scheduler;\n    \n    uint paymentInterval;\n    uint paymentValue;\n    uint lockedUntil;\n\n    address recipient;\n    address public currentScheduledTransaction;\n\n    event PaymentScheduled(address indexed scheduledTransaction, address recipient, uint value);\n    event PaymentExecuted(address indexed scheduledTransaction, address recipient, uint value);\n\n    function RecurringPayment(\n        address _scheduler,\n        uint _paymentInterval,\n        uint _paymentValue,\n        address _recipient\n    )  public payable {\n        scheduler = SchedulerInterface(_scheduler);\n        paymentInterval = _paymentInterval;\n        recipient = _recipient;\n        paymentValue = _paymentValue;\n\n        schedule();\n    }\n\n    function ()\n        public payable \n    {\n        if (msg.value > 0) { //this handles recieving remaining funds sent while scheduling (0.1 ether)\n            return;\n        } \n        \n        process();\n    }\n\n    function process() public returns (bool) {\n        payout();\n        schedule();\n    }\n\n    function payout()\n        private returns (bool)\n    {\n        require(block.number >= lockedUntil);\n        require(address(this).balance >= paymentValue);\n        \n        recipient.transfer(paymentValue);\n\n        emit PaymentExecuted(currentScheduledTransaction, recipient, paymentValue);\n        return true;\n    }\n\n    function schedule() \n        private returns (bool)\n    {\n        lockedUntil = block.number + paymentInterval;\n\n        currentScheduledTransaction = scheduler.schedule.value(0.1 ether)( // 0.1 ether is to pay for gas, bounty and fee\n            this,                   // send to self\n            \"\",                     // and trigger fallback function\n            [\n                1000000,            // The amount of gas to be sent with the transaction. Accounts for payout + new contract deployment\n                0,                  // The amount of wei to be sent.\n                255,                // The size of the execution window.\n                lockedUntil,        // The start of the execution window.\n                20000000000 wei,    // The gasprice for the transaction (aka 20 gwei)\n                20000000000 wei,    // The fee included in the transaction.\n                20000000000 wei,         // The bounty that awards the executor of the transaction.\n                30000000000 wei     // The required amount of wei the claimer must send as deposit.\n            ]\n        );\n\n        emit PaymentScheduled(currentScheduledTransaction, recipient, paymentValue);\n    }\n}",
  "sourcePath": "/home/volt/workspaces/ethereum-alarm-clock/ethereum-alarm-clock/contracts/_examples/RecurringPayment.sol",
  "compiler": {
    "name": "solc",
    "version": "0.4.24+commit.e67f0147.Emscripten.clang"
  },
  "schemaVersion": "2.0.1",
  "updatedAt": "2018-08-17T12:30:10.233Z"
}