{
  "contractName": "RequestLib",
  "abi": [
    {
      "constant": true,
      "inputs": [],
      "name": "EXECUTE_EXTRA_GAS",
      "outputs": [
        {
          "name": "",
          "type": "uint256"
        }
      ],
      "payable": false,
      "stateMutability": "view",
      "type": "function"
    },
    {
      "constant": true,
      "inputs": [],
      "name": "EXECUTION_GAS_OVERHEAD",
      "outputs": [
        {
          "name": "",
          "type": "uint256"
        }
      ],
      "payable": false,
      "stateMutability": "view",
      "type": "function"
    },
    {
      "constant": true,
      "inputs": [],
      "name": "CANCEL_EXTRA_GAS",
      "outputs": [
        {
          "name": "",
          "type": "uint256"
        }
      ],
      "payable": false,
      "stateMutability": "view",
      "type": "function"
    },
    {
      "constant": true,
      "inputs": [],
      "name": "PRE_EXECUTION_GAS",
      "outputs": [
        {
          "name": "",
          "type": "uint256"
        }
      ],
      "payable": false,
      "stateMutability": "view",
      "type": "function"
    },
    {
      "anonymous": false,
      "inputs": [
        {
          "indexed": false,
          "name": "reason",
          "type": "uint8"
        }
      ],
      "name": "Aborted",
      "type": "event"
    },
    {
      "anonymous": false,
      "inputs": [
        {
          "indexed": false,
          "name": "rewardPayment",
          "type": "uint256"
        },
        {
          "indexed": false,
          "name": "measuredGasConsumption",
          "type": "uint256"
        }
      ],
      "name": "Cancelled",
      "type": "event"
    },
    {
      "anonymous": false,
      "inputs": [],
      "name": "Claimed",
      "type": "event"
    },
    {
      "anonymous": false,
      "inputs": [
        {
          "indexed": false,
          "name": "bounty",
          "type": "uint256"
        },
        {
          "indexed": false,
          "name": "fee",
          "type": "uint256"
        },
        {
          "indexed": false,
          "name": "measuredGasConsumption",
          "type": "uint256"
        }
      ],
      "name": "Executed",
      "type": "event"
    },
    {
      "constant": true,
      "inputs": [
        {
          "name": "_addressArgs",
          "type": "address[4]"
        },
        {
          "name": "_uintArgs",
          "type": "uint256[12]"
        },
        {
          "name": "_endowment",
          "type": "uint256"
        }
      ],
      "name": "validate",
      "outputs": [
        {
          "name": "isValid",
          "type": "bool[6]"
        }
      ],
      "payable": false,
      "stateMutability": "view",
      "type": "function"
    },
    {
      "constant": false,
      "inputs": [
        {
          "name": "self",
          "type": "RequestLib.Request storage"
        },
        {
          "name": "_addressArgs",
          "type": "address[4]"
        },
        {
          "name": "_uintArgs",
          "type": "uint256[12]"
        },
        {
          "name": "_callData",
          "type": "bytes"
        }
      ],
      "name": "initialize",
      "outputs": [
        {
          "name": "",
          "type": "bool"
        }
      ],
      "payable": false,
      "stateMutability": "nonpayable",
      "type": "function"
    },
    {
      "constant": true,
      "inputs": [],
      "name": "getEXECUTION_GAS_OVERHEAD",
      "outputs": [
        {
          "name": "",
          "type": "uint256"
        }
      ],
      "payable": false,
      "stateMutability": "pure",
      "type": "function"
    },
    {
      "constant": true,
      "inputs": [
        {
          "name": "self",
          "type": "RequestLib.Request storage"
        }
      ],
      "name": "requiredExecutionGas",
      "outputs": [
        {
          "name": "requiredGas",
          "type": "uint256"
        }
      ],
      "payable": false,
      "stateMutability": "view",
      "type": "function"
    },
    {
      "constant": true,
      "inputs": [
        {
          "name": "self",
          "type": "RequestLib.Request storage"
        }
      ],
      "name": "isCancellable",
      "outputs": [
        {
          "name": "",
          "type": "bool"
        }
      ],
      "payable": false,
      "stateMutability": "view",
      "type": "function"
    },
    {
      "constant": false,
      "inputs": [
        {
          "name": "self",
          "type": "RequestLib.Request storage"
        }
      ],
      "name": "cancel",
      "outputs": [
        {
          "name": "",
          "type": "bool"
        }
      ],
      "payable": false,
      "stateMutability": "nonpayable",
      "type": "function"
    },
    {
      "constant": false,
      "inputs": [
        {
          "name": "self",
          "type": "RequestLib.Request storage"
        }
      ],
      "name": "refundClaimDeposit",
      "outputs": [
        {
          "name": "",
          "type": "bool"
        }
      ],
      "payable": false,
      "stateMutability": "nonpayable",
      "type": "function"
    },
    {
      "constant": false,
      "inputs": [
        {
          "name": "self",
          "type": "RequestLib.Request storage"
        }
      ],
      "name": "sendFee",
      "outputs": [
        {
          "name": "",
          "type": "bool"
        }
      ],
      "payable": false,
      "stateMutability": "nonpayable",
      "type": "function"
    },
    {
      "constant": false,
      "inputs": [
        {
          "name": "self",
          "type": "RequestLib.Request storage"
        }
      ],
      "name": "sendBounty",
      "outputs": [
        {
          "name": "",
          "type": "bool"
        }
      ],
      "payable": false,
      "stateMutability": "nonpayable",
      "type": "function"
    },
    {
      "constant": true,
      "inputs": [
        {
          "name": "self",
          "type": "RequestLib.Request storage"
        }
      ],
      "name": "canSendOwnerEther",
      "outputs": [
        {
          "name": "",
          "type": "bool"
        }
      ],
      "payable": false,
      "stateMutability": "view",
      "type": "function"
    },
    {
      "constant": false,
      "inputs": [
        {
          "name": "self",
          "type": "RequestLib.Request storage"
        }
      ],
      "name": "sendOwnerEther",
      "outputs": [
        {
          "name": "",
          "type": "bool"
        }
      ],
      "payable": false,
      "stateMutability": "nonpayable",
      "type": "function"
    },
    {
      "constant": false,
      "inputs": [
        {
          "name": "self",
          "type": "RequestLib.Request storage"
        },
        {
          "name": "recipient",
          "type": "address"
        }
      ],
      "name": "sendOwnerEther",
      "outputs": [
        {
          "name": "",
          "type": "bool"
        }
      ],
      "payable": false,
      "stateMutability": "nonpayable",
      "type": "function"
    }
  ],
  "bytecode": "0x611e56610030600b82828239805160001a6073146000811461002057610022565bfe5b5030600052607381538281f30073000000000000000000000000000000000000000030146080604052600436106100fd576000357c0100000000000000000000000000000000000000000000000000000000900463ffffffff168063067199bc146101025780631d49e0811461013657806332839d98146101545780634074b91c1461019957806345104b16146101de578063708f8940146101fc5780637994549a1461021a5780638c5bebf21461025f578063ab3b2e8114610349578063b698f1ca1461038e578063b9e0329a146103c6578063cac0425f146103fe578063d2531590146104b9578063d81b530c146104d7578063d96d7ea21461053c578063f925a7d61461055a575b600080fd5b6101206004803603810190808035906020019092919050505061059f565b6040518082815260200191505060405180910390f35b61013e6105c5565b6040518082815260200191505060405180910390f35b81801561016057600080fd5b5061017f600480360381019080803590602001909291905050506105cc565b604051808215151515815260200191505060405180910390f35b8180156101a557600080fd5b506101c4600480360381019080803590602001909291905050506107bf565b604051808215151515815260200191505060405180910390f35b6101e6610811565b6040518082815260200191505060405180910390f35b610204610818565b6040518082815260200191505060405180910390f35b81801561022657600080fd5b5061024560048036038101908080359060200190929190505050610823565b604051808215151515815260200191505060405180910390f35b81801561026b57600080fd5b5061032f600480360381019080803590602001909291908060800190600480602002604051908101604052809291908260046020028082843782019150505050509192919290806101800190600c806020026040519081016040528092919082600c6020028082843782019150505050509192919290803590602001908201803590602001908080601f016020809104026020016040519081016040528093929190818152602001838380828437820191505050505050919291929050505061086b565b604051808215151515815260200191505060405180910390f35b81801561035557600080fd5b5061037460048036038101908080359060200190929190505050610ba1565b604051808215151515815260200191505060405180910390f35b6103ac60048036038101908080359060200190929190505050610bd1565b604051808215151515815260200191505060405180910390f35b6103e460048036038101908080359060200190929190505050610c1e565b604051808215151515815260200191505060405180910390f35b61047b6004803603810190808060800190600480602002604051908101604052809291908260046020028082843782019150505050509192919290806101800190600c806020026040519081016040528092919082600c602002808284378201915050505050919291929080359060200190929190505050610d12565b6040518082600660200280838360005b838110156104a657808201518184015260208101905061048b565b5050505090500191505060405180910390f35b6104c161128f565b6040518082815260200191505060405180910390f35b8180156104e357600080fd5b5061052260048036038101908080359060200190929190803573ffffffffffffffffffffffffffffffffffffffff169060200190929190505050611296565b604051808215151515815260200191505060405180910390f35b610544611345565b6040518082815260200191505060405180910390f35b81801561056657600080fd5b506105856004803603810190808035906020019092919050505061134b565b604051808215151515815260200191505060405180910390f35b60006105be6202bf20836000016003015461137b90919063ffffffff16565b9050919050565b62015f9081565b6000806000806000805a94506105e187610c1e565b15156105ec57600080fd5b60018760050160010160146101000a81548160ff02191690831515021790555061061887600d0161139c565b151561062357600080fd5b8660050160000160009054906101000a900473ffffffffffffffffffffffffffffffffffffffff1673ffffffffffffffffffffffffffffffffffffffff163373ffffffffffffffffffffffffffffffffffffffff1614151561076b573391506106b66106a06064896007016000015461142890919063ffffffff16565b886007016002015461137b90919063ffffffff16565b90506106e062014c086106d25a8861144390919063ffffffff16565b61137b90919063ffffffff16565b9250610707816106f93a8661145f90919063ffffffff16565b61137b90919063ffffffff16565b9050809350600081111561076a57600087600701600201819055508173ffffffffffffffffffffffffffffffffffffffff166108fc829081150290604051600060405180830381858888f19350505050158015610768573d6000803e3d6000fd5b505b5b7fa761582a460180d55522f9f5fdc076390a1f48a7a62a8afbd45c1bb797948edb8484604051808381526020018281526020019250505060405180910390a16107b3876107bf565b95505050505050919050565b60006107ca82610bd1565b1561080757610800828360050160000160009054906101000a900473ffffffffffffffffffffffffffffffffffffffff16611495565b905061080c565b600090505b919050565b6202bf2081565b60006202bf20905090565b60008160050160010160149054906101000a900460ff168061084d575061084c8260110161153b565b5b151561085857600080fd5b61086482600d0161139c565b9050919050565b6000610875611cd5565b61087d611cf8565b610885611d1b565b61088d611d3f565b60c060405190810160405280600073ffffffffffffffffffffffffffffffffffffffff1681526020018960006004811015156108c557fe5b602002015173ffffffffffffffffffffffffffffffffffffffff1673ffffffffffffffffffffffffffffffffffffffff16815260200189600160048110151561090a57fe5b602002015173ffffffffffffffffffffffffffffffffffffffff1673ffffffffffffffffffffffffffffffffffffffff16815260200189600260048110151561094f57fe5b602002015173ffffffffffffffffffffffffffffffffffffffff1673ffffffffffffffffffffffffffffffffffffffff168152602001600073ffffffffffffffffffffffffffffffffffffffff1681526020018960036004811015156109b157fe5b602002015173ffffffffffffffffffffffffffffffffffffffff1673ffffffffffffffffffffffffffffffffffffffff1681525093506060604051908101604052806000151515158152602001600015151515815260200160001515151581525092506101e06040519081016040528060008152602001886000600c81101515610a3757fe5b6020020151815260200160008152602001886001600c81101515610a5757fe5b6020020151815260200160008152602001886002600c81101515610a7757fe5b60200201518152602001886003600c81101515610a9057fe5b60200201518152602001886004600c81101515610aa957fe5b60200201518152602001886005600c81101515610ac257fe5b60200201518152602001886006600c81101515610adb57fe5b60200201518152602001886007600c81101515610af457fe5b60200201518152602001886008600c81101515610b0d57fe5b60200201518152602001886009600c81101515610b2657fe5b6020020151815260200188600a600c81101515610b3f57fe5b6020020151815260200188600b600c81101515610b5857fe5b60200201518152509150602060405190810160405280600060ff168152509050610b8689858585858b611557565b1515610b9157600080fd5b6001945050505050949350505050565b6000610baf8260110161153b565b15610bc757610bc082600701611a5a565b9050610bcc565b600090505b919050565b60008160050160010160149054906101000a900460ff1680610bfb5750610bfa8260110161153b565b5b80610c1757508160050160010160159054906101000a900460ff165b9050919050565b60008160050160010160149054906101000a900460ff1615610c435760009050610d0d565b8160050160010160159054906101000a900460ff16158015610c6d5750610c6c8260110161153b565b5b15610c7b5760019050610d0d565b610c8782600d01611ae2565b158015610c9c5750610c9b82601101611b29565b5b8015610cfa57508160050160000160009054906101000a900473ffffffffffffffffffffffffffffffffffffffff1673ffffffffffffffffffffffffffffffffffffffff163373ffffffffffffffffffffffffffffffffffffffff16145b15610d085760019050610d0d565b600090505b919050565b610d1a611d62565b73__PaymentLib____________________________6327960c5f83856001600c81101515610d4457fe5b6020020151866000600c81101515610d5857fe5b6020020151876008600c81101515610d6c57fe5b6020020151886009600c81101515610d8057fe5b602002015189600a600c81101515610d9457fe5b60200201516202bf206040518863ffffffff167c01000000000000000000000000000000000000000000000000000000000281526004018088815260200187815260200186815260200185815260200184815260200183815260200182815260200197505050505050505060206040518083038186803b158015610e1757600080fd5b505af4158015610e2b573d6000803e3d6000fd5b505050506040513d6020811015610e4157600080fd5b8101908080519060200190929190505050816000600681101515610e6157fe5b60200201901515908115158152505073__RequestScheduleLib____________________631a26ed1c846004600c81101515610e9957fe5b6020020151856006600c81101515610ead57fe5b60200201516040518363ffffffff167c0100000000000000000000000000000000000000000000000000000000028152600401808381526020018281526020019250505060206040518083038186803b158015610f0957600080fd5b505af4158015610f1d573d6000803e3d6000fd5b505050506040513d6020811015610f3357600080fd5b8101908080519060200190929190505050816001600681101515610f5357fe5b60200201901515908115158152505073__RequestScheduleLib____________________632e898ddc846005600c81101515610f8b57fe5b60200201516040518263ffffffff167c01000000000000000000000000000000000000000000000000000000000281526004018082815260200191505060206040518083038186803b158015610fe057600080fd5b505af4158015610ff4573d6000803e3d6000fd5b505050506040513d602081101561100a57600080fd5b810190808051906020019092919050505081600260068110151561102a57fe5b60200201901515908115158152505073__RequestScheduleLib____________________633c57ec9c73__MathLib_______________________________637ae2b5c7866005600c8110151561107c57fe5b602002015160026040518363ffffffff167c0100000000000000000000000000000000000000000000000000000000028152600401808381526020018281526020019250505060206040518083038186803b1580156110da57600080fd5b505af41580156110ee573d6000803e3d6000fd5b505050506040513d602081101561110457600080fd5b8101908080519060200190929190505050600281111561112057fe5b856003600c8110151561112f57fe5b6020020151866007600c8110151561114357fe5b60200201516040518463ffffffff167c01000000000000000000000000000000000000000000000000000000000281526004018084600281111561118357fe5b60ff168152602001838152602001828152602001935050505060206040518083038186803b1580156111b457600080fd5b505af41580156111c8573d6000803e3d6000fd5b505050506040513d60208110156111de57600080fd5b81019080805190602001909291905050508160036006811015156111fe57fe5b60200201901515908115158152505061122d836008600c8110151561121f57fe5b60200201516202bf20611b45565b81600460068110151561123c57fe5b60200201901515908115158152505061126784600360048110151561125d57fe5b6020020151611b5a565b81600560068110151561127657fe5b6020020190151590811515815250508090509392505050565b62014c0881565b6000808273ffffffffffffffffffffffffffffffffffffffff16141515156112bd57600080fd5b6112c683610bd1565b801561132457508260050160000160009054906101000a900473ffffffffffffffffffffffffffffffffffffffff1673ffffffffffffffffffffffffffffffffffffffff163373ffffffffffffffffffffffffffffffffffffffff16145b1561133a576113338383611495565b905061133f565b600090505b92915050565b6161a881565b60006113598260110161153b565b156113715761136a82600701611b7d565b9050611376565b600090505b919050565b600080828401905083811015151561139257600080fd5b8091505092915050565b60008060008360010154111561141d5782600101549050600083600101819055508260000160009054906101000a900473ffffffffffffffffffffffffffffffffffffffff1673ffffffffffffffffffffffffffffffffffffffff166108fc829081150290604051600060405180830381858888f193505050509150611422565b600191505b50919050565b600080828481151561143657fe5b0490508091505092915050565b600082821115151561145457600080fd5b818303905092915050565b60008082840290506000841480611480575082848281151561147d57fe5b04145b151561148b57600080fd5b8091505092915050565b6000806114fb84600701600501546114ed86600701600201546114df88600d01600101543073ffffffffffffffffffffffffffffffffffffffff163161144390919063ffffffff16565b61144390919063ffffffff16565b61144390919063ffffffff16565b90508273ffffffffffffffffffffffffffffffffffffffff166108fc829081150290604051600060405180830381858888f1935050505091505092915050565b600061154682611c05565b61154f83611c29565b119050919050565b600081876000016001019080519060200190611574929190611d85565b5085600060068110151561158457fe5b602002015187600d0160000160006101000a81548173ffffffffffffffffffffffffffffffffffffffff021916908373ffffffffffffffffffffffffffffffffffffffff1602179055508560016006811015156115dd57fe5b60200201518760050160010160006101000a81548173ffffffffffffffffffffffffffffffffffffffff021916908373ffffffffffffffffffffffffffffffffffffffff16021790555085600260068110151561163657fe5b60200201518760050160000160006101000a81548173ffffffffffffffffffffffffffffffffffffffff021916908373ffffffffffffffffffffffffffffffffffffffff16021790555085600360068110151561168f57fe5b60200201518760070160040160006101000a81548173ffffffffffffffffffffffffffffffffffffffff021916908373ffffffffffffffffffffffffffffffffffffffff1602179055508560046006811015156116e857fe5b60200201518760070160010160006101000a81548173ffffffffffffffffffffffffffffffffffffffff021916908373ffffffffffffffffffffffffffffffffffffffff16021790555085600560068110151561174157fe5b60200201518760000160000160006101000a81548173ffffffffffffffffffffffffffffffffffffffff021916908373ffffffffffffffffffffffffffffffffffffffff16021790555084600060038110151561179a57fe5b60200201518760050160010160146101000a81548160ff0219169083151502179055508460016003811015156117cc57fe5b60200201518760050160010160156101000a81548160ff0219169083151502179055508460026003811015156117fe57fe5b60200201518760050160010160166101000a81548160ff021916908315150217905550836000600f8110151561183057fe5b602002015187600d0160010181905550836001600f8110151561184f57fe5b60200201518760070160030181905550836002600f8110151561186e57fe5b60200201518760070160050181905550836003600f8110151561188d57fe5b60200201518760070160000181905550836004600f811015156118ac57fe5b60200201518760070160020181905550836005600f811015156118cb57fe5b60200201518760110160050181905550836006600f811015156118ea57fe5b60200201518760110160030181905550836007600f8110151561190957fe5b60200201518760110160040181905550836008600f8110151561192857fe5b6020020151600281111561193857fe5b8760110160000160006101000a81548160ff0219169083600281111561195a57fe5b0217905550836009600f8110151561196e57fe5b6020020151876011016002018190555083600a600f8110151561198d57fe5b6020020151876011016001018190555083600b600f811015156119ac57fe5b6020020151876000016003018190555083600c600f811015156119cb57fe5b6020020151876000016002018190555083600d600f811015156119ea57fe5b6020020151876000016004018190555083600e600f81101515611a0957fe5b602002015187600d0160020181905550826000600181101515611a2857fe5b602002015187600d0160030160006101000a81548160ff021916908360ff160217905550600190509695505050505050565b600080826002015490506000811115611ad757600083600201819055508260010160009054906101000a900473ffffffffffffffffffffffffffffffffffffffff1673ffffffffffffffffffffffffffffffffffffffff166108fc829081150290604051600060405180830381858888f193505050509150611adc565b600191505b50919050565b6000808260000160009054906101000a900473ffffffffffffffffffffffffffffffffffffffff1673ffffffffffffffffffffffffffffffffffffffff1614159050919050565b6000611b3482611c4c565b611b3d83611c29565b109050919050565b6000611b5082611c70565b8310905092915050565b6000808273ffffffffffffffffffffffffffffffffffffffff1614159050919050565b600080826005015490506000811115611bfa57600083600501819055508260040160009054906101000a900473ffffffffffffffffffffffffffffffffffffffff1673ffffffffffffffffffffffffffffffffffffffff166108fc829081150290604051600060405180830381858888f193505050509150611bff565b600191505b50919050565b6000611c228260020154836001015461137b90919063ffffffff16565b9050919050565b6000611c458260000160009054906101000a900460ff16611c7c565b9050919050565b6000611c698260030154836001015461144390919063ffffffff16565b9050919050565b60008145039050919050565b6000600280811115611c8a57fe5b826002811115611c9657fe5b1415611ca457429050611cd0565b60016002811115611cb157fe5b826002811115611cbd57fe5b1415611ccb57439050611cd0565b600080fd5b919050565b60c060405190810160405280600690602082028038833980820191505090505090565b606060405190810160405280600390602082028038833980820191505090505090565b6101e060405190810160405280600f90602082028038833980820191505090505090565b602060405190810160405280600190602082028038833980820191505090505090565b60c060405190810160405280600690602082028038833980820191505090505090565b828054600181600116156101000203166002900490600052602060002090601f016020900481019282601f10611dc657805160ff1916838001178555611df4565b82800160010185558215611df4579182015b82811115611df3578251825591602001919060010190611dd8565b5b509050611e019190611e05565b5090565b611e2791905b80821115611e23576000816000905550600101611e0b565b5090565b905600a165627a7a72305820cd5832e262cbc308163bfec88fbd36a202189c8738ceeedd1ca5ceba497a8f470029",
  "source": "pragma solidity 0.4.24;\n\nimport \"contracts/Library/ClaimLib.sol\";\nimport \"contracts/Library/ExecutionLib.sol\";\nimport \"contracts/Library/PaymentLib.sol\";\nimport \"contracts/Library/RequestMetaLib.sol\";\nimport \"contracts/Library/RequestScheduleLib.sol\";\n\nimport \"contracts/Library/MathLib.sol\";\nimport \"contracts/zeppelin/SafeMath.sol\";\n\nlibrary RequestLib {\n    using ClaimLib for ClaimLib.ClaimData;\n    using ExecutionLib for ExecutionLib.ExecutionData;\n    using PaymentLib for PaymentLib.PaymentData;\n    using RequestMetaLib for RequestMetaLib.RequestMeta;\n    using RequestScheduleLib for RequestScheduleLib.ExecutionWindow;\n    using SafeMath for uint;\n\n    struct Request {\n        ExecutionLib.ExecutionData txnData;\n        RequestMetaLib.RequestMeta meta;\n        PaymentLib.PaymentData paymentData;\n        ClaimLib.ClaimData claimData;\n        RequestScheduleLib.ExecutionWindow schedule;\n    }\n\n    enum AbortReason {\n        WasCancelled,       //0\n        AlreadyCalled,      //1\n        BeforeCallWindow,   //2\n        AfterCallWindow,    //3\n        ReservedForClaimer, //4\n        InsufficientGas,    //5\n        TooLowGasPrice    //6\n    }\n\n    event Aborted(uint8 reason);\n    event Cancelled(uint rewardPayment, uint measuredGasConsumption);\n    event Claimed();\n    event Executed(uint bounty, uint fee, uint measuredGasConsumption);\n\n    /**\n     * @dev Validate the initialization parameters of a transaction request.\n     */\n    function validate(\n        address[4]  _addressArgs,\n        uint[12]    _uintArgs,\n        uint        _endowment\n    ) \n        public view returns (bool[6] isValid)\n    {\n        // The order of these errors matters as it determines which\n        // ValidationError event codes are logged when validation fails.\n        isValid[0] = PaymentLib.validateEndowment(\n            _endowment,\n            _uintArgs[1],               //bounty\n            _uintArgs[0],               //fee\n            _uintArgs[8],               //callGas\n            _uintArgs[9],               //callValue\n            _uintArgs[10],              //gasPrice\n            EXECUTION_GAS_OVERHEAD\n        );\n        isValid[1] = RequestScheduleLib.validateReservedWindowSize(\n            _uintArgs[4],               //reservedWindowSize\n            _uintArgs[6]                //windowSize\n        );\n        isValid[2] = RequestScheduleLib.validateTemporalUnit(_uintArgs[5]);\n        isValid[3] = RequestScheduleLib.validateWindowStart(\n            RequestScheduleLib.TemporalUnit(MathLib.min(_uintArgs[5], 2)),\n            _uintArgs[3],               //freezePeriod\n            _uintArgs[7]                //windowStart\n        );\n        isValid[4] = ExecutionLib.validateCallGas(\n            _uintArgs[8],               //callGas\n            EXECUTION_GAS_OVERHEAD\n        );\n        isValid[5] = ExecutionLib.validateToAddress(_addressArgs[3]);\n\n        return isValid;\n    }\n\n    /**\n     * @dev Initialize a new Request.\n     */\n    function initialize(\n        Request storage self,\n        address[4]      _addressArgs,\n        uint[12]        _uintArgs,\n        bytes           _callData\n    ) \n        public returns (bool)\n    {\n        address[6] memory addressValues = [\n            0x0,                // self.claimData.claimedBy\n            _addressArgs[0],    // self.meta.createdBy\n            _addressArgs[1],    // self.meta.owner\n            _addressArgs[2],    // self.paymentData.feeRecipient\n            0x0,                // self.paymentData.bountyBenefactor\n            _addressArgs[3]     // self.txnData.toAddress\n        ];\n\n        bool[3] memory boolValues = [false, false, false];\n\n        uint[15] memory uintValues = [\n            0,                  // self.claimData.claimDeposit\n            _uintArgs[0],       // self.paymentData.fee\n            0,                  // self.paymentData.feeOwed\n            _uintArgs[1],       // self.paymentData.bounty\n            0,                  // self.paymentData.bountyOwed\n            _uintArgs[2],       // self.schedule.claimWindowSize\n            _uintArgs[3],       // self.schedule.freezePeriod\n            _uintArgs[4],       // self.schedule.reservedWindowSize\n            _uintArgs[5],       // self.schedule.temporalUnit\n            _uintArgs[6],       // self.schedule.windowSize\n            _uintArgs[7],       // self.schedule.windowStart\n            _uintArgs[8],       // self.txnData.callGas\n            _uintArgs[9],       // self.txnData.callValue\n            _uintArgs[10],      // self.txnData.gasPrice\n            _uintArgs[11]       // self.claimData.requiredDeposit\n        ];\n\n        uint8[1] memory uint8Values = [\n            0\n        ];\n\n        require(deserialize(self, addressValues, boolValues, uintValues, uint8Values, _callData));\n\n        return true;\n    }\n \n    function serialize(Request storage self)\n        internal view returns(address[6], bool[3], uint[15], uint8[1])\n    {\n        address[6] memory addressValues = [\n            self.claimData.claimedBy,\n            self.meta.createdBy,\n            self.meta.owner,\n            self.paymentData.feeRecipient,\n            self.paymentData.bountyBenefactor,\n            self.txnData.toAddress\n        ];\n\n        bool[3] memory boolValues = [\n            self.meta.isCancelled,\n            self.meta.wasCalled,\n            self.meta.wasSuccessful\n        ];\n\n        uint[15] memory uintValues = [\n            self.claimData.claimDeposit,\n            self.paymentData.fee,\n            self.paymentData.feeOwed,\n            self.paymentData.bounty,\n            self.paymentData.bountyOwed,\n            self.schedule.claimWindowSize,\n            self.schedule.freezePeriod,\n            self.schedule.reservedWindowSize,\n            uint(self.schedule.temporalUnit),\n            self.schedule.windowSize,\n            self.schedule.windowStart,\n            self.txnData.callGas,\n            self.txnData.callValue,\n            self.txnData.gasPrice,\n            self.claimData.requiredDeposit\n        ];\n\n        uint8[1] memory uint8Values = [\n            self.claimData.paymentModifier\n        ];\n\n        return (addressValues, boolValues, uintValues, uint8Values);\n    }\n\n    /**\n     * @dev Populates a Request object from the full output of `serialize`.\n     *\n     *  Parameter order is alphabetical by type, then namespace, then name.\n     */\n    function deserialize(\n        Request storage self,\n        address[6]  _addressValues,\n        bool[3]     _boolValues,\n        uint[15]    _uintValues,\n        uint8[1]    _uint8Values,\n        bytes       _callData\n    )\n        internal returns (bool)\n    {\n        // callData is special.\n        self.txnData.callData = _callData;\n\n        // Address values\n        self.claimData.claimedBy = _addressValues[0];\n        self.meta.createdBy = _addressValues[1];\n        self.meta.owner = _addressValues[2];\n        self.paymentData.feeRecipient = _addressValues[3];\n        self.paymentData.bountyBenefactor = _addressValues[4];\n        self.txnData.toAddress = _addressValues[5];\n\n        // Boolean values\n        self.meta.isCancelled = _boolValues[0];\n        self.meta.wasCalled = _boolValues[1];\n        self.meta.wasSuccessful = _boolValues[2];\n\n        // UInt values\n        self.claimData.claimDeposit = _uintValues[0];\n        self.paymentData.fee = _uintValues[1];\n        self.paymentData.feeOwed = _uintValues[2];\n        self.paymentData.bounty = _uintValues[3];\n        self.paymentData.bountyOwed = _uintValues[4];\n        self.schedule.claimWindowSize = _uintValues[5];\n        self.schedule.freezePeriod = _uintValues[6];\n        self.schedule.reservedWindowSize = _uintValues[7];\n        self.schedule.temporalUnit = RequestScheduleLib.TemporalUnit(_uintValues[8]);\n        self.schedule.windowSize = _uintValues[9];\n        self.schedule.windowStart = _uintValues[10];\n        self.txnData.callGas = _uintValues[11];\n        self.txnData.callValue = _uintValues[12];\n        self.txnData.gasPrice = _uintValues[13];\n        self.claimData.requiredDeposit = _uintValues[14];\n\n        // Uint8 values\n        self.claimData.paymentModifier = _uint8Values[0];\n\n        return true;\n    }\n\n    function execute(Request storage self) \n        internal returns (bool)\n    {\n        /*\n         *  Execute the TransactionRequest\n         *\n         *  +---------------------+\n         *  | Phase 1: Validation |\n         *  +---------------------+\n         *\n         *  Must pass all of the following checks:\n         *\n         *  1. Not already called.\n         *  2. Not cancelled.\n         *  3. Not before the execution window.\n         *  4. Not after the execution window.\n         *  5. if (claimedBy == 0x0 or msg.sender == claimedBy):\n         *         - windowStart <= block.number\n         *         - block.number <= windowStart + windowSize\n         *     else if (msg.sender != claimedBy):\n         *         - windowStart + reservedWindowSize <= block.number\n         *         - block.number <= windowStart + windowSize\n         *     else:\n         *         - throw (should be impossible)\n         *  \n         *  6. gasleft() == callGas\n         *  7. tx.gasprice >= txnData.gasPrice\n         *\n         *  +--------------------+\n         *  | Phase 2: Execution |\n         *  +--------------------+\n         *\n         *  1. Mark as called (must be before actual execution to prevent\n         *     re-entrance)\n         *  2. Send Transaction and record success or failure.\n         *\n         *  +---------------------+\n         *  | Phase 3: Accounting |\n         *  +---------------------+\n         *\n         *  1. Calculate and send fee amount.\n         *  2. Calculate and send bounty amount.\n         *  3. Send remaining ether back to owner.\n         *\n         */\n\n        // Record the gas at the beginning of the transaction so we can\n        // calculate how much has been used later.\n        uint startGas = gasleft();\n\n        // +----------------------+\n        // | Begin: Authorization |\n        // +----------------------+\n\n        if (gasleft() < requiredExecutionGas(self).sub(PRE_EXECUTION_GAS)) {\n            emit Aborted(uint8(AbortReason.InsufficientGas));\n            return false;\n        } else if (self.meta.wasCalled) {\n            emit Aborted(uint8(AbortReason.AlreadyCalled));\n            return false;\n        } else if (self.meta.isCancelled) {\n            emit Aborted(uint8(AbortReason.WasCancelled));\n            return false;\n        } else if (self.schedule.isBeforeWindow()) {\n            emit Aborted(uint8(AbortReason.BeforeCallWindow));\n            return false;\n        } else if (self.schedule.isAfterWindow()) {\n            emit Aborted(uint8(AbortReason.AfterCallWindow));\n            return false;\n        } else if (self.claimData.isClaimed() && msg.sender != self.claimData.claimedBy && self.schedule.inReservedWindow()) {\n            emit Aborted(uint8(AbortReason.ReservedForClaimer));\n            return false;\n        } else if (self.txnData.gasPrice > tx.gasprice) {\n            emit Aborted(uint8(AbortReason.TooLowGasPrice));\n            return false;\n        }\n\n        // +--------------------+\n        // | End: Authorization |\n        // +--------------------+\n        // +------------------+\n        // | Begin: Execution |\n        // +------------------+\n\n        // Mark as being called before sending transaction to prevent re-entrance.\n        self.meta.wasCalled = true;\n\n        // Send the transaction...\n        // The transaction is allowed to fail and the executing agent will still get the bounty.\n        // `.sendTransaction()` will return false on a failed exeuction. \n        self.meta.wasSuccessful = self.txnData.sendTransaction();\n\n        // +----------------+\n        // | End: Execution |\n        // +----------------+\n        // +-------------------+\n        // | Begin: Accounting |\n        // +-------------------+\n\n        // Compute the fee amount\n        if (self.paymentData.hasFeeRecipient()) {\n            self.paymentData.feeOwed = self.paymentData.getFee()\n                .add(self.paymentData.feeOwed);\n        }\n\n        // Record this locally so that we can log it later.\n        // `.sendFee()` below will change `self.paymentData.feeOwed` to 0 to prevent re-entrance.\n        uint totalFeePayment = self.paymentData.feeOwed;\n\n        // Send the fee. This transaction may also fail but can be called again after\n        // execution.\n        self.paymentData.sendFee();\n\n        // Compute the bounty amount.\n        self.paymentData.bountyBenefactor = msg.sender;\n        if (self.claimData.isClaimed()) {\n            // If the transaction request was claimed, we add the deposit to the bounty whether\n            // or not the same agent who claimed is executing.\n            self.paymentData.bountyOwed = self.claimData.claimDeposit\n                .add(self.paymentData.bountyOwed);\n            // To prevent re-entrance we zero out the claim deposit since it is now accounted for\n            // in the bounty value.\n            self.claimData.claimDeposit = 0;\n            // Depending on when the transaction request was claimed, we apply the modifier to the\n            // bounty payment and add it to the bounty already owed.\n            self.paymentData.bountyOwed = self.paymentData.getBountyWithModifier(self.claimData.paymentModifier)\n                .add(self.paymentData.bountyOwed);\n        } else {\n            // Not claimed. Just add the full bounty.\n            self.paymentData.bountyOwed = self.paymentData.getBounty().add(self.paymentData.bountyOwed);\n        }\n\n        // Take down the amount of gas used so far in execution to compensate the executing agent.\n        uint measuredGasConsumption = startGas.sub(gasleft()).add(EXECUTE_EXTRA_GAS);\n\n        // // +----------------------------------------------------------------------+\n        // // | NOTE: All code after this must be accounted for by EXECUTE_EXTRA_GAS |\n        // // +----------------------------------------------------------------------+\n\n        // Add the gas reimbursment amount to the bounty.\n        self.paymentData.bountyOwed = measuredGasConsumption\n            .mul(self.txnData.gasPrice)\n            .add(self.paymentData.bountyOwed);\n\n        // Log the bounty and fee. Otherwise it is non-trivial to figure\n        // out how much was payed.\n        emit Executed(self.paymentData.bountyOwed, totalFeePayment, measuredGasConsumption);\n    \n        // Attempt to send the bounty. as with `.sendFee()` it may fail and need to be caled after execution.\n        self.paymentData.sendBounty();\n\n        // If any ether is left, send it back to the owner of the transaction request.\n        _sendOwnerEther(self, self.meta.owner);\n\n        // +-----------------+\n        // | End: Accounting |\n        // +-----------------+\n        // Successful\n        return true;\n    }\n\n\n    // This is the amount of gas that it takes to enter from the\n    // `TransactionRequest.execute()` contract into the `RequestLib.execute()`\n    // method at the point where the gas check happens.\n    uint public constant PRE_EXECUTION_GAS = 25000;   // TODO is this number still accurate?\n    \n    /*\n     * The amount of gas needed to complete the execute method after\n     * the transaction has been sent.\n     */\n    uint public constant EXECUTION_GAS_OVERHEAD = 180000; // TODO check accuracy of this number\n    /*\n     *  The amount of gas used by the portion of the `execute` function\n     *  that cannot be accounted for via gas tracking.\n     */\n    uint public constant  EXECUTE_EXTRA_GAS = 90000; // again, check for accuracy... Doubled this from Piper's original - Logan\n\n    /*\n     *  Constant value to account for the gas usage that cannot be accounted\n     *  for using gas-tracking within the `cancel` function.\n     */\n    uint public constant CANCEL_EXTRA_GAS = 85000; // Check accuracy\n\n    function getEXECUTION_GAS_OVERHEAD()\n        public pure returns (uint)\n    {\n        return EXECUTION_GAS_OVERHEAD;\n    }\n    \n    function requiredExecutionGas(Request storage self) \n        public view returns (uint requiredGas)\n    {\n        requiredGas = self.txnData.callGas.add(EXECUTION_GAS_OVERHEAD);\n    }\n\n    /*\n     * @dev Performs the checks to see if a request can be cancelled.\n     *  Must satisfy the following conditions.\n     *\n     *  1. Not Cancelled\n     *  2. either:\n     *    * not wasCalled && afterExecutionWindow\n     *    * not claimed && beforeFreezeWindow && msg.sender == owner\n     */\n    function isCancellable(Request storage self) \n        public view returns (bool)\n    {\n        if (self.meta.isCancelled) {\n            // already cancelled!\n            return false;\n        } else if (!self.meta.wasCalled && self.schedule.isAfterWindow()) {\n            // not called but after the window\n            return true;\n        } else if (!self.claimData.isClaimed() && self.schedule.isBeforeFreeze() && msg.sender == self.meta.owner) {\n            // not claimed and before freezePeriod and owner is cancelling\n            return true;\n        } else {\n            // otherwise cannot cancel\n            return false;\n        }\n    }\n\n    /*\n     *  Cancel the transaction request, attempting to send all appropriate\n     *  refunds.  To incentivise cancellation by other parties, a small reward\n     *  payment is issued to the party that cancels the request if they are not\n     *  the owner.\n     */\n    function cancel(Request storage self) \n        public returns (bool)\n    {\n        uint startGas = gasleft();\n        uint rewardPayment;\n        uint measuredGasConsumption;\n\n        // Checks if this transactionRequest can be cancelled.\n        require(isCancellable(self));\n\n        // Set here to prevent re-entrance attacks.\n        self.meta.isCancelled = true;\n\n        // Refund the claim deposit (if there is one)\n        require(self.claimData.refundDeposit());\n\n        // Send a reward to the cancelling agent if they are not the owner.\n        // This is to incentivize the cancelling of expired transaction requests.\n        // This also guarantees that it is being cancelled after the call window\n        // since the `isCancellable()` function checks this.\n        if (msg.sender != self.meta.owner) {\n            // Create the rewardBenefactor\n            address rewardBenefactor = msg.sender;\n            // Create the rewardOwed variable, it is one-hundredth\n            // of the bounty.\n            uint rewardOwed = self.paymentData.bountyOwed\n                .add(self.paymentData.bounty.div(100));\n\n            // Calculate the amount of gas cancelling agent used in this transaction.\n            measuredGasConsumption = startGas\n                .sub(gasleft())\n                .add(CANCEL_EXTRA_GAS);\n            // Add their gas fees to the reward.W\n            rewardOwed = measuredGasConsumption\n                .mul(tx.gasprice)\n                .add(rewardOwed);\n\n            // Take note of the rewardPayment to log it.\n            rewardPayment = rewardOwed;\n\n            // Transfers the rewardPayment.\n            if (rewardOwed > 0) {\n                self.paymentData.bountyOwed = 0;\n                rewardBenefactor.transfer(rewardOwed);\n            }\n        }\n\n        // Log it!\n        emit Cancelled(rewardPayment, measuredGasConsumption);\n\n        // Send the remaining ether to the owner.\n        return sendOwnerEther(self);\n    }\n\n    /*\n     * @dev Performs some checks to verify that a transaction request is claimable.\n     * @param self The Request object.\n     */\n    function isClaimable(Request storage self) \n        internal view returns (bool)\n    {\n        // Require not claimed and not cancelled.\n        require(!self.claimData.isClaimed());\n        require(!self.meta.isCancelled);\n\n        // Require that it's in the claim window and the value sent is over the required deposit.\n        require(self.schedule.inClaimWindow());\n        require(msg.value >= self.claimData.requiredDeposit);\n        return true;\n    }\n\n    /*\n     * @dev Claims the request.\n     * @param self The Request object.\n     * Payable because it requires the sender to send enough ether to cover the claimDeposit.\n     */\n    function claim(Request storage self) \n        internal returns (bool claimed)\n    {\n        require(isClaimable(self));\n        \n        emit Claimed();\n        return self.claimData.claim(self.schedule.computePaymentModifier());\n    }\n\n    /*\n     * @dev Refund claimer deposit.\n     */\n    function refundClaimDeposit(Request storage self)\n        public returns (bool)\n    {\n        require(self.meta.isCancelled || self.schedule.isAfterWindow());\n        return self.claimData.refundDeposit();\n    }\n\n    /*\n     * Send fee. Wrapper over the real function that perform an extra\n     * check to see if it's after the execution window (and thus the first transaction failed)\n     */\n    function sendFee(Request storage self) \n        public returns (bool)\n    {\n        if (self.schedule.isAfterWindow()) {\n            return self.paymentData.sendFee();\n        }\n        return false;\n    }\n\n    /*\n     * Send bounty. Wrapper over the real function that performs an extra\n     * check to see if it's after execution window (and thus the first transaction failed)\n     */\n    function sendBounty(Request storage self) \n        public returns (bool)\n    {\n        /// check wasCalled\n        if (self.schedule.isAfterWindow()) {\n            return self.paymentData.sendBounty();\n        }\n        return false;\n    }\n\n    function canSendOwnerEther(Request storage self) \n        public view returns(bool) \n    {\n        return self.meta.isCancelled || self.schedule.isAfterWindow() || self.meta.wasCalled;\n    }\n\n    /**\n     * Send owner ether. Wrapper over the real function that performs an extra \n     * check to see if it's after execution window (and thus the first transaction failed)\n     */\n    function sendOwnerEther(Request storage self, address recipient)\n        public returns (bool)\n    {\n        require(recipient != 0x0);\n        if(canSendOwnerEther(self) && msg.sender == self.meta.owner) {\n            return _sendOwnerEther(self, recipient);\n        }\n        return false;\n    }\n\n    /**\n     * Send owner ether. Wrapper over the real function that performs an extra \n     * check to see if it's after execution window (and thus the first transaction failed)\n     */\n    function sendOwnerEther(Request storage self)\n        public returns (bool)\n    {\n        if(canSendOwnerEther(self)) {\n            return _sendOwnerEther(self, self.meta.owner);\n        }\n        return false;\n    }\n\n    function _sendOwnerEther(Request storage self, address recipient) \n        private returns (bool)\n    {\n        // Note! This does not do any checks since it is used in the execute function.\n        // The public version of the function should be used for checks and in the cancel function.\n        uint ownerRefund = address(this).balance\n            .sub(self.claimData.claimDeposit)\n            .sub(self.paymentData.bountyOwed)\n            .sub(self.paymentData.feeOwed);\n        /* solium-disable security/no-send */\n        return recipient.send(ownerRefund);\n    }\n}",
  "sourcePath": "/home/volt/workspaces/ethereum-alarm-clock/ethereum-alarm-clock/contracts/Library/RequestLib.sol",
  "compiler": {
    "name": "solc",
    "version": "0.4.24+commit.e67f0147.Emscripten.clang"
  },
  "schemaVersion": "2.0.1",
  "updatedAt": "2018-08-17T14:26:00.995Z"
}