{
  "contractName": "TransactionRecorder",
  "abi": [
    {
      "constant": true,
      "inputs": [],
      "name": "lastCaller",
      "outputs": [
        {
          "name": "",
          "type": "address"
        }
      ],
      "payable": false,
      "stateMutability": "view",
      "type": "function"
    },
    {
      "constant": true,
      "inputs": [],
      "name": "lastCallGas",
      "outputs": [
        {
          "name": "",
          "type": "uint256"
        }
      ],
      "payable": false,
      "stateMutability": "view",
      "type": "function"
    },
    {
      "constant": true,
      "inputs": [],
      "name": "lastCallData",
      "outputs": [
        {
          "name": "",
          "type": "bytes"
        }
      ],
      "payable": false,
      "stateMutability": "view",
      "type": "function"
    },
    {
      "constant": true,
      "inputs": [],
      "name": "wasCalled",
      "outputs": [
        {
          "name": "",
          "type": "bool"
        }
      ],
      "payable": false,
      "stateMutability": "view",
      "type": "function"
    },
    {
      "constant": true,
      "inputs": [],
      "name": "lastCallValue",
      "outputs": [
        {
          "name": "",
          "type": "uint256"
        }
      ],
      "payable": false,
      "stateMutability": "view",
      "type": "function"
    },
    {
      "inputs": [],
      "payable": false,
      "stateMutability": "nonpayable",
      "type": "constructor"
    },
    {
      "payable": true,
      "stateMutability": "payable",
      "type": "fallback"
    },
    {
      "constant": false,
      "inputs": [],
      "name": "__reset__",
      "outputs": [],
      "payable": false,
      "stateMutability": "nonpayable",
      "type": "function"
    },
    {
      "constant": false,
      "inputs": [],
      "name": "kill",
      "outputs": [],
      "payable": false,
      "stateMutability": "nonpayable",
      "type": "function"
    }
  ],
  "bytecode": "0x608060405260206040519081016040528060008152506003908051906020019061002a92919061007d565b5034801561003757600080fd5b50336000806101000a81548173ffffffffffffffffffffffffffffffffffffffff021916908373ffffffffffffffffffffffffffffffffffffffff160217905550610122565b828054600181600116156101000203166002900490600052602060002090601f016020900481019282601f106100be57805160ff19168380011785556100ec565b828001600101855582156100ec579182015b828111156100eb5782518255916020019190600101906100d0565b5b5090506100f991906100fd565b5090565b61011f91905b8082111561011b576000816000905550600101610103565b5090565b90565b6105fa806101316000396000f300608060405260043610610083576000357c0100000000000000000000000000000000000000000000000000000000900463ffffffff1680632113522a146101025780632b589b281461015957806341c0e1b51461018457806372a853b11461019b5780637cbcc2541461022b578063c680362214610242578063f87af02314610271575b5a6004819055506000366003919061009c9291906104a9565b5033600260006101000a81548173ffffffffffffffffffffffffffffffffffffffff021916908373ffffffffffffffffffffffffffffffffffffffff160217905550346001819055506001600060146101000a81548160ff021916908315150217905550005b34801561010e57600080fd5b5061011761029c565b604051808273ffffffffffffffffffffffffffffffffffffffff1673ffffffffffffffffffffffffffffffffffffffff16815260200191505060405180910390f35b34801561016557600080fd5b5061016e6102c2565b6040518082815260200191505060405180910390f35b34801561019057600080fd5b506101996102c8565b005b3480156101a757600080fd5b506101b061035d565b6040518080602001828103825283818151815260200191508051906020019080838360005b838110156101f05780820151818401526020810190506101d5565b50505050905090810190601f16801561021d5780820380516001836020036101000a031916815260200191505b509250505060405180910390f35b34801561023757600080fd5b506102406103fb565b005b34801561024e57600080fd5b50610257610490565b604051808215151515815260200191505060405180910390f35b34801561027d57600080fd5b506102866104a3565b6040518082815260200191505060405180910390f35b600260009054906101000a900473ffffffffffffffffffffffffffffffffffffffff1681565b60045481565b6000809054906101000a900473ffffffffffffffffffffffffffffffffffffffff1673ffffffffffffffffffffffffffffffffffffffff163373ffffffffffffffffffffffffffffffffffffffff1614151561032357600080fd5b6000809054906101000a900473ffffffffffffffffffffffffffffffffffffffff1673ffffffffffffffffffffffffffffffffffffffff16ff5b60038054600181600116156101000203166002900480601f0160208091040260200160405190810160405280929190818152602001828054600181600116156101000203166002900480156103f35780601f106103c8576101008083540402835291602001916103f3565b820191906000526020600020905b8154815290600101906020018083116103d657829003601f168201915b505050505081565b6000600481905550602060405190810160405280600081525060039080519060200190610429929190610529565b506000600260006101000a81548173ffffffffffffffffffffffffffffffffffffffff021916908373ffffffffffffffffffffffffffffffffffffffff160217905550600060018190555060008060146101000a81548160ff021916908315150217905550565b600060149054906101000a900460ff1681565b60015481565b828054600181600116156101000203166002900490600052602060002090601f016020900481019282601f106104ea57803560ff1916838001178555610518565b82800160010185558215610518579182015b828111156105175782358255916020019190600101906104fc565b5b50905061052591906105a9565b5090565b828054600181600116156101000203166002900490600052602060002090601f016020900481019282601f1061056a57805160ff1916838001178555610598565b82800160010185558215610598579182015b8281111561059757825182559160200191906001019061057c565b5b5090506105a591906105a9565b5090565b6105cb91905b808211156105c75760008160009055506001016105af565b5090565b905600a165627a7a723058208cb0267830769884054c11d8a4d8276f25fef899307584852d022aa251364f770029",
  "source": "pragma solidity 0.4.24;\n\ncontract TransactionRecorder {\n    address owner;\n\n    bool public wasCalled;\n    uint public lastCallValue;\n    address public lastCaller;\n    bytes public lastCallData = \"\";\n    uint public lastCallGas;\n\n    function TransactionRecorder()  public {\n        owner = msg.sender;\n    }\n\n    function() payable  public {\n        lastCallGas = gasleft();\n        lastCallData = msg.data;\n        lastCaller = msg.sender;\n        lastCallValue = msg.value;\n        wasCalled = true;\n    }\n\n    function __reset__() public {\n        lastCallGas = 0;\n        lastCallData = \"\";\n        lastCaller = 0x0;\n        lastCallValue = 0;\n        wasCalled = false;\n    }\n\n    function kill() public {\n        require(msg.sender == owner);\n        selfdestruct(owner);\n    }\n}\n",
  "sourcePath": "/home/volt/workspaces/ethereum-alarm-clock/ethereum-alarm-clock/contracts/_test/TransactionRecorder.sol",
  "compiler": {
    "name": "solc",
    "version": "0.4.24+commit.e67f0147.Emscripten.clang"
  },
  "schemaVersion": "2.0.1",
  "updatedAt": "2018-08-17T14:26:01.011Z"
}