{
  "contractName": "TransactionRequestCore",
  "abi": [
    {
      "payable": true,
      "stateMutability": "payable",
      "type": "fallback"
    },
    {
      "anonymous": false,
      "inputs": [
        {
          "indexed": false,
          "name": "reason",
          "type": "uint8"
        }
      ],
      "name": "Aborted",
      "type": "event"
    },
    {
      "anonymous": false,
      "inputs": [
        {
          "indexed": false,
          "name": "rewardPayment",
          "type": "uint256"
        },
        {
          "indexed": false,
          "name": "measuredGasConsumption",
          "type": "uint256"
        }
      ],
      "name": "Cancelled",
      "type": "event"
    },
    {
      "anonymous": false,
      "inputs": [],
      "name": "Claimed",
      "type": "event"
    },
    {
      "anonymous": false,
      "inputs": [
        {
          "indexed": false,
          "name": "bounty",
          "type": "uint256"
        },
        {
          "indexed": false,
          "name": "fee",
          "type": "uint256"
        },
        {
          "indexed": false,
          "name": "measuredGasConsumption",
          "type": "uint256"
        }
      ],
      "name": "Executed",
      "type": "event"
    },
    {
      "constant": false,
      "inputs": [
        {
          "name": "addressArgs",
          "type": "address[4]"
        },
        {
          "name": "uintArgs",
          "type": "uint256[12]"
        },
        {
          "name": "callData",
          "type": "bytes"
        }
      ],
      "name": "initialize",
      "outputs": [],
      "payable": true,
      "stateMutability": "payable",
      "type": "function"
    },
    {
      "constant": false,
      "inputs": [],
      "name": "execute",
      "outputs": [
        {
          "name": "",
          "type": "bool"
        }
      ],
      "payable": false,
      "stateMutability": "nonpayable",
      "type": "function"
    },
    {
      "constant": false,
      "inputs": [],
      "name": "cancel",
      "outputs": [
        {
          "name": "",
          "type": "bool"
        }
      ],
      "payable": false,
      "stateMutability": "nonpayable",
      "type": "function"
    },
    {
      "constant": false,
      "inputs": [],
      "name": "claim",
      "outputs": [
        {
          "name": "",
          "type": "bool"
        }
      ],
      "payable": true,
      "stateMutability": "payable",
      "type": "function"
    },
    {
      "constant": true,
      "inputs": [],
      "name": "requestData",
      "outputs": [
        {
          "name": "",
          "type": "address[6]"
        },
        {
          "name": "",
          "type": "bool[3]"
        },
        {
          "name": "",
          "type": "uint256[15]"
        },
        {
          "name": "",
          "type": "uint8[1]"
        }
      ],
      "payable": false,
      "stateMutability": "view",
      "type": "function"
    },
    {
      "constant": true,
      "inputs": [],
      "name": "callData",
      "outputs": [
        {
          "name": "data",
          "type": "bytes"
        }
      ],
      "payable": false,
      "stateMutability": "view",
      "type": "function"
    },
    {
      "constant": false,
      "inputs": [
        {
          "name": "_to",
          "type": "address"
        },
        {
          "name": "_data",
          "type": "bytes"
        }
      ],
      "name": "proxy",
      "outputs": [
        {
          "name": "success",
          "type": "bool"
        }
      ],
      "payable": true,
      "stateMutability": "payable",
      "type": "function"
    },
    {
      "constant": false,
      "inputs": [],
      "name": "refundClaimDeposit",
      "outputs": [
        {
          "name": "",
          "type": "bool"
        }
      ],
      "payable": false,
      "stateMutability": "nonpayable",
      "type": "function"
    },
    {
      "constant": false,
      "inputs": [],
      "name": "sendFee",
      "outputs": [
        {
          "name": "",
          "type": "bool"
        }
      ],
      "payable": false,
      "stateMutability": "nonpayable",
      "type": "function"
    },
    {
      "constant": false,
      "inputs": [],
      "name": "sendBounty",
      "outputs": [
        {
          "name": "",
          "type": "bool"
        }
      ],
      "payable": false,
      "stateMutability": "nonpayable",
      "type": "function"
    },
    {
      "constant": false,
      "inputs": [
        {
          "name": "recipient",
          "type": "address"
        }
      ],
      "name": "sendOwnerEther",
      "outputs": [
        {
          "name": "",
          "type": "bool"
        }
      ],
      "payable": false,
      "stateMutability": "nonpayable",
      "type": "function"
    },
    {
      "constant": false,
      "inputs": [],
      "name": "sendOwnerEther",
      "outputs": [
        {
          "name": "",
          "type": "bool"
        }
      ],
      "payable": false,
      "stateMutability": "nonpayable",
      "type": "function"
    }
  ],
  "bytecode": "0x60806040526000601760006101000a81548160ff02191690831515021790555034801561002b57600080fd5b50611f6e8061003b6000396000f3006080604052600436106100ba576000357c0100000000000000000000000000000000000000000000000000000000900463ffffffff1680633e50b0b8146100bc5780634bb89c4d146101175780634e417a98146101465780634e71d92d146101d6578063606deecd146101f857806361461954146102d85780636949a05814610307578063820e852214610336578063ae39279f146103f1578063b311ee0c14610420578063be6d055a1461044f578063ea8a1af0146104e3575b005b3480156100c857600080fd5b506100fd600480360381019080803573ffffffffffffffffffffffffffffffffffffffff169060200190929190505050610512565b604051808215151515815260200191505060405180910390f35b34801561012357600080fd5b5061012c6105f7565b604051808215151515815260200191505060405180910390f35b34801561015257600080fd5b5061015b6106a6565b6040518080602001828103825283818151815260200191508051906020019080838360005b8381101561019b578082015181840152602081019050610180565b50505050905090810190601f1680156101c85780820380516001836020036101000a031916815260200191505b509250505060405180910390f35b6101de61074d565b604051808215151515815260200191505060405180910390f35b34801561020457600080fd5b5061020d61075e565b6040518085600660200280838360005b8381101561023857808201518184015260208101905061021d565b5050505090500184600360200280838360005b8381101561026657808201518184015260208101905061024b565b5050505090500183600f60200280838360005b83811015610294578082015181840152602081019050610279565b5050505090500182600160200280838360005b838110156102c25780820151818401526020810190506102a7565b5050505090500194505050505060405180910390f35b3480156102e457600080fd5b506102ed610796565b604051808215151515815260200191505060405180910390f35b34801561031357600080fd5b5061031c6107a7565b604051808215151515815260200191505060405180910390f35b6103ef6004803603810190808060800190600480602002604051908101604052809291908260046020028082843782019150505050509192919290806101800190600c806020026040519081016040528092919082600c6020028082843782019150505050509192919290803590602001908201803590602001908080601f0160208091040260200160405190810160405280939291908181526020018383808284378201915050505050509192919290505050610856565b005b3480156103fd57600080fd5b50610406610a09565b604051808215151515815260200191505060405180910390f35b34801561042c57600080fd5b50610435610ab8565b604051808215151515815260200191505060405180910390f35b6104c9600480360381019080803573ffffffffffffffffffffffffffffffffffffffff169060200190929190803590602001908201803590602001908080601f0160208091040260200160405190810160405280939291908181526020018383808284378201915050505050509192919290505050610b66565b604051808215151515815260200191505060405180910390f35b3480156104ef57600080fd5b506104f8610c6f565b604051808215151515815260200191505060405180910390f35b60008073__RequestLib____________________________63d81b530c9091846040518363ffffffff167c0100000000000000000000000000000000000000000000000000000000028152600401808381526020018273ffffffffffffffffffffffffffffffffffffffff1673ffffffffffffffffffffffffffffffffffffffff1681526020019250505060206040518083038186803b1580156105b557600080fd5b505af41580156105c9573d6000803e3d6000fd5b505050506040513d60208110156105df57600080fd5b81019080805190602001909291905050509050919050565b60008073__RequestLib____________________________63ab3b2e8190916040518263ffffffff167c01000000000000000000000000000000000000000000000000000000000281526004018082815260200191505060206040518083038186803b15801561066657600080fd5b505af415801561067a573d6000803e3d6000fd5b505050506040513d602081101561069057600080fd5b8101908080519060200190929190505050905090565b6060600080016001018054600181600116156101000203166002900480601f0160208091040260200160405190810160405280929190818152602001828054600181600116156101000203166002900480156107435780601f1061071857610100808354040283529160200191610743565b820191906000526020600020905b81548152906001019060200180831161072657829003601f168201915b5050505050905090565b60006107596000610d1e565b905090565b610766611eb5565b61076e611ed8565b610776611efb565b61077e611f1f565b6107886000610d88565b935093509350935090919293565b60006107a2600061117b565b905090565b60008073__RequestLib____________________________634074b91c90916040518263ffffffff167c01000000000000000000000000000000000000000000000000000000000281526004018082815260200191505060206040518083038186803b15801561081657600080fd5b505af415801561082a573d6000803e3d6000fd5b505050506040513d602081101561084057600080fd5b8101908080519060200190929190505050905090565b601760009054906101000a900460ff1615151561087257600080fd5b600073__RequestLib____________________________638c5bebf290918585856040518563ffffffff167c01000000000000000000000000000000000000000000000000000000000281526004018085815260200184600460200280838360005b838110156108ef5780820151818401526020810190506108d4565b5050505090500183600c60200280838360005b8381101561091d578082015181840152602081019050610902565b5050505090500180602001828103825283818151815260200191508051906020019080838360005b83811015610960578082015181840152602081019050610945565b50505050905090810190601f16801561098d5780820380516001836020036101000a031916815260200191505b509550505050505060206040518083038186803b1580156109ad57600080fd5b505af41580156109c1573d6000803e3d6000fd5b505050506040513d60208110156109d757600080fd5b8101908080519060200190929190505050506001601760006101000a81548160ff021916908315150217905550505050565b60008073__RequestLib____________________________63f925a7d690916040518263ffffffff167c01000000000000000000000000000000000000000000000000000000000281526004018082815260200191505060206040518083038186803b158015610a7857600080fd5b505af4158015610a8c573d6000803e3d6000fd5b505050506040513d6020811015610aa257600080fd5b8101908080519060200190929190505050905090565b60008073__RequestLib____________________________637994549a90916040518263ffffffff167c01000000000000000000000000000000000000000000000000000000000281526004018082815260200191505060206040518083038186803b158015610b2757600080fd5b505af4158015610b3b573d6000803e3d6000fd5b505050506040513d6020811015610b5157600080fd5b81019080805190602001909291905050505090565b60003373ffffffffffffffffffffffffffffffffffffffff16600060050160000160009054906101000a900473ffffffffffffffffffffffffffffffffffffffff1673ffffffffffffffffffffffffffffffffffffffff16148015610bd45750610bd36000601101611787565b5b1515610bdf57600080fd5b8273ffffffffffffffffffffffffffffffffffffffff16348360405180828051906020019080838360005b83811015610c25578082015181840152602081019050610c0a565b50505050905090810190601f168015610c525780820380516001836020036101000a031916815260200191505b5091505060006040518083038185875af192505050905092915050565b60008073__RequestLib____________________________6332839d9890916040518263ffffffff167c01000000000000000000000000000000000000000000000000000000000281526004018082815260200191505060206040518083038186803b158015610cde57600080fd5b505af4158015610cf2573d6000803e3d6000fd5b505050506040513d6020811015610d0857600080fd5b8101908080519060200190929190505050905090565b6000610d29826117a3565b1515610d3457600080fd5b7fbcb472984264b16baa8cde752f2af002ea8ce06f35d81caee36625234edd2a4660405160405180910390a1610d81610d6f83601101611814565b83600d0161187b90919063ffffffff16565b9050919050565b610d90611eb5565b610d98611ed8565b610da0611efb565b610da8611f1f565b610db0611eb5565b610db8611ed8565b610dc0611efb565b610dc8611f1f565b60c0604051908101604052808a600d0160000160009054906101000a900473ffffffffffffffffffffffffffffffffffffffff1673ffffffffffffffffffffffffffffffffffffffff1673ffffffffffffffffffffffffffffffffffffffff1681526020018a60050160010160009054906101000a900473ffffffffffffffffffffffffffffffffffffffff1673ffffffffffffffffffffffffffffffffffffffff1673ffffffffffffffffffffffffffffffffffffffff1681526020018a60050160000160009054906101000a900473ffffffffffffffffffffffffffffffffffffffff1673ffffffffffffffffffffffffffffffffffffffff1673ffffffffffffffffffffffffffffffffffffffff1681526020018a60070160040160009054906101000a900473ffffffffffffffffffffffffffffffffffffffff1673ffffffffffffffffffffffffffffffffffffffff1673ffffffffffffffffffffffffffffffffffffffff1681526020018a60070160010160009054906101000a900473ffffffffffffffffffffffffffffffffffffffff1673ffffffffffffffffffffffffffffffffffffffff1673ffffffffffffffffffffffffffffffffffffffff1681526020018a60000160000160009054906101000a900473ffffffffffffffffffffffffffffffffffffffff1673ffffffffffffffffffffffffffffffffffffffff1673ffffffffffffffffffffffffffffffffffffffff1681525093506060604051908101604052808a60050160010160149054906101000a900460ff161515151581526020018a60050160010160159054906101000a900460ff161515151581526020018a60050160010160169054906101000a900460ff161515151581525092506101e0604051908101604052808a600d016001015481526020018a6007016003015481526020018a6007016005015481526020018a6007016000015481526020018a6007016002015481526020018a6011016005015481526020018a6011016003015481526020018a6011016004015481526020018a60110160000160009054906101000a900460ff1660028111156110e557fe5b81526020018a6011016002015481526020018a6011016001015481526020018a6000016003015481526020018a6000016002015481526020018a6000016004015481526020018a600d016002015481525091506020604051908101604052808a600d0160030160009054906101000a900460ff1660ff1660ff168152509050838383839750975097509750505050509193509193565b6000806000805a92506111a16161a8611193876118f0565b61191690919063ffffffff16565b5a10156111fa577fc008bc849b42227c61d5063a1313ce509a6e99211bfd59e827e417be6c65c81b600560068111156111d657fe5b604051808260ff1660ff16815260200191505060405180910390a16000935061177f565b8460050160010160159054906101000a900460ff1615611266577fc008bc849b42227c61d5063a1313ce509a6e99211bfd59e827e417be6c65c81b6001600681111561124257fe5b604051808260ff1660ff16815260200191505060405180910390a16000935061177f565b8460050160010160149054906101000a900460ff16156112d2577fc008bc849b42227c61d5063a1313ce509a6e99211bfd59e827e417be6c65c81b600060068111156112ae57fe5b604051808260ff1660ff16815260200191505060405180910390a16000935061177f565b6112de85601101611932565b15611335577fc008bc849b42227c61d5063a1313ce509a6e99211bfd59e827e417be6c65c81b6002600681111561131157fe5b604051808260ff1660ff16815260200191505060405180910390a16000935061177f565b61134185601101611787565b15611398577fc008bc849b42227c61d5063a1313ce509a6e99211bfd59e827e417be6c65c81b6003600681111561137457fe5b604051808260ff1660ff16815260200191505060405180910390a16000935061177f565b6113a485600d0161194a565b8015611403575084600d0160000160009054906101000a900473ffffffffffffffffffffffffffffffffffffffff1673ffffffffffffffffffffffffffffffffffffffff163373ffffffffffffffffffffffffffffffffffffffff1614155b8015611417575061141685601101611991565b5b1561146e577fc008bc849b42227c61d5063a1313ce509a6e99211bfd59e827e417be6c65c81b6004600681111561144a57fe5b604051808260ff1660ff16815260200191505060405180910390a16000935061177f565b3a856000016004015411156114ce577fc008bc849b42227c61d5063a1313ce509a6e99211bfd59e827e417be6c65c81b6006808111156114aa57fe5b604051808260ff1660ff16815260200191505060405180910390a16000935061177f565b60018560050160010160156101000a81548160ff0219169083151502179055506114fa856000016119c5565b8560050160010160166101000a81548160ff02191690831515021790555061152485600701611aa7565b1561155a5761154e856007016005015461154087600701611aee565b611afc90919063ffffffff16565b85600701600501819055505b8460070160050154915061157085600701611b1d565b50338560070160010160006101000a81548173ffffffffffffffffffffffffffffffffffffffff021916908373ffffffffffffffffffffffffffffffffffffffff1602179055506115c385600d0161194a565b15611654576115e9856007016002015486600d0160010154611afc90919063ffffffff16565b8560070160020181905550600085600d0160010181905550611644856007016002015461163687600d0160030160009054906101000a900460ff1688600701611ba590919063ffffffff16565b611afc90919063ffffffff16565b8560070160020181905550611685565b611679856007016002015461166b87600701611be0565b611afc90919063ffffffff16565b85600701600201819055505b6116ad62015f9061169f5a8661191690919063ffffffff16565b611afc90919063ffffffff16565b90506116e285600701600201546116d4876000016004015484611bee90919063ffffffff16565b611afc90919063ffffffff16565b85600701600201819055507f3e504bb8b225ad41f613b0c3c4205cdd752d1615b4d77cd1773417282fcfb5d98560070160020154838360405180848152602001838152602001828152602001935050505060405180910390a161174785600701611c24565b50611779858660050160000160009054906101000a900473ffffffffffffffffffffffffffffffffffffffff16611cac565b50600193505b505050919050565b600061179282611d52565b61179b83611d76565b119050919050565b60006117b182600d0161194a565b1515156117bd57600080fd5b8160050160010160149054906101000a900460ff161515156117de57600080fd5b6117ea82601101611d99565b15156117f557600080fd5b81600d0160020154341015151561180b57600080fd5b60019050919050565b6000806118638360050154611855606461184761183088611dd1565b61183989611d76565b61191690919063ffffffff16565b611bee90919063ffffffff16565b611df990919063ffffffff16565b90506064811115151561187257fe5b80915050919050565b6000338360000160006101000a81548173ffffffffffffffffffffffffffffffffffffffff021916908373ffffffffffffffffffffffffffffffffffffffff160217905550348360010181905550818360030160006101000a81548160ff021916908360ff1602179055506001905092915050565b600061190f6202bf208360000160030154611afc90919063ffffffff16565b9050919050565b600082821115151561192757600080fd5b818303905092915050565b6000816001015461194283611d76565b109050919050565b6000808260000160009054906101000a900473ffffffffffffffffffffffffffffffffffffffff1673ffffffffffffffffffffffffffffffffffffffff1614159050919050565b600061199c82611d76565b8260010154111580156119be57506119b382611e14565b6119bc83611d76565b105b9050919050565b60003a8260040154111515156119da57600080fd5b8160000160009054906101000a900473ffffffffffffffffffffffffffffffffffffffff1673ffffffffffffffffffffffffffffffffffffffff168260020154836003015490846001016040518082805460018160011615610100020316600290048015611a895780601f10611a5e57610100808354040283529160200191611a89565b820191906000526020600020905b815481529060010190602001808311611a6c57829003601f168201915b5050915050600060405180830381858888f193505050509050919050565b6000808260040160009054906101000a900473ffffffffffffffffffffffffffffffffffffffff1673ffffffffffffffffffffffffffffffffffffffff1614159050919050565b600081600301549050919050565b6000808284019050838110151515611b1357600080fd5b8091505092915050565b600080826005015490506000811115611b9a57600083600501819055508260040160009054906101000a900473ffffffffffffffffffffffffffffffffffffffff1673ffffffffffffffffffffffffffffffffffffffff166108fc829081150290604051600060405180830381858888f193505050509150611b9f565b600191505b50919050565b6000611bd86064611bca8460ff16611bbc87611be0565b611bee90919063ffffffff16565b611df990919063ffffffff16565b905092915050565b600081600001549050919050565b60008082840290506000841480611c0f5750828482811515611c0c57fe5b04145b1515611c1a57600080fd5b8091505092915050565b600080826002015490506000811115611ca157600083600201819055508260010160009054906101000a900473ffffffffffffffffffffffffffffffffffffffff1673ffffffffffffffffffffffffffffffffffffffff166108fc829081150290604051600060405180830381858888f193505050509150611ca6565b600191505b50919050565b600080611d128460070160050154611d048660070160020154611cf688600d01600101543073ffffffffffffffffffffffffffffffffffffffff163161191690919063ffffffff16565b61191690919063ffffffff16565b61191690919063ffffffff16565b90508273ffffffffffffffffffffffffffffffffffffffff166108fc829081150290604051600060405180830381858888f1935050505091505092915050565b6000611d6f82600201548360010154611afc90919063ffffffff16565b9050919050565b6000611d928260000160009054906101000a900460ff16611e38565b9050919050565b6000611da482611d76565b611dad83611dd1565b11158015611dca5750611dbf82611e91565b611dc883611d76565b105b9050919050565b6000611df28260050154611de484611e91565b61191690919063ffffffff16565b9050919050565b6000808284811515611e0757fe5b0490508091505092915050565b6000611e3182600401548360010154611afc90919063ffffffff16565b9050919050565b6000600280811115611e4657fe5b826002811115611e5257fe5b1415611e6057429050611e8c565b60016002811115611e6d57fe5b826002811115611e7957fe5b1415611e8757439050611e8c565b600080fd5b919050565b6000611eae8260030154836001015461191690919063ffffffff16565b9050919050565b60c060405190810160405280600690602082028038833980820191505090505090565b606060405190810160405280600390602082028038833980820191505090505090565b6101e060405190810160405280600f90602082028038833980820191505090505090565b6020604051908101604052806001906020820280388339808201915050905050905600a165627a7a723058201c85743a5449d1f5e530fb46dcb6c9d41832e46bd5380aea4bb2f68648934ed50029",
  "source": "pragma solidity 0.4.24;\n\nimport \"contracts/Library/RequestLib.sol\";\nimport \"contracts/Library/RequestScheduleLib.sol\";\nimport \"contracts/Interface/TransactionRequestInterface.sol\";\n\ncontract TransactionRequestCore is TransactionRequestInterface {\n    using RequestLib for RequestLib.Request;\n    using RequestScheduleLib for RequestScheduleLib.ExecutionWindow;\n\n    RequestLib.Request txnRequest;\n    bool private initialized = false;\n\n    /*\n     *  addressArgs[0] - meta.createdBy\n     *  addressArgs[1] - meta.owner\n     *  addressArgs[2] - paymentData.feeRecipient\n     *  addressArgs[3] - txnData.toAddress\n     *\n     *  uintArgs[0]  - paymentData.fee\n     *  uintArgs[1]  - paymentData.bounty\n     *  uintArgs[2]  - schedule.claimWindowSize\n     *  uintArgs[3]  - schedule.freezePeriod\n     *  uintArgs[4]  - schedule.reservedWindowSize\n     *  uintArgs[5]  - schedule.temporalUnit\n     *  uintArgs[6]  - schedule.windowSize\n     *  uintArgs[7]  - schedule.windowStart\n     *  uintArgs[8]  - txnData.callGas\n     *  uintArgs[9]  - txnData.callValue\n     *  uintArgs[10] - txnData.gasPrice\n     *  uintArgs[11] - claimData.requiredDeposit\n     */\n    function initialize(\n        address[4]  addressArgs,\n        uint[12]    uintArgs,\n        bytes       callData\n    )\n        public payable\n    {\n        require(!initialized);\n\n        txnRequest.initialize(addressArgs, uintArgs, callData);\n        initialized = true;\n    }\n\n    /*\n     *  Allow receiving ether.  This is needed if there is a large increase in\n     *  network gas prices.\n     */\n    function() public payable {}\n\n    /*\n     *  Actions\n     */\n    function execute() public returns (bool) {\n        return txnRequest.execute();\n    }\n\n    function cancel() public returns (bool) {\n        return txnRequest.cancel();\n    }\n\n    function claim() public payable returns (bool) {\n        return txnRequest.claim();\n    }\n\n    /*\n     *  Data accessor functions.\n     */\n\n    // Declaring this function `view`, although it creates a compiler warning, is\n    // necessary to return values from it.\n    function requestData()\n        public view returns (address[6], bool[3], uint[15], uint8[1])\n    {\n        return txnRequest.serialize();\n    }\n\n    function callData()\n        public view returns (bytes data)\n    {\n        data = txnRequest.txnData.callData;\n    }\n\n    /**\n     * @dev Proxy a call from this contract to another contract.\n     * This function is only callable by the scheduler and can only\n     * be called after the execution window ends. One purpose is to\n     * provide a way to transfer assets held by this contract somewhere else.\n     * For example, if this request was used to buy tokens during an ICO,\n     * it would become the owner of the tokens and this function would need\n     * to be called with the encoded data to the token contract to transfer\n     * the assets somewhere else. */\n    function proxy(address _to, bytes _data)\n        public payable returns (bool success)\n    {\n        require(txnRequest.meta.owner == msg.sender && txnRequest.schedule.isAfterWindow());\n        \n        /* solium-disable-next-line */\n        return _to.call.value(msg.value)(_data);\n    }\n\n    /*\n     *  Pull based payment functions.\n     */\n    function refundClaimDeposit() public returns (bool) {\n        txnRequest.refundClaimDeposit();\n    }\n\n    function sendFee() public returns (bool) {\n        return txnRequest.sendFee();\n    }\n\n    function sendBounty() public returns (bool) {\n        return txnRequest.sendBounty();\n    }\n\n    function sendOwnerEther() public returns (bool) {\n        return txnRequest.sendOwnerEther();\n    }\n\n    function sendOwnerEther(address recipient) public returns (bool) {\n        return txnRequest.sendOwnerEther(recipient);\n    }\n\n    /** Event duplication from RequestLib.sol. This is so\n     *  that these events are available on the contracts ABI.*/\n    event Aborted(uint8 reason);\n    event Cancelled(uint rewardPayment, uint measuredGasConsumption);\n    event Claimed();\n    event Executed(uint bounty, uint fee, uint measuredGasConsumption);\n}\n",
  "sourcePath": "/home/volt/workspaces/ethereum-alarm-clock/ethereum-alarm-clock/contracts/TransactionRequestCore.sol",
  "compiler": {
    "name": "solc",
    "version": "0.4.24+commit.e67f0147.Emscripten.clang"
  },
  "schemaVersion": "2.0.1",
  "updatedAt": "2018-08-17T14:26:01.010Z"
}